:100000000C9434020C94760E0C944F0E0C949D0EAE
:100010000C949D0E0C949D0E0C94560F0C945C0247
:100020000C945C020C945C020C945C020C945C02D8
:100030000C945C020C945C020C945C020C945C02C8
:100040000C94050E0C945C020C94F80C0C94D20CDD
:100050000C945C020C945C020C945C020C945C02A8
:100060000C94BC0F0C945C026364696E6F707375C2
:1000700078585B0046726565206D656D6F727920FA
:1000800062797465733A20004D61696E5461736BD7
:100090002073746172746564005441475F53504922
:1000A0005F53595354454D5F54494D4520005441C9
:1000B000475F5350495F534C4545505F54494D4548
:1000C00020005441475F5250495F534C4545505FB3
:1000D00054494D4520005441475F5044555F434FBC
:1000E0004E54524F4C200069326352656365697605
:1000F000657220006932635472616E736D69747445
:1001000065722000525069206469646E2774207003
:100110006F77657220757021204379636C6520527A
:10012000506920706F77657220616E6420747279F7
:1001300020616761696E2E006D4100525069206335
:10014000757272656E743A2000206D4100576169C6
:1001500074696E6720666F722052506920746F2038
:10016000706F77657220757020617420525069201D
:1001700063757272656E74207468726573686F6CF3
:10018000642000506F7765722075702052506900AE
:10019000506F77657220646F776E205250690052FD
:1001A0005069206469646E277420706F77657220CF
:1001B000646F776E2120466F72636520706F77657C
:1001C0007220646F776E2E006D410052506920637B
:1001D000757272656E743A2000206D410057616936
:1001E00074696E6720666F722052506920746F20A8
:1001F00073687574646F776E206174205250692043
:1002000063757272656E74207468726573686F6C62
:10021000642000556E65787065637465642053656D
:10022000742F47657420666C616773004753465F9F
:10023000504152414D455445525F4552524F520034
:100240004753465F4E4F545F535550504F5254459D
:1002500044004753465F554E4B4E4F574E5F4944FF
:10026000004661696C65642E2E2E0000000000249B
:100270000027002A0000000000250028002B005362
:1002800065742052544320616C61726D20696E2048
:100290006F6E65206D696E75746500727463496E6A
:1002A00069742829206661696C656421004465765B
:1002B00069636520737461746520006370755465AB
:1002C0006D7065726174757265200070616E656C29
:1002D000566F6C7461676520006C6F616443757262
:1002E00072656E742000636861726765724375722F
:1002F00072656E74200063686172676572566F6C18
:10030000746167652000636F6E73756D6564596510
:10031000737465726461792000636F6E73756D65C7
:1003200064546F646179200070616E656C506F7702
:1003300065722000656E657267795969656C6454F1
:100340006F6461792000525443206469646E27749D
:10035000206669726520696E7465727275707421A9
:100360000052656164696E6720736F6C617220630F
:100370006861726765720055702074696D653A2016
:100380000020696E746572727570742E200052546C
:100390004300574454005761697420666F722052BD
:1003A000506920746F2066696E6973682069747380
:1003B00020776F726B00506F7765722075702052D6
:1003C000506920746F206765742074686520636FBE
:1003D0006E66696775726174696F6E2066726F6DA3
:1003E0002074686520776562005761697420343035
:1003F000207365636F6E647320666F722074686526
:1004000020726F7574657220746F20626F6F742034
:10041000757020616E6420636F6E6E65637400009A
:10042000000000230026002900040404040404043E
:100430000402020202020203030303030301020493
:100440000810204080010204081020010204081056
:100450002000000008000201000003040700000063
:10046000000000000000D91211241FBECFEFD8E019
:10047000DEBFCDBF11E0A0E0B1E0EAEAFCE302C0DC
:1004800005900D92A63EB107D9F724E0A6EEB1E0A3
:1004900001C01D92A034B207E1F712E0C4E3D2E03C
:1004A00004C02197FE010E94D51AC333D107C9F7B2
:1004B0000E9415130C94531E0C940000615070F0B0
:1004C000DC01ED91FC9111979F012F5F3F4F2D9320
:1004D0003C932081FA012193AF01F0CF0895089554
:1004E000CF92DF92EF92FF920F931F93CF93DF9300
:1004F0007C01262F972F8A0180914A03882391F04F
:10050000C62FD72F6E01C40ED51ECC15DD0571F098
:100510006991D701ED91FC910190F081E02DC70127
:100520000995F3CF642F822F0E94EA10C801DF9152
:10053000CF911F910F91FF90EF90DF90CF90089592
:10054000CF93DF931F92CDB7DEB7698320914A0323
:100550002223D1F020918D03203440F021E030E0BF
:10056000FC013383228380E090E015C080914B032F
:10057000E82FF0E0E45BFC4F998190838F5F8093DC
:100580004B0380938D0305C061E0CE0101960E946C
:10059000EA1081E090E00F90DF91CF9108950C94E4
:1005A000961726E331E0FC01318320832EE131E010
:1005B0003383228302960C94170F2EE331E0FC0163
:1005C000318320834C960C94D102CF93DF93EC01BE
:1005D0000E94DD02CE01DF91CF910C949617CF934C
:1005E000DF93EC010E94D102CE01DF91CF910C94F8
:1005F0009617CF93DF931F92CDB7DEB781E080933C
:100600004A0388E680938C0310924B0310928D036B
:100610008BE294E049830E94A0024981642F8BE21F
:1006200094E00E94A0020F90DF91CF910C944512AC
:1006300081E080934A0388E680938C0310924B03F9
:1006400010928D038BE294E00E94A0020E9445125A
:10065000809149038111FCCF81E08093490380930D
:1006600048039FEF9093470310924603109245036F
:100670008093040380910403806D80930403809130
:100680000303813061F4109203038091040380938B
:10069000BB008091BC0083FDF8CF85EC01C085EEE6
:1006A0008093BC00809149038130E1F3809146033F
:1006B000811103C08091460301C081E0A5E0B3E051
:1006C00028EE31E0F9019E2F921B981718F49D91A6
:1006D0009193F9CF10920103809300038BE294E091
:1006E0000E94B60C0895CF93DF93EC0161E00E9465
:1006F0001803482F4F7B61E0CE01DF91CF910C941E
:10070000F902CF93DF93EC0118821C821B821982BD
:100710001A8261E080E10E94830D8881811104C00A
:1007200060E080E10E94530D198261E084E00E9444
:10073000830D8881811104C060E084E00E94530D24
:100740001A8261E081E10E94830D60E081E10E94F4
:10075000530D60E087E00E94830D60E083E00E941B
:10076000830D60E082E0DF91CF910C94830D6115E1
:10077000710579F0FB0101900020E9F73197AF0195
:10078000461B570BDC01ED91FC910280F381E02DBB
:10079000099480E090E008952F923F924F925F92EB
:1007A0006F927F928F929F92AF92BF92CF92DF9281
:1007B000EF92FF920F931F93CF93DF93CDB7DEB7E6
:1007C00062970FB6F894DEBF0FBECDBF8C017D835C
:1007D0006C8323E02B836C0187E8C80ED11C480191
:1007E00098E8890E911C3801E3E26E0E711C7801C5
:1007F000FFE9EF0EF11CC7010296998B888B580117
:1008000092E0A90EB11C6C817D81C5010E94B703E5
:10081000C5010E942D0F0E94F90D1B012C010E94A1
:10082000F90DDC01CB0182199309A409B50920E077
:1008300084369105A105B10508F0B7C1C8018B56F2
:100840009F4F9F838E83F801E157FF4FF987E88719
:1008500008979B878A873296FD87EC8704979F8746
:100860008E87C5012A8B0E94330C2A89892B39F087
:10087000C5012A8B0E944B0C2A8997FF03C02111C6
:1008800094C1CDCFF80121A132A12130310581F0F1
:1008900022303105D1F0232B09F061C08A3309F0F1
:1008A00070C081E090E092A381A3F601108253C052
:1008B00020ED280F2A3008F456C02FEB280F2630E1
:1008C00008F04DC029EC280F4EC0F60120812436D7
:1008D00008F045C08A3031F5F30180E09E2F96196B
:1008E000921718F49191890FF9CF8535B1F4F80179
:1008F00083A1873091F4F80186A1882309F44CC0C4
:10090000823009F440C0833009F440C0813009F0DE
:1009100040C082E592E00E940E1220E0F80112A28F
:1009200011A29FCF30ED380F3A3008F436C13FEBBB
:10093000380F3630A0F439EC380F2FC191E0920F08
:10094000F6019083F801E20FF11D20E1829FC001C2
:100950001124832B83A38FEFF401808312C0F8014D
:1009600012A211A20EC0F601808191E0980F90832F
:10097000F801E80FF11D23A382E090E0F80192A3B3
:1009800081A320E06ECF80E492E0C5CF8CE292E0BC
:10099000C2CF83E192E0BFCFF80184A190E0982F0D
:1009A000882735A1832B803109F097C0492F55271F
:1009B000405551094F31510508F08FC0273209F0D9
:1009C0008CC0C80187969A8389834889598961E0D8
:1009D000CE0101960E945E02A7014D5F5F4F64E069
:1009E000CE0101960E945E02A701495F5F4F64E05D
:1009F000CE0101960E945E02A701455F5F4F62E053
:100A0000CE0101960E945E02A701435F5F4F62E044
:100A1000CE0101960E945E02A701415F5F4F61E037
:100A2000CE0101960E945E02A701405F5F4F61E028
:100A3000CE0101960E945E02A7014F5E5F4F61E00A
:100A4000CE0101960E945E02A7014E5E5F4F61E0FB
:100A5000CE0101960E945E02A7014D5E5F4F61E0EC
:100A6000CE0101960E945E02A7014C5E5F4F62E0DC
:100A7000CE0101960E945E02A7014A5E5F4F62E0CE
:100A8000CE0101960E945E02A701485E5F4F62E0C0
:100A9000CE0101960E945E02A701465E5F4F64E0B0
:100AA000CE0101960E945E02A701425E5F4F62E0A6
:100AB000CE0101960E945E02A701405E5F4F62E098
:100AC000CE0101960E945E02A7014E5D5F4F62E07B
:100AD000CE0101960E945E025EC0225040E050E0CE
:100AE000BA01243058F0762F652F542F4427F8018F
:100AF000E20FF11D33A1432B2150F3CF8D3EFDEBCF
:100B00009F0709F441C0E8F48D3EEDEA9E07C1F16C
:100B100040F48230914009F000CFF801E356FF4FD6
:100B200029C08D3EEBEB9E0791F18D3E9C4B09F069
:100B3000F4CEF801E756FF4F4083518362837383FD
:100B40002AC08D3E25ED9207C1F038F48D3E934DBD
:100B500009F0E3CEEE85FF850DC08D3E27ED9207AF
:100B600039F08D3E9B4D09F0D8CEEC85FD8502C055
:100B7000EA85FB85518340830EC0E885F985FACF6D
:100B8000F801ED56FF4FF6CFEE81FF81F3CFF8016C
:100B9000E956FF4FEFCF21E0C1CEF40180818F3FB6
:100BA00009F0CCCEF4013083ECCE8EE893E02A8BB2
:100BB0000E94740B2A8921110BC02B8121502B8399
:100BC00021111DCE81E692E00E940E1280E001C04C
:100BD00081E062960FB6F894DEBF0FBECDBFDF9105
:100BE000CF911F910F91FF90EF90DF90CF90BF902A
:100BF000AF909F908F907F906F905F904F903F90BD
:100C00002F900895CF93DF93EA010E94CC038823AD
:100C100019F08881998102C080E090E0DF91CF9146
:100C200008950F931F93CF93DF93CDB7DEB7A897A7
:100C30000FB6F894DEBF0FBECDBF8C0180E1EAE0B5
:100C4000F1E0DE01119601900D928A95E1F78CE0BA
:100C5000EAE7F1E0DE015D9601900D928A95E1F7F9
:100C600080E5860FE82FF0E094E0F595E7959A95FA
:100C7000E1F721E030E02C0F3D1FE20FF31F9081E0
:100C80009F8F8F70F901E80FF11D808188A39EEE80
:100C9000961BE92FF0E024E0F595E7952A95E1F71A
:100CA00021E030E02C0F3D1FE20FF31F80818DA368
:100CB0009F70F901E90FF11D80818EA3BE01635E73
:100CC0007F4FCE0141960E94E01ABE016F5E7F4FBA
:100CD000C8010E94CC03882321F0C80181569F4F90
:100CE00002C080E090E0A8960FB6F894DEBF0FBE79
:100CF000CDBFDF91CF911F910F9108958F929F9259
:100D0000AF92BF92CF92DF92EF92FF920F931F9319
:100D1000CF93DF93EC018DED91E00E94ED116A8994
:100D20007B8980E090E04AE00E946D1189ED91E0BE
:100D30000E940E120E94F90D6B017C010E94C612E6
:100D40008430910514F480E090E0BC01990F880B89
:100D5000990B0E9445192BE734E14EE450E40E94C0
:100D6000D1190E9414194B015C018B018BEC91E0AD
:100D70000E94ED11B40180E090E04AE00E946D1104
:100D800088EC91E00E940E128EE893E00E94740BB2
:100D900068EE73E080E090E00E94BF0D0E94A21216
:100DA000892B29F00E94F90D6B017C0112C00E9471
:100DB000F90DDC01CB018C199D09AE09BF09813603
:100DC0009A4EA105B10528F08FE991E00E94ED113E
:100DD00006C08A899B890817190708F0AFCF80E9F8
:100DE00091E00E940E128A81811104C060E080E1CE
:100DF0000E94530D1B8268E873E180E090E0DF9170
:100E0000CF911F910F91FF90EF90DF90CF90BF9007
:100E1000AF909F908F900C94BF0D8F929F92AF9246
:100E2000BF92CF92DF92EF92FF920F931F93CF93D7
:100E3000DF93EC0183E891E00E940E128A81811118
:100E400004C061E080E10E94530D81E08B838DE45A
:100E500091E00E94ED114AE064E670E080E090E0ED
:100E60000E946D1189E491E00E940E120E94F90D1A
:100E70006B017C010E94C6128430910514F480E05D
:100E800090E0BC01990F880B990B0E9445192BE744
:100E900034E14EE450E40E94D1190E9414194B0130
:100EA0005C018B018BE391E00E94ED11B40180E0C5
:100EB00090E04AE00E946D1188E391E00E940E12DA
:100EC0008EE893E00E94740B68EE73E080E090E09F
:100ED0000E94BF0D0E94A212892B41F50E94F90DBC
:100EE000DC01CB018C199D09AE09BF0981369A4EF0
:100EF000A105B105F8F084E091E00E940E128A810C
:100F0000811104C060E080E10E94530D1B8260EDFE
:100F100077E080E090E00E94BF0D8A81811104C0DB
:100F200061E080E10E94530D81E08B830E94F90D06
:100F30006B017C010436110508F49CCFDF91CF9141
:100F40001F910F91FF90EF90DF90CF90BF90AF90E7
:100F50009F908F9008958EE68093BA0086E79CE07C
:100F600090932D0280932C0282E89CE090932F02B4
:100F700080932E02109201031092000310924B03F3
:100F800010928D030E94121184EB99E09093290234
:100F9000809328028BE699E090932B0280932A029B
:100FA00008950F931F93CF93DF9300D0CDB7DEB793
:100FB0008091E6019091E701892B09F081C160E001
:100FC00087E00E94830DE0919E03F0919F0382E0F1
:100FD0008083E0919A03F0919B031082E0919C033F
:100FE000F0919D0383E380831092A603E091A20316
:100FF000F091A30386E08083E091A003F091A10328
:10100000808180618083E091A003F091A1038081C1
:1010100088608083E091A003F091A10380818068C3
:101020008083E091A003F091A10380818F7D808374
:101030000E94671188E890E00E940E1284E790E019
:101040000E94ED1120913C0430913D04CE010196A7
:101050002115310519F48054944018C0AC01421B8D
:10106000530BE0913E04F0913F0480E090E0309714
:1010700059F09C012E5F3F4F80819181820F931F19
:101080000280F381E02DF3CF840F951F9A8389832B
:1010900089819A810E94D71161E08BE00E94530DF3
:1010A00061E08BE00E94830D61E08CE00E94530DB3
:1010B00061E08CE00E94830D61E08EE00E94530DA0
:1010C00061E08EE00E94830D61E08FE00E94530D8D
:1010D00061E08FE00E94830D61E085E00E94530D86
:1010E00061E085E00E94830D61E086E00E94530D7F
:1010F00061E086E00E94830D61E088E00E94530D6C
:1011000061E088E00E94830D60E08DE00E94530D55
:1011100061E08DE00E94830D8CEE93E00E94011748
:101120008C012EE331E0DC012D933D93CD010E9433
:101130008103F80117821086118682E0828761E0C0
:1011400063871486158616861786118A108A88E2A8
:1011500090E0938B828B158A148A168A178A608F87
:10116000128E118E138E86E391E0958F848F11A2DB
:1011700010A288EE93E0A0E0B0E082A393A3A4A322
:10118000B5A38EE191E0978F868F15AA14AA17AAAE
:1011900016AA11AE10AE13AE12AE84AD8E7F8D7F47
:1011A00084AF86958170682789E00E94530D61E0C5
:1011B00089E00E94830DE6E4F4E0E491D8019E9674
:1011C000EC93E2E3F4E0E491F0E0EE0FFF1FEB5864
:1011D000FD4F85919491F80190AB87A760E08AE07C
:1011E0000E94830DD801DC968C9181FD04C061E0E2
:1011F0008AE00E94530D8AE0F80182A7E7E4F4E058
:10120000E491D8019B96EC93E3E3F4E0E491F0E001
:10121000EE0FFF1FE15EFB4F85919491F80195A7BA
:1012200084A716AE15AEED55FF4F108231968FEFA5
:101230008083319611821082349611821082329608
:10124000118210823296118210823296118210829F
:10125000329611821082329611821082329610825A
:1012600011821282138234961182108232968EE29B
:1012700091E09183808312821382148215821682F8
:101280001782108611861286148613861686158696
:101290001786108A118A138A158A148A178A168A61
:1012A000118E108E128E138E148E158E178E168E32
:1012B00011A210A213A212A21093E7010093E6015B
:1012C0008091E6019091E7010F900F90DF91CF910F
:1012D0001F910F9108950F931F93CF93DF93CDB775
:1012E000DEB7A0970FB6F894DEBF0FBECDBF0E9449
:1012F000D107FC0186899789891309C0FE013196BF
:1013000080E2DF011D928A95E9F78F0110C091E01C
:10131000980F983110F4968B01C0168AB0E28B9F1B
:10132000E00DF11D11248F0104511F4F39F384EF9B
:1013300090E00E94ED11F8016081718182819381BA
:101340000E941A1240E250E0B8018BE294E00E9441
:101350007002A0960FB6F894DEBF0FBECDBFDF912E
:10136000CF911F910F9108959F92AF92BF92CF920C
:10137000DF92EF92FF920F931F93CF93DF9300D0F2
:1013800000D000D0CDB7DEB78C0187EE90E00E9490
:10139000ED11C8010E94D7119E012F5F3F4F5901E7
:1013A0007E0135E0E30EF11C86E8C82E81E0D82EE0
:1013B0009091000380910103981709F4DDC08BE23E
:1013C00094E00E94B60C982E0E94D1078C01FC017B
:1013D00091859D3008F0CDC081E0890F8187E90FAC
:1013E000F11DE152FF4F90829110E2CFBF92AF9278
:1013F000FF92EF92DF92CF92C80181529F4F9F934D
:101400008F930E94E71A0FB6F894DEBF0FBECDBFD0
:10141000029709F0AEC08D819E818130910509F45B
:101420008DC0E0F08230910509F492C0039709F075
:10143000A0C089819A81AB81BC81F801848795879E
:10144000A687B78789E990E00E94ED11F8016485CD
:101450007585868597850E941A128BC089819A812D
:10146000F801958B848B86ED90E00E94ED1160E190
:1014700070E0F801848995890E942712F801848917
:1014800080FF02C060E001C061E08BE00E94530D6C
:10149000F801848981FF02C060E001C061E08CE056
:1014A0000E94530DF801848982FF02C060E001C0F0
:1014B00061E08EE00E94530DF801848983FF02C031
:1014C00060E001C061E08FE00E94530DF801848963
:1014D00084FF02C060E001C061E085E00E94530D1E
:1014E000F801848985FF02C060E001C061E086E008
:1014F0000E94530DF801848986FF02C060E001C09C
:1015000061E088E00E94530DF801248935898091BB
:10151000370430FF0AC0811104C061E084E00E94FA
:10152000530D81E08093390424C0811104C060E030
:1015300084E00E94530D109239041BC08981F80188
:10154000828782EC90E00E94ED11F801628509C06B
:101550008981F80183878EEA90E00E94ED11F801FD
:10156000638570E080E090E04AE00E946D110E9487
:101570006711F80111861CCF26960FB6F894DEBFCE
:101580000FBECDBFDF91CF911F910F91FF90EF90D4
:10159000DF90CF90BF90AF909F900895CF930E941F
:1015A000D107C1E0FC01C7830E94D107FC01C087BD
:1015B0000E94D107FC01138ECF910895FC01918DFB
:1015C000828D981761F0828DDF01A80FB11D5D96A5
:1015D0008C91928D9F5F9F73928F90E008958FEF13
:1015E0009FEF0895FC01918D828D981731F0828DC7
:1015F000E80FF11D858D90E008958FEF9FEF08951E
:10160000FC01918D228D892F90E0805C9F4F821B81
:1016100091098F7399270895FC01848DDF01A80F2C
:10162000B11DA35ABF4F2C91848D90E001968F730A
:101630009927848FA689B7892C93A089B1898C9129
:1016400080648C93938D848D981306C00288F389EF
:10165000E02D80818F7D80830895EF92FF920F931C
:101660001F93CF93DF93EC0181E0888F9B8D8C8D4E
:10167000981305C0E889F989808185FD24C0F62E7C
:101680000B8D10E00F5F1F4F0F731127E02E8C8D15
:10169000E8120CC00FB607FCFACFE889F9898081FF
:1016A00085FFF5CFCE010E940C0BF1CF8B8DFE0193
:1016B000E80FF11DE35AFF4FF0820B8FEA89FB8997
:1016C0008081806207C0EE89FF896083E889F9899B
:1016D00080818064808381E090E0DF91CF911F91D1
:1016E0000F91FF90EF900895CF93DF93EC01888DD9
:1016F0008823C9F0EA89FB89808185FD05C0A88916
:10170000B9898C9186FD0FC00FB607FCF5CF80819B
:1017100085FFF2CFA889B9898C9185FFEDCFCE01E5
:101720000E940C0BE7CFDF91CF91089580E090E00D
:10173000892B29F00E945B1181110C9400000895FF
:101740003FB7F8948091FC029091FD02A091FE02B7
:10175000B091FF0226B5A89B05C02F3F19F0019656
:10176000A11DB11D3FBFBA2FA92F982F8827820F27
:10177000911DA11DB11DBC01CD0143E0660F771F76
:10178000881F991F4A95D1F7089508952091F50271
:101790003091F6022817390771F49091F402809184
:1017A000F302981741F0E091F402F0E0ED54FD4FA0
:1017B000808190E008958FEF9FEF089508951F9323
:1017C000CF93DF93DC015C962D913C915D972115C1
:1017D000310539F481E090E013969C938E93129733
:1017E0003DC05196ED91FC91529750969C91509727
:1017F000892F80951FB75E964C915E9741FB7727A6
:1018000070F941FD6095F8944081772311F0492BE0
:1018100001C048234083E9012197F1F748E0508156
:1018200060FF02C0592B01C058235083E901219762
:10183000F1F76695415099F7772321F0908189233C
:10184000808303C08081982B90831FBF5C968D910D
:101850009C915D970197F1F721E030E0C901DF919C
:10186000CF911F9108952091F5023091F60228172B
:10187000390771F48091F3022091F40290E0805CCA
:101880009F4F821B910960E470E00E949F1A0895A7
:1018900080E090E008952091F5023091F60228173B
:1018A0003907B9F49091F4028091F302981789F006
:1018B000E091F402F0E0ED54FD4F80812091F402BC
:1018C00030E02F5F3F4F2F7333272093F40290E0D7
:1018D00008958FEF9FEF089585ED8093BC00809170
:1018E000BC0084FDFCCF109249030895E0912A02C8
:1018F000F0912B02309729F010924B0310928D0338
:1019000009940895AC01E0912802F09129023097E2
:10191000E1F090910103809100039817B0F090E0FE
:10192000292F30E02617370754F4DA01A20FB31F2E
:101930008C91D901A851BE4F8C939F5FF1CF10922B
:10194000010360930003CB01099408950895E09189
:10195000010380910003E81730F4F0E0E851FE4FF6
:10196000808190E008958FEF9FEF0895909101039B
:1019700080910003981750F4E92FF0E0E851FE4FF2
:10198000208130E09F5F9093010302C02FEF3FEF73
:10199000C90108958091000390E020910103821B0A
:1019A000910908951F920F920FB60F9211242F9351
:1019B0003F934F935F936F937F938F939F93AF93D7
:1019C000BF93EF93FF938EE893E00E940C0BFF917F
:1019D000EF91BF91AF919F918F917F916F915F91A7
:1019E0004F913F912F910F900FBE0F901F90189520
:1019F0001F920F920FB60F9211242F938F939F93E4
:101A0000EF93FF93E0919E03F0919F038081E0911B
:101A1000A403F091A50382FD12C090818091A703D9
:101A20008F5F8F732091A803821751F0E091A70375
:101A3000F0E0E257FC4F958F8093A70301C08081AF
:101A4000FF91EF919F918F912F910F900FBE0F906B
:101A50001F901895833081F028F4813099F08230FE
:101A6000A1F008958730A9F08830B9F08430D1F41E
:101A7000809180008F7D03C0809180008F7780935C
:101A80008000089584B58F7702C084B58F7D84BDB2
:101A900008958091B0008F7703C08091B0008F7D52
:101AA0008093B00008951F93CF93DF93282F30E0E9
:101AB000F901EF5AFB4F8491F901E35CFB4FD4919C
:101AC000F901E75DFB4FC491CC23C9F0162F8111BA
:101AD0000E942A0DEC2FF0E0EE0FFF1FEB58FD4F98
:101AE000A591B4918FB7F894111105C09C91ED2F79
:101AF000E095E92302C0EC91ED2BEC938FBFDF91D1
:101B0000CF911F910895CF93DF9390E0FC01E35CA8
:101B1000FB4F2491FC01E75DFB4F8491882361F129
:101B200090E0880F991FFC01E559FD4FC591D491B4
:101B3000FC01EB58FD4FA591B491611109C09FB70D
:101B4000F8948881209582238883EC912E230BC002
:101B5000623061F49FB7F8943881822F8095832397
:101B60008883EC912E2B2C939FBF06C08FB7F894DF
:101B7000E8812E2B28838FBFDF91CF9108958F921C
:101B80009F92AF92BF92CF92DF92EF92FF926B0142
:101B90007C010E94A00B4B015C01C114D104E10443
:101BA000F104F1F00E94A00BDC01CB018819990926
:101BB000AA09BB09883E9340A105B10570F321E055
:101BC000C21AD108E108F10888EE880E83E0981E59
:101BD000A11CB11CC114D104E104F10419F7DDCF3B
:101BE000FF90EF90DF90CF90BF90AF909F908F903D
:101BF00008952FB7F8946091F8027091F9028091DE
:101C0000FA029091FB022FBF08951F920F920FB618
:101C10000F9211242F933F938F939F93AF93BF9372
:101C20008091F8029091F902A091FA02B091FB0222
:101C30003091F70226E0230F2D3720F40296A11DE4
:101C4000B11D05C029E8230F0396A11DB11D2093E6
:101C5000F7028093F8029093F902A093FA02B093EE
:101C6000FB028091FC029091FD02A091FE02B091D6
:101C7000FF020196A11DB11D8093FC029093FD020D
:101C8000A093FE02B093FF02BF91AF919F918F91FD
:101C90003F912F910F900FBE0F901F9018951F929C
:101CA0000F920FB60F9211242F933F934F935F9390
:101CB0006F937F938F939F93AF93BF93EF93FF9314
:101CC000E0910201F09103010995FF91EF91BF911D
:101CD000AF919F918F917F916F915F914F913F91C4
:101CE0002F910F900FBE0F901F9018951F920F927B
:101CF0000FB60F9211242F933F934F935F936F93DF
:101D00007F938F939F93AF93BF93EF93FF93E09154
:101D10000001F09101010995FF91EF91BF91AF9101
:101D20009F918F917F916F915F914F913F912F91F3
:101D30000F900FBE0F901F9018951F920F920FB625
:101D40000F9211242F933F934F935F936F937F9341
:101D50008F939F93AF93BF93EF93FF93E091F5021F
:101D6000F091F602309709F451C0968DA685B7859B
:101D7000858591FF04C09C91892329F447C09C91DB
:101D8000892309F043C0A389B4899C9185898095F2
:101D900089238C93868997890197F1F7608D718DDE
:101DA000A685B785558538E020E0CB010197F1F78E
:101DB000822F90E095958795282F4C91452309F027
:101DC0002068315091F7868D81FD20958091F30236
:101DD00090E001968F7399273091F402381749F0FB
:101DE000A091F302B0E0AD54BD4F2C938093F30269
:101DF00003C0868D8160868F828D938D0197F1F768
:101E0000A389B4899C918589892B8C93FF91EF914B
:101E1000BF91AF919F918F917F916F915F914F9102
:101E20003F912F910F900FBE0F901F901895E0914A
:101E3000F502F091F602E817F90769F4A389B4896D
:101E40009C918589809589238C931092F60210923B
:101E5000F50281E0089580E00895CF93DF93EC01CF
:101E60008A8D9B8D892BF1F08091F5029091F6027D
:101E70008C179D07B9F0009711F00E94170F8E8DF7
:101E80008E7F8E8F1092F3021092F402D093F6029E
:101E9000C093F502EB89FC8990818D89892B808321
:101EA00081E001C080E0DF91CF9108951F920F92F1
:101EB0000FB60F9211248F9381E0809302030FB627
:101EC000F894A895809160008861809360001092DA
:101ED00060000FBE8F910F900FBE0F901F9018954E
:101EE0004115510529F4EAE7F0E080818F7780837E
:101EF0006A307105A9F063FD02C088E001C088E284
:101F00006770682B88E10FB6F894A89580936000FD
:101F10000FBE60936000E0E6F0E080818064808323
:101F2000232BA1F483B7817F846083BFF89483B7A8
:101F3000816083BF85B7806685BF8F7D85BF7894BC
:101F4000889583B78E7F83BF78940EC083B7817FD7
:101F5000846083BFF89483B7816083BF7894889549
:101F600083B78E7F83BF7894452B29F4EAE7F0E0AE
:101F700080818068808308951F920F920FB60F9220
:101F800011242F933F934F935F936F937F938F937E
:101F90009F93AF93BF93EF93FF938091B900887F96
:101FA000803609F49CC068F5883209F45BC090F46F
:101FB000803109F454C038F4882309F4F6C088301D
:101FC00009F44DC0F6C0883109F44CC0803209F4E0
:101FD0005DC0EFC0803409F468C048F4803309F470
:101FE00055C0883309F0E5C080934703D8C08035D9
:101FF00009F44FC0883509F45DC0883409F0D9C0B0
:10200000D6C0883909F4C7C0A8F4883709F467C076
:1020100038F4883609F463C0803709F460C0C9C059
:10202000883809F4B8C0803909F45FC0803809F0F5
:10203000C0C05BC0803B09F486C038F4803A09F424
:1020400066C0883A09F47FC0B4C0803C09F4A7C0D8
:10205000883C09F4A4C0883B09F48AC0AAC08091D6
:10206000040310C09091460380914503981770F5C2
:10207000E091460381E08E0F80934603F0E0EB5F32
:10208000FC4F80818093BB0085EC86C08093470322
:102090008EC0E091460381E08E0F809346038091CD
:1020A000BB00F0E0EB5FFC4F808390914603809192
:1020B00045036EC0E091460381E08E0F8093460396
:1020C0008091BB00F0E0EB5FFC4F80838091480380
:1020D00081116DC081E08093030384EA61C083E0D5
:1020E000809349031092B202CFCF8091B202803424
:1020F00008F051C0E091B20281E08E0F8093B202ED
:102100008091BB00F0E0EE58FD4F8083BDCF85ECA1
:102110008093BC00109249038091B202803430F465
:10212000E091B202F0E0EE58FD4F10826091B202F1
:1021300070E0E0912E02F0912F0282E792E0099583
:102140001092B20236C084E080934903109271026B
:1021500010927002E0912C02F0912D02099580916D
:102160007002811105C081E08093700210923002EC
:10217000E091710281E08E0F80937102F0E0E05DEA
:10218000FD4F80818093BB0090917102809170021D
:10219000981708F479CF85E88093BC000AC085ECD5
:1021A0008093BC001092490304C0109247030E9420
:1021B0006C0CFF91EF91BF91AF919F918F917F91A7
:1021C0006F915F914F913F912F910F900FBE0F90A4
:1021D0001F90189540917002262F30E0240F311D7A
:1021E00021343105DCF4209149032430C9F4FC0189
:1021F00080E090E0861758F4309170022191DC0164
:10220000A05DBD4FA30FB11D2C930196F3CF80911C
:102210007002680F6093700280E0089581E0089575
:1022200082E008951092490381E080934803109260
:10223000030361E082E10E94530D61E083E10E94AB
:10224000530DE9EBF0E080818E7F808380818D7F6C
:10225000808380E28093B80085E48093BC00089579
:10226000CF92DF92EF92FF920F931F93CF93DF9362
:102270006C017A018B01C0E0D0E0CE15DF0589F05A
:10228000D8016D918D01D601ED91FC910190F08105
:10229000E02DC6010995892B11F47E0102C021961B
:1022A000ECCFC701DF91CF911F910F91FF90EF907D
:1022B000DF90CF9008958EE893E00E94000B21E01C
:1022C000892B09F420E0822F08950E94DB1A6EE822
:1022D00071E08EE893E00C94B7038F929F92AF92D7
:1022E000BF920F931F93CF93DF93CDB7DEB7A19724
:1022F0000FB6F894DEBF0FBECDBF19A2423008F46E
:102300004AE08E010F5D1F4F842E912CA12CB12C21
:10231000A50194010E94B31AE62FB901CA01015028
:102320001109EA3014F4E05D01C0E95CD801EC93D6
:10233000232B242B252B61F7B8018EE893E00E9414
:10234000B703A1960FB6F894DEBF0FBECDBFDF91E5
:10235000CF911F910F91BF90AF909F908F90089554
:10236000CF92DF92EF92FF92CF93DF936B017C01CC
:10237000E0918E03F0918F030190F081E02D6DE2EA
:102380008EE893E00995EC0166277727CB016C195D
:102390007D098E099F094AE00E946D118C0F9D1FD7
:1023A000DF91CF91FF90EF90DF90CF900895CF9382
:1023B000DF93BC01990F880B990B97FF03C00E9414
:1023C000B01103C04AE00E946D11EC010E94671138
:1023D0008C0F9D1FDF91CF9108950F931F93CF9383
:1023E000DF938C01C0E0D0E0F801EC0FFD1F649199
:1023F000662371F0E0918E03F0918F030190F081DC
:10240000E02D8EE893E00995892B11F02196ECCF11
:10241000CE01DF91CF911F910F910895CF93DF935C
:102420000E94ED11EC010E9467118C0F9D1FDF913E
:10243000CF910895CF93DF934AE00E946D11EC0194
:102440000E9467118C0F9D1FDF91CF910895CF934C
:10245000DF93AB01672B61F4E0918E03F0918F0362
:102460000190F081E02D682F8EE893E0099505C07A
:10247000BC0180E090E00E946D11EC010E946711A8
:102480008C0F9D1FDF91CF91089520918D03909126
:102490008C03213408F04AC0809149038111FCCF9C
:1024A00032E03093490331E0309348033FEF3093FB
:1024B00047031092460320934503ACE4B3E045E0A4
:1024C00053E0FA013E2F341B321718F43D9131933B
:1024D000F9CF1092040320910403990F922B90934B
:1024E000040390910303913061F4109203039091DF
:1024F00004039093BB009091BC0093FDF8CF95EC42
:1025000001C095EE9093BC00909149039230E1F3A5
:10251000909147039F3F79F080914703803241F0CB
:1025200080914703803331F084E005C081E003C02F
:1025300082E001C083E010924B0310928D03109251
:102540004A030895CF93DF93E8E5F4E08491E4E44F
:10255000F4E0D491E0E3F4E0C491CC2391F0811154
:102560000E942A0DEC2FF0E0EE0FFF1FE15EFB4F03
:10257000A591B491EC91ED2381E090E021F480E00D
:1025800002C080E090E0DF91CF91089587E48093CE
:102590007C0080917A00806480937A0080917A0038
:1025A00086FDFCCF809178002091790090E0922BFD
:1025B0000895EEE8F3E01382128288EE93E0A0E043
:1025C000B0E084839583A683B78326E431E031832A
:1025D000208325EC30E03587248724EC30E03787F2
:1025E000268720EC30E0318B208B21EC30E0338BE0
:1025F000228B22EC30E0358B248B26EC30E0378BBD
:10260000268B118E128E138E148EEBE2F4E0138261
:10261000128284839583A683B78386E591E09183B4
:10262000808387E394E00C948103CF93DF93CDB74D
:10263000DEB72C970FB6F894DEBF0FBECDBF7894EF
:1026400084B5826084BD84B5816084BD85B58260B7
:1026500085BD85B5816085BD80916E008160809368
:102660006E001092810080918100826080938100D1
:1026700080918100816080938100809180008160E1
:10268000809380008091B10084608093B10080913C
:10269000B00081608093B00080917A008460809364
:1026A0007A0080917A00826080937A0080917A002B
:1026B0008E7F80937A0080917A00806880937A0080
:1026C0001092C1000E94D1079C878B870E94AB07A4
:1026D00089EE93E00E940E1260E47CE980E090E0D5
:1026E0000E94BF0D86EB93E00E940E128B859C85A5
:1026F0000E940D0786E993E00E940E128B859C854F
:102700000E947E060B851C850E5F1F4F10920103F1
:102710001092000310924B0310928D030E9412112D
:1027200062E0C8010E9418038F3F09F461C348E5C5
:1027300060E0C8010E94F9026FE0C8010E9418031E
:10274000482F48636FE0C8010E94F90240E062E050
:10275000C8010E94F90260E0C8010E94180340E02D
:1027600061E0C8010E94F90260E0C8010E941803FC
:10277000482F406860E0C8010E94F9028FE792E0AC
:102780000E940E128EEC9AE090930101809300015A
:10279000809169008C7F826080936900E89AAB85A4
:1027A000BC855896FC9043E060E1C8010E94F902A4
:1027B0004F2D61E1C8010E94F90261E0C8010E9449
:1027C00018038F7B482F426061E0C8010E94F90224
:1027D0006FE0C8010E941803482F42686FE0C801EB
:1027E0000E94F90268EE73E080E090E00E94BF0D65
:1027F000C8010E947303EB85FC851782CF010E94FC
:10280000AB07AB84BC84FCE1AF0EB11C6B847C8451
:102810002EE1620E711C4B845C8435EA430E511C20
:102820002B843C844BEA240E311C8B859C85875578
:102830009F4F9A838983AB85BC85A155BF4FBC83CD
:10284000AB83EB85FC85ED54FF4FFE83ED832B8539
:102850003C8527543F4F38872F838B859C858B542D
:102860009F4F9A878987AB85BC8517968C91179760
:10287000811105C018969C91992309F473C2EB85C8
:10288000FC851086128E118E882351F0C8010E949B
:102890007303AB85BC855B961C925B9717961C9265
:1028A000EB85FC85808DFCE38F9FC0011124AB85F7
:1028B000BC851C964D915D916D917C911F97480F41
:1028C000591F611D711DFD014487558766877787F4
:1028D000808991890196918B808B0E946711AB85CD
:1028E000BC855B968C91882319F082E993E002C045
:1028F0008EE893E00E94ED1181E893E00E94ED11D3
:1029000087E793E00E94ED116AE070E0EB85FC85BB
:10291000808991890E942712AB85BC851B966C919A
:102920001B9770E050968D919C9151970E948B1A45
:10293000892B09F005C281E693E00E940E12EB8517
:10294000FC85C78881E08C0D883110F4878B04C02A
:10295000AB85BC8557961C92EB85FC85878996894B
:10296000891309C08F5F883110F4868B04C0AB8552
:10297000BC8556961C92D12CEB85FC8511AE10AE11
:1029800017AA16AA15AA14AA25E630E033AF22AF7B
:1029900022A5263108F054C081E290E095AB84ABCB
:1029A000A3E6B0E0B7ABA6AB82E490E091AF80AF16
:1029B00030916800283050F091E02E3008F490E01B
:1029C00081E001C0880F9A95EAF701C084E0832B6B
:1029D00080936800EB85FC8522A5283038F02E30E6
:1029E00040F0263148F080E090E008C08DE690E0AD
:1029F00005C08BE690E002C08CE690E0AB85BC851C
:102A0000D2969C938E93D197283030F481E001C008
:102A1000880F2A95EAF70DC0822F90E02E3010F42F
:102A2000089701C00E9791E001C0990F8A95EAF7C7
:102A3000892FEB85FC8583AB82AD93AD0197F1F7D0
:102A4000C3010E942D0FA20161E971E0C5010E943E
:102A50000206760135E0EE0CFF1C3A95E1F7EB85B6
:102A6000FC85EE0DFF1DE450FF4F918380836DE9DF
:102A700071E0C5010E94CC03882339F0E985FA850D
:102A800080819181A281B38103C080E090E0DC016C
:102A90008B849C848E0C9F1CF401E051FF4F80833B
:102AA0009183A283B38360E0C5010E941106F40103
:102AB000EC50FF4F009761F0DC0117964D915D914E
:102AC0006D917C911A97408351836283738304C014
:102AD000108211821282138261E0C5010E941106E8
:102AE000009781F0FC0187819085A185B285EB85F7
:102AF000FC85EE0DFF1DE850FF4F80839183A2837C
:102B0000B3830AC0EB85FC85EE0DFF1DE850FF4F37
:102B10001082118212821382A10169EA71E0C5015B
:102B20000E9402068B849C848E0C9F1CF401E25050
:102B3000FF4F9183808349815A8165EB71E0C50124
:102B40000E94020625E0CC0CDD1C2A95E1F72B85BE
:102B50003C85C20ED31ED394D6018D939C934B819A
:102B60005C8161EC71E0C5010E940206F401EE5F38
:102B7000FE4F918380834D815E816DEC71E0C501D4
:102B80000E940206F401EC5FFE4F918380834F8127
:102B9000588569ED71E0C5010E940206F401E85F05
:102BA000FE4F91838083BCEE8B0E911CEB85FC85E0
:102BB00084859585A685B785F40180839183A2835A
:102BC000B38388EC80937C0080917A008068809346
:102BD0007A0064E170E080E090E00E94BF0D809197
:102BE0007A00806480937A0080917A0086FDFCCF21
:102BF000609178007091790080E090E00E94431924
:102C00002EEA37E242EA53E40E942E1826EF38E219
:102C10004CE95FE30E949B180E943E1A2B853C857D
:102C2000E20EF31E47013AEF831A3EEF930A0E9429
:102C30000D19062E000C770BD4016D937C93C30104
:102C40000E94170F0E94671184E393E00E94ED1128
:102C5000F701E450FF4F6AE070E0808191810E94AB
:102C6000271288E293E00E94ED11F701E051FF4F37
:102C700060817181828193810E941A1289E193E0BF
:102C80000E94ED11F701EC50FF4F6081718182814C
:102C900093810E941A1286E093E00E94ED11F701E1
:102CA000E850FF4F60817181828193810E941A12E6
:102CB00086EF92E00E94ED11F701E250FF4F6AE0CB
:102CC00070E0808191810E94271286EE92E00E943E
:102CD000ED116AE070E0F601808191810E94271277
:102CE00089ED92E00E94ED11F701EE5FFE4F6AE080
:102CF00070E0808191810E9427128BEC92E00E940B
:102D0000ED11F701EC5FFE4F6AE070E08081918188
:102D10000E9427128BEB92E00E94ED11D4018D915D
:102D20009C910E94D7118DEA92E00E94ED11F7016B
:102D3000E85FFE4F6AE070E0808191810E94271277
:102D4000EB85FC85628570E0808991890E948B1AF1
:102D5000892BD1F5CF010E940D078B859C850E94A0
:102D60007E0632C080910203882371F11092020323
:102D7000AB85BC8559968D919C915A9704965A962D
:102D80009C938E9359978C339105F0F05B962C9120
:102D90005B97222311F081E014C0EB85FC85208D28
:102DA000F2E42F9F900111242817390768F486E474
:102DB00093E00E940E1281E0AB85BC855B968C93FC
:102DC0005B9718968C934FCD8EE893E00E94740B1E
:102DD00020E030E040E050E068E070E0C8010E9490
:102DE000700F63E070E080E090E00E94BF0D3BCD8B
:102DF0008BE992E00E940E1281E0EB85FC85838FC7
:102E000000CDCF93DF938230910510F482E090E003
:102E1000E0913E04F0913F0420E030E0C0E0D0E0DB
:102E2000309711F14081518148175907C0F0481778
:102E3000590761F482819381209719F09B838A83DB
:102E40002BC090933F0480933E0426C0211531058A
:102E500019F04217530718F49A01BE01DF01EF0180
:102E60000280F381E02DDCCF2115310509F1281B0B
:102E7000390B2430310590F412968D919C91139763
:102E80006115710521F0FB019383828304C0909347
:102E90003F0480933E04FD01329644C0FD01E20FE1
:102EA000F31F81939193225031092D933C933AC0A3
:102EB00020913C0430913D04232B41F420910601E4
:102EC0003091070130933D0420933C04209104018C
:102ED000309105012115310541F42DB73EB74091E0
:102EE000080150910901241B350BE0913C04F0913D
:102EF0003D04E217F307A0F42E1B3F0B28173907F8
:102F000078F0AC014E5F5F4F2417350748F04E0F45
:102F10005F1F50933D0440933C048193919302C002
:102F2000E0E0F0E0CF01DF91CF9108950F931F9380
:102F3000CF93DF93009709F48CC0FC013297138282
:102F4000128200913E0410913F040115110581F495
:102F500020813181820F931F20913C0430913D04E8
:102F60002817390779F5F0933D04E0933C0471C0CC
:102F7000D80140E050E0AE17BF0750F412962D91F3
:102F80003C911397AD012115310509F1D901F3CF1A
:102F90009D01DA013383228360817181860F971F3F
:102FA0008217930769F4EC0128813981260F371FB6
:102FB0002E5F3F4F318320838A819B81938382835D
:102FC000452B29F4F0933F04E0933E0442C013964E
:102FD000FC93EE931297ED01499159919E01240FB4
:102FE000351FE217F30771F480819181840F951FDB
:102FF000029611969C938E938281938113969C9353
:103000008E931297E0E0F0E0D80112968D919C919A
:103010001397009719F0F8018C01F6CF8D919C91D0
:1030200098012E5F3F4F820F931F20913C043091F7
:103030003D042817390769F4309729F410923F04AA
:1030400010923E0402C01382128210933D0400933A
:103050003C04DF91CF911F910F9108955058BB27E9
:10306000AA270E9446180C9497190E94891938F0D3
:103070000E94901920F039F49F3F19F426F40C9423
:1030800086190EF4E095E7FB0C948019E92F0E9455
:10309000A81958F3BA17620773078407950720F039
:1030A00079F4A6F50C94CA190EF4E0950B2EBA2FFC
:1030B000A02D0B01B90190010C01CA01A00111243E
:1030C000FF27591B99F0593F50F4503E68F11A16EA
:1030D000F040A22F232F342F4427585FF3CF46957B
:1030E00037952795A795F0405395C9F77EF41F169D
:1030F000BA0B620B730B840BBAF09150A1F0FF0F67
:10310000BB1F661F771F881FC2F70EC0BA0F621F52
:10311000731F841F48F4879577956795B795F79542
:103120009E3F08F0B0CF9395880F08F09927EE0FD7
:103130009795879508950E94AF180C9497190E944F
:10314000901958F00E94891940F029F45F3F29F046
:103150000C94801951110C94CB190C9486190E946F
:10316000A81968F39923B1F3552391F3951B550BD7
:10317000BB27AA2762177307840738F09F5F5F4F4A
:10318000220F331F441FAA1FA9F335D00E2E3AF089
:10319000E0E832D091505040E695001CCAF72BD0A1
:1031A000FE2F29D0660F771F881FBB1F26173707F2
:1031B0004807AB07B0E809F0BB0B802DBF01FF2724
:1031C00093585F4F3AF09E3F510578F00C94801968
:1031D0000C94CB195F3FE4F3983ED4F38695779532
:1031E0006795B795F7959F5FC9F7880F911D9695DD
:1031F000879597F90895E1E0660F771F881FBB1F39
:10320000621773078407BA0720F0621B730B840BE5
:10321000BA0BEE1F88F7E09508950E941419689480
:10322000B1110C94CB1908950E94B01988F09F57E2
:1032300098F0B92F9927B751B0F0E1F0660F771FDA
:10324000881F991F1AF0BA95C9F714C0B13091F0D0
:103250000E94CA19B1E008950C94CA19672F782FFB
:103260008827B85F39F0B93FCCF386957795679595
:10327000B395D9F73EF490958095709561957F4F01
:103280008F4F9F4F0895E89409C097FB3EF49095A7
:103290008095709561957F4F8F4F9F4F9923A9F02F
:1032A000F92F96E9BB279395F695879577956795BE
:1032B000B795F111F8CFFAF4BB0F11F460FF1BC002
:1032C0006F5F7F4F8F4F9F4F16C0882311F096E995
:1032D00011C0772321F09EE8872F762F05C0662343
:1032E00071F096E8862F70E060E02AF09A95660FFC
:1032F000771F881FDAF7880F9695879597F90895B5
:1033000097F99F6780E870E060E008959FEF80EC98
:10331000089500240A94161617061806090608953B
:1033200000240A9412161306140605060895092EA1
:103330000394000C11F4882352F0BB0F40F4BF2B10
:1033400011F460FF04C06F5F7F4F8F4F9F4F089550
:1033500057FD9058440F551F59F05F3F71F0479546
:10336000880F97FB991F61F09F3F79F0879508952B
:10337000121613061406551FF2CF4695F1DF08C04A
:10338000161617061806991FF1CF86957105610567
:1033900008940895E894BB2766277727CB0197F90F
:1033A00008950E94E4190C9497190E94891938F025
:1033B0000E94901920F0952311F00C9480190C9420
:1033C000861911240C94CB190E94A81970F3959FAB
:1033D000C1F3950F50E0551F629FF001729FBB270C
:1033E000F00DB11D639FAA27F00DB11DAA1F649FA8
:1033F0006627B00DA11D661F829F2227B00DA11D5B
:10340000621F739FB00DA11D621F839FA00D611DE0
:10341000221F749F3327A00D611D231F849F600D01
:10342000211D822F762F6A2F11249F5750409AF02A
:10343000F1F088234AF0EE0FFF1FBB1F661F771FB6
:10344000881F91505040A9F79E3F510580F00C9481
:1034500080190C94CB195F3FE4F3983ED4F3869522
:1034600077956795B795F795E7959F5FC1F7FE2B21
:10347000880F911D9695879597F908950E94B01928
:10348000E8F09E37E8F09639B8F49E3848F4672F94
:10349000782F8827985FF9CF8695779567959395CC
:1034A0009539D0F3B62FB1706B0F711D811D20F4CB
:1034B00087957795679593950C94621A0C947D1A6D
:1034C0000C94CB19882371F4772321F09850872B23
:1034D000762F07C0662311F499270DC09051862BD3
:1034E00070E060E02AF09A95660F771F881FDAF780
:1034F000880F9695879597F908959F3F31F09150E1
:1035000020F4879577956795B795880F911D9695C7
:10351000879597F90895AA1BBB1B51E107C0AA1F05
:10352000BB1FA617B70710F0A61BB70B881F991F64
:103530005A95A9F780959095BC01CD01089597FB08
:10354000072E16F4009407D077FD09D00E948B1A3D
:1035500007FC05D03EF4909581959F4F0895709596
:1035600061957F4F0895A1E21A2EAA1BBB1BFD0196
:103570000DC0AA1FBB1FEE1FFF1FA217B307E40752
:10358000F50720F0A21BB30BE40BF50B661F771FAA
:10359000881F991F1A9469F760957095809590958A
:1035A0009B01AC01BD01CF010895EE0FFF1F0590F7
:1035B000F491E02D099481E090E0F8940C94531E6E
:1035C000FB01DC0101900D920020E1F70895AEE0CF
:1035D000B0E0EDEEFAE10C942C1E85E08C838B8933
:1035E0009C899A838983AE01495E5F4F6D897E898C
:1035F000CE0101960E94801C2E96E2E00C94481E9B
:1036000020FD09C0FC0123FD05C022FF02C0738319
:10361000628351834083089544FD10C046FD10C06D
:10362000DB01FC01AA0FBB1FEE1FFF1F1094D1F797
:103630006A0F7B1F8E1F9F1F31E003C033E001C064
:1036400034E0660F771F881F991F3150D1F7620F42
:10365000711D811D911D08950F931F93CF93DF93CB
:103660008C01C8010E94C21DEC0197FD08C00E9498
:10367000AE1D892BB1F7B801CE010E94001ECE010C
:10368000DF91CF911F910F910895A1E0B0E0EBE49D
:10369000FBE10C94221E8C01C62E7A0129830E9424
:1036A000C21DAC01552729814B32510521F04D3205
:1036B000510569F42068CA94C11002C080E076C048
:1036C000C80129830E94C21D298197FDF7CF322F9F
:1036D0003D7FD32E322F307349F5803339F5BB242B
:1036E000BA94BC0C09F44EC0C80129830E94C21DC3
:1036F000298197FD47C0382F3F7D383569F48D2DDE
:103700008264D82ECA94CA94CC20E1F1C8010E94E8
:10371000C21D97FF0BC036C026FF04C02D2D2260AE
:10372000D22E03C03D2D3261D32ECB2C812C912C77
:10373000540120ED280F283080F0D4FE04C0B801D9
:103740000E94001E1CC02A3040F0D6FEF8CF2F7D0C
:103750003FEE320F363098F727504D2DC501B4019A
:103760000E940C1B4B015C018D2D8260D82ECA94E7
:10377000CC2059F0C8010E94C21D97FFDACFD1FCBE
:1037800004C09CCF812C912C5401D7FE08C0B0946A
:10379000A09490948094811C911CA11CB11C2D2D8F
:1037A000B501A401C7010E94001B81E02196ECE055
:1037B0000C943E1EA1E2B0E0E0EEFBE10C94201E72
:1037C0005C017A01CE0101966C0180E2F601119252
:1037D0008A95E9F7F501838040E050E0912C712C47
:1037E00070E0A1E0B0E0F90183FC859183FE819156
:1037F0008F01982F9F01811103C080E090E07CC071
:103800008E3519F44115510549F1E72FF0E0E41721
:10381000F5073CF48D3559F18D3219F4772001F11B
:1038200003C0711001C0982E892F869586958695C4
:103830008601080F111D892F87703D0101C0660C9C
:103840008A95EAF7F801808186298083991559F0D5
:10385000991510F49F5FE8CF9150E6CF71E004C056
:103860007724739401C0712C4F5F5F4FBCCF7720DA
:1038700019F08E8180628E83711103C09924939414
:1038800016C0F6019E012F5D3F4F80818095819388
:10389000E217F307D1F7F2CFE114F10429F0F701B1
:1038A0008083C70101967C016150912CF9F0C5011C
:1038B00069A30E94C21D69A197FD16C0282F2695F5
:1038C00026952695F601E20FF11D208130E0AC012E
:1038D0004770552702C0359527954A95E2F720FD98
:1038E000DBCFB5010E94001E911087CFE114F104D7
:1038F00011F0F7011082C801A196EEE00C943C1E75
:103900004F925F927F928F929F92AF92BF92CF928F
:10391000DF92EF92FF920F931F93CF93DF931F924B
:10392000CDB7DEB76C012B015A01FC01178216825C
:10393000712CF601F380F201F3FC8591F3FE819185
:10394000382F2F01882309F4F3C090E039830E94B7
:10395000AE1D3981892B21F0C6010E942C1BE9CFB5
:10396000353241F4F201F3FC3591F3FE31912F0130
:10397000353269F4C60139830E94C21D398197FD31
:10398000D5C03817B1F2B6010E94001ED1C03A323C
:1039900039F4F3FC3591F3FE31912F0151E001C070
:1039A00050E0420110E020ED230F2A3090F45260E5
:1039B000612F70E080E090E040E259830E940C1B90
:1039C000162FF401F3FC3591F3FE31914F0159812B
:1039D000EACF052F232F240151FF03C0111102C08C
:1039E000A7C01FEF383619F03C3659F011C0F4016A
:1039F000F3FC2591F3FE21912F01283649F4052F80
:103A000008600460F201F3FC2591F3FE21912F017F
:103A1000222309F48DC0622F70E088E690E02983AC
:103A20000E94B71D2981892B09F482C000FD07C0BF
:103A3000F501E080F180C50102965C0102C0E12C35
:103A4000F12C2E3651F4F6014681578160E070E08A
:103A5000202FC7010E94001B6CCF233691F401FF79
:103A600011E0C6010E94C21D97FD60C0E114F1047F
:103A700029F0F7018083C70101967C01115089F775
:103A800051C02B3559F49201A701612FC6010E9444
:103A9000DA1B2C01892B09F045C03FC0C6012983E0
:103AA0000E942C1B298197FD41C02F3659F128F423
:103AB000243631F1293649F127C0233769F02537FB
:103AC000F9F022C0E114F10429F0F7018082C70166
:103AD00001967C01115071F0C6010E94C21D4C017B
:103AE00097FD08C00E94AE1D892B61F3B601C40189
:103AF0000E94001EE114F104A9F0F701108212C027
:103B0000006203C0006101C00064202FA701612F83
:103B1000C6010E94451B811105C0F6018381807397
:103B200029F406C000FD05CF739403CF772019F068
:103B3000872D90E002C08FEF9FEF0F90DF91CF9124
:103B40001F910F91FF90EF90DF90CF90BF90AF90BB
:103B50009F908F907F905F904F90089591110C945B
:103B6000191E803219F089508550C8F70895FC015C
:103B70000590061621F00020D9F7C001089531976D
:103B8000CF010895CF93DF93EC012B8120FF33C049
:103B900026FF0AC02F7B2B838E819F8101969F83F6
:103BA0008E838A8190E029C022FF0FC0E881F981CD
:103BB0008081082E000C990B009719F420622B834A
:103BC0001AC03196F983E8830EC0EA85FB85099512
:103BD00097FF09C02B81019611F080E201C080E1BE
:103BE000822B8B8308C02E813F812F5F3F4F3F8305
:103BF0002E83992702C08FEF9FEFDF91CF91089519
:103C0000FB01238120FF12C026FD10C08F3F3FEF34
:103C1000930761F082832F7D20642383268137817F
:103C20002150310937832683992708958FEF9FEF1D
:103C300008959927882708952F923F924F925F9277
:103C40006F927F928F929F92AF92BF92CF92DF92AC
:103C5000EF92FF920F931F93CF93DF93CDB7DEB711
:103C6000CA1BDB0B0FB6F894DEBF0FBECDBF0994A5
:103C70002A88398848885F846E847D848C849B84FC
:103C8000AA84B984C884DF80EE80FD800C811B810A
:103C9000AA81B981CE0FD11D0FB6F894DEBF0FBE39
:0A3CA000CDBFED010895F894FFCFA9
:103CAA00C50BC50B00004004800030313233343577
:103CBA003637383941424344454600000000DF0B9D
:103CCA003011330C4B0CC60BDE0B000000006F02E8
:103CDA00CF0200000000D102EF0200000000DD0266
:103CEA00E502000000002D0B3011000BDE0AF20A7B
:103CFA00740B00000000A0027002CA0CB60CA70CDC
:103D0A00A60C0000000065113011651165116511DE
:103D1A00651100000000651130113A373530313035
:103D2A00303045450A002425782C256C78000D0A88
:103D3A00003A3744334544303038450A003A37426E
:103D4A00434544303041350A003A3744354544301A
:103D5A003038430A003A3744374544303038410A4C
:103D6A00003A3741444544303042340A003A374237
:103D7A00424544303041360A003A37303130323029
:063D8A003034420A000083
:00000001FF
