:100000000C9484020C9430150C945D150C944E13D2
:100010000C9472130C9496130C9425110C94AC024E
:100020000C94AC020C94AC020C94AC020C94AC0298
:100030000C94AC020C94AC020C94AC020C94AC0288
:100040000C94A7150C94AC020C940C190C944F1939
:100050000C94AC020C94AC020C94AC020C94AC0268
:100060000C94AB0F0C94AC02556E6578706563749C
:100070006564205365742F47657420666C616773EF
:10008000004753465F504152414D455445525F45EC
:1000900052524F52004753465F4E4F545F53555094
:1000A000504F52544544004753465F554E4B4E4FB8
:1000B000574E5F4944004661696C65642E2E2E00E0
:1000C00044657669636520737461746520006370AC
:1000D0007554656D7065726174757265200070612C
:1000E0006E656C566F6C7461676520006C6F61643F
:1000F00043757272656E7420006368617267657221
:1001000043757272656E7420006368617267657210
:10011000566F6C746167652000636F6E73756D65F3
:10012000645965737465726461792000636F6E73DE
:10013000756D6564546F646179200070616E656CE3
:10014000506F7765722000656E65726779596965D1
:100150006C64546F64617920005441475F53504987
:100160005F53595354454D5F54494D452000544108
:10017000475F5350495F534C4545505F54494D4587
:1001800020005441475F5250495F534C4545505FF2
:1001900054494D4520005441475F5044555F434FFB
:1001A0004E54524F4C2000506F77657220646F7729
:1001B0006E2052506900525069206469646E277441
:1001C00020706F77657220646F776E2120466F72A2
:1001D000636520706F77657220646F776E2E006D97
:1001E00041005250692063757272656E743A200046
:1001F000206D410057616974696E6720666F7220D7
:1002000052506920746F2073687574646F776E2024
:100210006174205250692063757272656E74207427
:1002200068726573686F6C6420005250692064695D
:10023000646E277420706F7765722075702120437B
:1002400079636C652052506920706F776572206108
:100250006E642074727920616761696E2E006D4151
:10026000005250692063757272656E743A200020E6
:100270006D410057616974696E6720666F72205224
:10028000506920746F20706F7765722075702061DF
:1002900074205250692063757272656E74207468A0
:1002A000726573686F6C642000506F77657220759B
:1002B0007020525069006932635472616E736D69C7
:1002C000747465722000693263526563656976658E
:1002D0007220005365742052544320616C61726D2A
:1002E00020696E206F6E65206D696E757465007291
:1002F0007463496E69742829206661696C6564219C
:1003000000525443206469646E27742066697265E4
:1003100020696E7465727275707421005265616433
:10032000696E6720736F6C617220636861726765C4
:10033000720055702074696D653A200020696E74F2
:100340006572727570742E200052544300574454E5
:10035000005761697420666F722052506920746F73
:100360002066696E6973682069747320776F726B99
:1003700000506F7765722075702052506920746F3D
:10038000206765742074686520636F6E66696775A1
:10039000726174696F6E2066726F6D20746865207B
:1003A0007765620057616974203430207365636F2C
:1003B0006E647320666F722074686520726F757446
:1003C000657220746F20626F6F7420757020616E8B
:1003D0006420636F6E6E6563740046726565206DA0
:1003E000656D6F72792062797465733A20004D6192
:1003F000696E5461736B207374617274656400007C
:10040000C20100010005000500030000E100000139
:10041000000F000F000D0000960000020019001AE6
:10042000001700127A00000700200021001D008044
:100430007000000B00230023002000004B0000147C
:1004400000350037003400403800001E004B004BE0
:10045000004800802500003200720072007000C069
:100460001200006E00E900E900E60060090000E506
:1004700000D801D801D501B0040000D301B403B401
:1004800003B10358020000B4036707670762072C33
:100490000100006707DD0EDD0EDA0E000000070028
:1004A000020100000304060000000000000000013B
:1004B00002040810204080010204081020010204F8
:1004C00008102004040404040404040202020202CA
:1004D0000203030303030300000000230026002996
:1004E0000000000000250028002B00000000002470
:1004F0000027002A006364696E6F70737578585B1B
:100500000000BB0EDB11051A11241FBECFEFD8E08F
:10051000DEBFCDBF11E0A0E0B1E0E6E0F4E402C050
:1005200005900D92A03EB107D9F723E0A0EEB1E00F
:1005300001C01D92AB3EB207E1F715E0C8E0D5E07F
:1005400004C02297FE010E94841EC230D107C9F761
:100550000E9469180C9401220C94000008950E94D6
:100560004C060C94480BE091E903F091EA0380E01B
:1005700090E0309749F0029620813181820F931FDD
:100580000280F381E02DF5CF08950F931F93CF9351
:10059000DF9300D0CDB7DEB78091E7039091E803F9
:1005A0008E010F5F1F4F009729F40B5E13401A83D3
:1005B00009830AC0081B190B1A8309830E94B3021E
:1005C000800F911F9A83898389819A810F900F9060
:1005D000DF91CF911F910F910895615070F0DC0170
:1005E000ED91FC9111979F012F5F3F4F2D933C930D
:1005F0002081FA012193AF01F0CF08950F931F934B
:10060000CF93DF9300D0CDB7DEB79C012C5D3F4F79
:100610003A8329838C0104561F4FA8014E5F5F4F18
:1006200061E0CE0101960E94ED02A8014D5F5F4F8F
:1006300064E0CE0101960E94ED02A801495F5F4F80
:1006400064E0CE0101960E94ED02A801455F5F4F74
:1006500062E0CE0101960E94ED02A801435F5F4F68
:1006600062E0CE0101960E94ED02A801415F5F4F5A
:1006700061E0CE0101960E94ED02A801405F5F4F4C
:1006800061E0CE0101960E94ED02A8014F5E5F4F2E
:1006900061E0CE0101960E94ED02A8014E5E5F4F1F
:1006A00061E0CE0101960E94ED02A8014D5E5F4F10
:1006B00061E0CE0101960E94ED02A8014C5E5F4F01
:1006C00062E0CE0101960E94ED02A8014A5E5F4FF2
:1006D00062E0CE0101960E94ED02A801485E5F4FE4
:1006E00062E0CE0101960E94ED02A801465E5F4FD6
:1006F00064E0CE0101960E94ED02A801425E5F4FC8
:1007000062E0CE0101960E94ED02A801405E5F4FBB
:1007100062E0CE0101960E94ED02A8014E5D5F4F9E
:1007200062E0CE0101960E94ED0281E00F900F90F1
:10073000DF91CF911F910F910895623039F06330AE
:1007400041F0613049F467EA70E008C065E970E0A3
:1007500005C061E870E002C068E670E08DE393E0F8
:100760000C94D91AFC0120A1273009F080C063A1A4
:10077000662319F00E949D037AC0FC0121A130E09C
:10078000322F222742A1242BEC57FF4F203169F44E
:10079000432F5527405551094F31510530F44081C1
:1007A000473219F40E94FE0260C0A081A25040E0CE
:1007B00050E0BA01A43058F0762F652F542F44270B
:1007C000FC01EA0FF11DE0A14E2BA150F3CF2D3E0D
:1007D000FDEB3F0709F440C0E0F42D3EFDEA3F0782
:1007E000B9F140F42230314009F041C0FC01E65635
:1007F000FF4F39C02D3EEBEB3E0791F12D3E3C4BB8
:10080000B1F5FC01EA56FF4F408351836283738345
:100810002CC02D3EE5ED3E07B9F038F42D3E334DAA
:1008200031F5FC01EA57FF4F1EC02D3EF7ED3F07A3
:1008300039F02D3E3B4DD9F4FC01E257FF4F13C078
:10084000FC01E657FF4F0FC0FC01E457FF4F0BC000
:10085000FC01E057FF4F07C0FC01EE56FF4F03C0FD
:10086000FC01EC56FF4F5183408381E0089580E006
:100870000895FC01EC57FF4F508120E030E040E04C
:10088000251740F4FC01E20FF31F60A1460F2F5F14
:100890003F4FF6CF81E0453509F080E0089580EDC7
:1008A000860F8A3040F08FEB860F863018F489EC83
:1008B000860F08958FEF0895FF920F931F93CF93A4
:1008C000DF93EC018E8D9F8D81309105B1F08230E8
:1008D000910549F1892B09F056C06A3309F055C0DA
:1008E00081E090E09F8F8E8FFE01EC57FF4F1082CA
:1008F000CB57DF4F8FEF888348C0CE010E944F0453
:100900008F3F09F440C0FE01EC57FF4F908121E07A
:10091000290F2083FE01E90FF11D80A382E090E002
:100920009F8F8E8F32C08E010C571F4FD801FC90C5
:10093000B3E6BF1540F1CE016A3061F40E9439047C
:10094000882321F0CE010E94B20301C080E01F8EF7
:100950001E8E1CC00E944F048F3FA9F0FE01EB5772
:10096000FF4F20812F3F69F091E09F0DD8019C93AC
:10097000CF0DD11DB0E12B9F90011124282B28A36E
:100980008FEF808302C01F8E1E8E80E0DF91CF919B
:100990001F910F91FF900895BF92CF92DF92EF9237
:1009A000FF920F931F93CF93DF938C01EC0122965C
:1009B000CE010E943212CE010E9454120E94F11503
:1009C0006B017C010E94F1156C197D098E099F094C
:1009D000B12C643671058105910598F4CE010E9411
:1009E0001A12892B29F0CE010E94DF1197FF03C054
:1009F000B11007C0E7CF682FC8010E945C04B82E71
:100A0000EDCF8DE393E00E94C3188B2DDF91CF9142
:100A10001F910F91FF90EF90DF90CF90BF900895BE
:100A2000DF92EF92FF920F931F93CF93DF938C018E
:100A3000EB0183E0D82E780182E0E80EF11C2097CC
:100A4000A1F0DE010D900020E9F7AD014150510900
:100A50004C1B5D0BD8011296ED91FC91139702800F
:100A6000F381E02DBE01C7010995C8010E94CC04A5
:100A700081110AC0DA9419F766EB70E08DE393E018
:100A80000E94D91A80E001C081E0DF91CF911F91CF
:100A90000F91FF90EF90DF900895CF93DF93EA01DD
:100AA0000E941005882319F08881998102C08FEF78
:100AB0009FEFDF91CF910895AC0144575F4F67E1FD
:100AC00071E00C944D05AC0146575F4F63E271E055
:100AD0000C944D05AC014A575F4F6FE271E00C94E6
:100AE0004D05AC0140575F4F6BE371E00C944D0531
:100AF000AC014C565F4F67E471E00C944D05AC01BE
:100B000046565F4F6FE571E00C944D05CF93DF9330
:100B1000EA010E941005882329F0688179818A8181
:100B20009B8104C06FEF7FEF80E090E0DF91CF9179
:100B30000895AC014A565F4F67E771E00C94860553
:100B4000CF93DF93EC010E941005882321F0CE01A2
:100B500084569F4F02C080E090E0DF91CF910895CE
:100B60000F931F93CF93DF93CDB7DEB7A8970FB640
:100B7000F894DEBF0FBECDBF8C0180E1E7E0F1E06D
:100B8000DE01119601900D928A95E1F78CE0E3E881
:100B9000F1E0DE015D9601900D928A95E1F780E526
:100BA000860FE82FF0E094E0F595E7959A95E1F748
:100BB00021E030E02C0F3D1FE20FF31F90819F8F4B
:100BC0008F70F901E80FF11D808188A38EEE861BDE
:100BD000E82FF0E024E0F595E7952A95E1F721E08C
:100BE00030E02C0F3D1FE20FF31F90819DA38F700B
:100BF000F901E80FF11D80818EA3BE01635E7F4F76
:100C0000CE0141960E94901EBE016F5E7F4FC801CB
:100C10000E94A005A8960FB6F894DEBF0FBECDBF08
:100C2000DF91CF911F910F9108952BE931E0FC01E5
:100C30003183208308952BE931E0FC013183208347
:100C40000C94781823EA31E0FC0131832083E456C8
:100C5000FF4F2BE931E03183208302960C94091574
:100C6000CF93DF93EC010E942206CE01DF91CF915A
:100C70000C9478182BEA31E0FC01318320834C96E8
:100C80000C942206CF93DF93EC010E943A06CE012A
:100C9000DF91CF910C947818CF93DF938091E0018E
:100CA0009091E101892B09F0ECC060E087E00E949F
:100CB000AA1640E05BE460E070E08DE393E00E9400
:100CC0008A198DE393E00E94C51A6EEE73E08DE3FE
:100CD00093E00E94D91A6AED73E08DE393E00E94DD
:100CE000991A0E94C5024AE050E0BC018DE393E0EE
:100CF0000E94961B61E08BE00E94E31661E08BE0AE
:100D00000E94AA1661E08CE00E94E31661E08CE08C
:100D10000E94AA1661E08EE00E94E31661E08EE078
:100D20000E94AA1661E08FE00E94E31661E08FE066
:100D30000E94AA1661E085E00E94E31661E085E06A
:100D40000E94AA1661E086E00E94E31661E086E058
:100D50000E94AA1661E088E00E94E31661E088E044
:100D60000E94AA1660E08DE00E94E31661E08DE02B
:100D70000E94AA1689EE93E00E947618EC012BEAF5
:100D800031E0FC0121933193CF010E9470111F8249
:100D90001886198682E08A8721E02B871C861D86AB
:100DA0001E861F86198A188A86E990E09B8B8A8B9B
:100DB0001D8A1C8A1E8A1F8A288F1A8E198E1B8EE6
:100DC00083EA91E09D8F8C8F20E049E06AE0CE01BC
:100DD0004E960E9408141BAE1AAEFE01E056FF4F5D
:100DE000108231968FEF808331968FEF9FEF918342
:100DF0008083349691838083329691838083329668
:100E0000918380833296918380833296918380830D
:100E100032969183808332964FEF5FEF60E070E00F
:100E20004083518362837383349611821082329699
:100E30008BE991E091838083128213821482158260
:100E400016821782108611861286148613861686DD
:100E500015861786108A118A138A158A148A178AAA
:100E6000168A118E108E128E138E148E158E178E7A
:100E7000168E11A210A213A212A2D093E101C09368
:100E8000E0018091E0019091E101DF91CF9108951F
:100E9000CF930E944C06C1E0FC01C7830E944C0620
:100EA000FC01C0870E944C06FC01138ECF9108956F
:100EB00067E370E082EE91E00E947D0E67E17CE0E6
:100EC00082EE91E00E94B10E63E47CE082EE91E05C
:100ED0000C94B60E0F931F93CF93DF93EC018C010C
:100EE0000E5F1F4F61E0C8010E949E1181110DC06D
:100EF0006FEE72E08DE393E00E94D91A81E08B8F50
:100F0000DF91CF911F910F91089563ED72E08DE312
:100F100093E00E94D91A42E050E068E477E080E074
:100F20000E941015488D63E070E0C8010E94240DF6
:100F300068EE73E080E090E00E942016C8010E94F5
:100F40004A0D1F82CE01DF91CF911F910F910C941A
:100F50005807CF93DF93EC018C8980FF05C060E0D8
:100F60008BE00E94E31604C061E08BE00E94E31670
:100F70008C8981FF05C060E08CE00E94E31604C00C
:100F800061E08CE00E94E3168C8982FF05C060E07E
:100F90008EE00E94E31604C061E08EE00E94E3163A
:100FA0008C8983FF05C060E08FE00E94E31604C0D7
:100FB00061E08FE00E94E3168C8984FF05C060E049
:100FC00085E00E94E31604C061E085E00E94E3161C
:100FD0008C8985FF05C060E086E00E94E31604C0AE
:100FE00061E086E00E94E3168C8986FF05C060E020
:100FF00088E00E94E31604C061E088E00E94E316E6
:101000008C899D8990FF07C061E087EA92E0DF91BB
:10101000CF910C943C1160E087EA92E0DF91CF9190
:101020000C943C110F931F93CF93DF9300D000D00B
:1010300000D0CDB7DEB78C01FC0181858D3008F082
:1010400087C091E0980F9187E80FF11DE452FF4FA0
:10105000608361117FC0CE0101969F938F930496A8
:101060009F938F938FE891E09F938F93C801845251
:101070009F4F9F938F930E94971E0FB6F894DEBFE9
:101080000FBECDBF029709F063C08D819E81813074
:101090009105D9F110F18230910509F448C0039708
:1010A00009F056C089819A81AB81BC81F80184879F
:1010B0009587A687B78769E571E08DE393E00E9485
:1010C000991AF80144855585668577852AE030E0D0
:1010D0008DE393E00E94EE1B3BC089819A81F80169
:1010E000958B848B66E971E08DE393E00E94991AF9
:1010F000F8016489758940E150E08DE393E00E9436
:10110000D81BC8010E94A90723C08981F8018287E2
:1011100062E871E08DE393E00E94991A4AE050E0A2
:10112000F80162858DE393E00E94BB1B11C08981A9
:10113000F80183876EE671E08DE393E00E94991ACF
:101140004AE050E0F80163858DE393E00E94BB1B09
:10115000F801118626960FB6F894DEBF0FBECDBFFC
:10116000DF91CF911F910F910895FC01878991E044
:10117000980F983110F4978B01C0178A97892689A8
:10118000921305C09F5F968B983108F0168A9F01D5
:1011900040E2849F200D311D1124C90187519F4FCA
:1011A0000895FC0186899789891789F091E0980F45
:1011B000983110F4968B01C0168A9F0140E2849FFB
:1011C000200D311D1124C90187519F4F089580E0E2
:1011D00090E0089588EC80937C0080917A0080688C
:1011E00080937A0064E170E080E090E00E94201635
:1011F00080917A00806480937A0080917A0086FDE5
:10120000FCCF609178007091790080E090E00E94BE
:10121000FE1C2EEA37E242EA53E40E94001C26EF4D
:1012200038E24CE95FE30E94651C0E94EF1D0E94BA
:10123000CD1C862F0895CF92DF92EF92FF920F93ED
:101240001F93CF93DF938C010E94B508EC016801D6
:101250008CE1C80ED11C7801EEE1EE0EF11C40E0ED
:101260005BE460E070E0C7010E943814C6010E9490
:101270006A05998B888BC6010E9499056C837D83D2
:101280008E839F8360E0C6010E94B005009749F0FD
:10129000FC0187819085A185B28588879987AA8777
:1012A000BB8761E0C6010E94B005009749F0FC01D0
:1012B00087819085A185B2858C879D87AE87BF8702
:1012C000C6010E945C059B8B8A8BC6010E94630548
:1012D0009D8B8C8BC6010E9471059F8B8E8BC601E6
:1012E0000E947805998F888FC6010E947F059D8F87
:1012F0008C8FF801448555856685778548835983A9
:101300006A837B83C8010E94EA08992787FD90952C
:101310009B8F8A8FC7010E94DA148DE393E00E94AD
:10132000C51A67E471E08DE393E00E94991A688919
:1013300079894AE050E08DE393E00E94D81B6BE38B
:1013400071E08DE393E00E94991A4C815D816E817A
:101350007F812AE030E08DE393E00E94EE1B6CE297
:1013600071E08DE393E00E94991A488559856A855A
:101370007B852AE030E08DE393E00E94EE1B69E17B
:1013800071E08DE393E00E94991A4C855D856E852E
:101390007F852AE030E08DE393E00E94EE1B69E058
:1013A00071E08DE393E00E94991A6A897B894AE093
:1013B00050E08DE393E00E94D81B69EF70E08DE36D
:1013C00093E00E94991A6C897D894AE050E08DE390
:1013D00093E00E94D81B6CEE70E08DE393E00E94D6
:1013E000991A6E897F894AE050E08DE393E00E946C
:1013F000D81B6EED70E08DE393E00E94991A688D22
:10140000798D4AE050E08DE393E00E94D81B6EECAA
:1014100070E08DE393E00E94991A6A8D7B8D4AE01B
:1014200050E08DE393E00E94961B60EC70E08DE34A
:1014300093E00E94991A6C8D7D8D4AE050E08DE317
:1014400093E0DF91CF911F910F91FF90EF90DF908C
:10145000CF900C94D81B8F929F92AF92BF92CF9255
:10146000DF92EF92FF920F931F93CF93DF93EC01E4
:1014700069EA72E08DE393E00E94D91A229661E056
:10148000CE010E94561163E772E08DE393E00E9463
:10149000991A4AE050E06AEF70E08DE393E00E9411
:1014A0008E1B6FE672E08DE393E00E94D91A0E94D2
:1014B000F1156B017C01CE010E94C5110E94D21C66
:1014C0004B015C018B0161E672E08DE393E00E94C9
:1014D000991A4AE050E0B4018DE393E00E94D21BD8
:1014E0006EE572E08DE393E00E94D91A8DE393E0FC
:1014F0000E94C31868EE73E080E090E00E9420161E
:1015000087E00E941917892BF9F40E94F1156C19D4
:101510007D098E099F0961367A4E81059105C0F0DB
:101520006AE272E08DE393E00E94991A60E0CE01D6
:101530000E94561160ED77E080E090E00E94201656
:1015400061E0CE010E9456110E94F1156B017C01F1
:101550000A3F110508F4AFCFDF91CF911F910F9192
:10156000FF90EF90DF90CF90BF90AF909F908F90C3
:1015700008954F925F926F927F928F929F92AF9257
:10158000BF92EF92FF920F931F93CF93DF93EC01E3
:1015900064EF71E08DE393E00E94991A6A897B8978
:1015A0004AE050E08DE393E00E94D21B60EF71E0CF
:1015B0008DE393E00E94D91A0E94F1154B015C0162
:1015C0008E010E5F1F4FC8010E94C5110E94D21CE0
:1015D0002B013C017B0162EE71E08DE393E00E9400
:1015E000991A4AE050E0B2018DE393E00E94D21BC9
:1015F0006FED71E08DE393E00E94D91A8DE393E0E3
:101600000E94C31868EE73E080E090E00E9420160C
:1016100087E00E941917892B29F00E94F1154B01D0
:101620005C0112C00E94F115681979098A099B09A9
:1016300061367A4E8105910538F066EB71E08DE3F5
:1016400093E00E94991A06C08A899B89E816F906D8
:1016500008F0B9CF67EA71E08DE393E00E94D91AF0
:1016600060E0C8010E94561168E873E180E090E0F4
:10167000DF91CF911F910F91FF90EF90BF90AF90AE
:101680009F908F907F906F905F904F900C9420165A
:10169000EC010E94580764EA73E08DE393E00E9436
:1016A000D91A60E47CE980E090E00E94201661E7AE
:1016B00073E08DE393E00E94D91ACE010E942B0AB9
:1016C00061E573E08DE393E00E94D91ACE010E9498
:1016D000B90ACE010E946A078E010E5F1F4FFF24D8
:1016E000F3948F81811104C09885992309F468C00F
:1016F00018861A8E198E882329F0C8010E944A0D77
:101700001B8E1F82888D2CE3829FC00111244C8583
:101710005D856E857F85480F591F611D711D4C8742
:101720005D876E877F87888999890196998B888BD9
:101730008DE393E00E94C51A8B8D882339F06DE408
:1017400073E08DE393E00E94991A06C069E473E0A8
:101750008DE393E00E94991A6CE373E08DE393E0CC
:101760000E94991A62E373E08DE393E00E94991A54
:10177000688979894AE050E08DE393E00E94D81BA4
:101780006B8570E0888999890E94381E892B49F4FD
:101790006CE173E08DE393E00E94D91ACE010E94C0
:1017A0001B096A8570E0888999890E94381E892BF7
:1017B00051F5CE010E942B0ACE010E94B90A23C026
:1017C0008091A6028823F9F01092A602298D3A8D05
:1017D0002C5F3F4F3A8F298F2C333105A0F08B8D32
:1017E00081110FC0888D42E4849FC00111248217AB
:1017F000930748F461E073E08DE393E00E94D91A07
:10180000FB8EF8866ECF8DE393E00E94C31820E034
:1018100030E040E050E068E070E0C8010E94D8107D
:1018200063E070E080E090E00E9420165ACF0F93B2
:101830001F93CF93DF931F92CDB7DEB78C0166EC79
:1018400072E08DE393E00E94991A4AE050E0B801FB
:101850008DE393E00E94961B82EE91E00E949A0D28
:10186000892B59F082EE91E00E94A20D89830E949B
:101870004C0669810E941208EFCF0F90DF91CF9143
:101880001F910F9108950F931F93CF93DF93CDB7BF
:10189000DEB7A0970FB6F894DEBF0FBECDBF0E9493
:1018A0004C060E94D1088C01009741F4FE0131964C
:1018B00080E2DF011D928A95E9F78F0166EB72E005
:1018C0008DE393E00E94991AF80140815181628171
:1018D00073812AE030E08DE393E00E94EE1B40E24A
:1018E00050E0B80182EE91E00E94F40DA0960FB690
:1018F000F894DEBF0FBECDBFDF91CF911F910F9146
:101900000895DC01ED91FC910190F081E02D0994A6
:1019100082EE91E00E94600E81E00895CF92DF9206
:10192000EF92FF920F931F93CF93DF931F92CDB748
:10193000DEB7062FF72E142F68E670E082EE91E0F6
:1019400029830E94990E2981622F70E082EE91E036
:101950000E94810C82EE91E00E94AE0E412F68E65B
:1019600082EE91E00E948C0EE02EC02EDF2C8C2D9A
:101970008E19811740F482EE91E00E94A20DF601CB
:1019800081936F01F4CF0F90DF91CF911F910F9151
:10199000FF90EF90DF90CF900895CF93DF931F9249
:1019A000CDB7DEB7262F41E0BE016F5F7F4F0E94AB
:1019B0008E0C89810F90DF91CF910895EF92FF9265
:1019C0000F931F93CF93DF9300D0CDB7DEB7062FD1
:1019D000122F68E670E082EE91E049835A830E94FC
:1019E000990E602F70E082EE91E00E94810C498197
:1019F000042FE42E5A81F52E8E2D801B811740F482
:101A0000F70161917F0182EE91E00E94210EF4CFF7
:101A100082EE91E00F900F90DF91CF911F910F9187
:101A2000FF90EF900C94AE0ECF93DF931F92CDB743
:101A3000DEB7498321E0AE014F5F5F4F0E94DE0CAD
:101A40000F90DF91CF9108951F93CF93DF93EC0117
:101A5000142F462F60E10E94140D412F61E1CE0149
:101A60000E94140D61E0CE010E94CD0C482F4F7BE7
:101A7000426061E0CE010E94140D6FE0CE010E9431
:101A8000CD0C482F42686FE0CE01DF91CF911F91BE
:101A90000C94140DCF93DF93EC0161E00E94CD0C08
:101AA000482F4F7B61E0CE01DF91CF910C94140D54
:101AB00048E560E00C94140D1F93CF93DF93EC0185
:101AC00060E00E94CD0C182F40E061E0CE010E9442
:101AD000140D81E0111101C080E0DF91CF911F91C1
:101AE0000895CF93DF93EC016FE00E94CD0C482F57
:101AF00048636FE0CE01DF91CF910C94140D40E06C
:101B000062E00C94140D0F931F93CF93DF93EC01BD
:101B10008B0160E00E94CD0C482F012B11F44F7710
:101B200001C0406860E0CE01DF91CF911F910F911D
:101B30000C94140D8091160290E020911702821BE4
:101B4000910908952091170280911602281750F4E8
:101B5000E22FF0E0E85EFD4F808190E02F5F209360
:101B6000170208958FEF9FEF0895E091170280917B
:101B70001602E81730F4F0E0E85EFD4F808190E057
:101B800008958FEF9FEF08950895E091EE01F09191
:101B9000EF013097E1F030911702209116023217D1
:101BA000B0F040E0242F30E02617370754F4DC0172
:101BB000A20FB31F5C91D901A85EBD4F5C934F5F2C
:101BC000F1CF1092170260931602CB010994089589
:101BD000E091F001F091F101309729F01092F401B9
:101BE0001092F30109940895CF92DF92EF92FF9241
:101BF0000F931F93CF93DF937C01CB018A01209138
:101C0000F201222389F0EB016B01C40ED51ECC1525
:101C1000DD0569F06991D701ED91FC910190F081AA
:101C2000E02DC7010995F3CF642F0E94780FC801FA
:101C3000DF91CF911F910F91FF90EF90DF90CF90A8
:101C40000895CF93DF931F92CDB7DEB769832091BC
:101C5000F2012223D1F02091F301203240F021E063
:101C600030E0FC013383228380E090E015C0809156
:101C7000F401E82FF0E0EB50FE4F998190838F5FE5
:101C80008093F4018093F30105C061E0CE010196D9
:101C90000E94780F81E090E00F90DF91CF9108953E
:101CA000FC011382128248EE53E060E070E044834E
:101CB00055836683778383EB91E0918380830895D6
:101CC00010921702109216021092F4011092F30172
:101CD0000C94BF0ECF93DF93EC01862F0E94DD0E94
:101CE00088EE9DE00E94960F85EC9DE00E94910F8A
:101CF000CE01DF91CF910C94600E0C946A0E862F6A
:101D0000413208F040E268E172E00E94E10E109278
:101D1000170280931602089521E00C947F0E81E053
:101D20008093F201609315021092F4011092F30176
:101D300008950C948F0E0F93062F21E04091F3012C
:101D400065EF71E0809115020E94250F1092F40159
:101D50001092F3011092F2010F91089561E00C943A
:101D60009B0E7093EF016093EE0108957093F10163
:101D70006093F001089582EE91E00C94500E109261
:101D8000A50281E08093A3021092A20261E082E1A9
:101D90000E94E31661E083E10E94E316E9EBF0E0C4
:101DA00080818E7F808380818D7F808380E280939D
:101DB000B80085E48093BC000895880F8093BA0032
:101DC0000895413208F03FC09091A5029111FCCFD7
:101DD00091E09093A5022093A3022FEF2093380265
:101DE00010927D02240F20937C029093A402909184
:101DF000A402880F892B8093A4028091A2028130D3
:101E000041F41092A2028091A4028093BB0085EC61
:101E100001C085EE8093BC008091A5028130E1F382
:101E200080917D02841710F440917D022EE732E00C
:101E3000FB01D9018A2F821B841718F48D9181939D
:101E4000F9CF842F089580E008950F93413208F070
:101E500046C09091A5029111FCCF92E09093A5020B
:101E60000093A3029FEF9093380210927D0240935B
:101E70007C02FB016EE772E0DB019A2F961B941740
:101E800018F491919D93F9CF1092A4029091A4021D
:101E9000880F892B8093A4028091A202813041F4A3
:101EA0001092A2028091A4028093BB0085EC01C035
:101EB00085EE8093BC00222321F08091A502823020
:101EC000E1F3809138028F3F61F0809138028032D7
:101ED00051F080913802803341F483E007C081E003
:101EE00005C080E003C082E001C084E00F91089546
:101EF000613298F42091A502243089F460935A024B
:101F0000FC018CE592E0DC012A2F281B261718F42F
:101F100021912D93F9CF80E0089581E0089582E02A
:101F2000089590939F0280939E0208959093A1023A
:101F30008093A002089585ED8093BC008091BC0041
:101F400084FDFCCF1092A502089585EC8093BC001F
:101F50001092A50208951F920F920FB60F921124AE
:101F60002F933F934F935F936F937F938F939F93A1
:101F7000AF93BF93EF93FF938091B900887F803632
:101F800009F49CC068F5883209F45BC090F4803194
:101F900009F454C038F4882309F4F5C0883009F4F2
:101FA0004DC0F5C0883109F44CC0803209F45DC0E1
:101FB000EEC0803409F468C048F4803309F455C099
:101FC000883309F0E4C080933802A8C0803509F452
:101FD0004FC0883509F45DC0883409F0D8C0D5C039
:101FE000883909F4C6C0A8F4883709F467C038F402
:101FF000883609F463C0803709F460C0C8C08838E7
:1020000009F4B7C0803909F45FC0803809F0BFC057
:102010005BC0803B09F485C038F4803A09F466C09F
:10202000883A09F47EC0B3C0803C09F4A6C0883C5D
:1020300009F4A3C0883B09F489C0A9C08091A40217
:1020400010C090917D0280917C02981770F5E0910C
:102050007D0281E08E0F80937D02F0E0E258FD4F1B
:1020600080818093BB0085EC85C0809338028DC051
:10207000E0917D0281E08E0F80937D028091BB0014
:10208000F0E0E258FD4F808390917D0280917C02C8
:102090006DC0E0917D0281E08E0F80937D02809182
:1020A000BB00F0E0E258FD4F80838091A3028111D4
:1020B0006CC081E08093A20284EA60C083E08093D8
:1020C000A50210923902CFCF80913902803208F0F8
:1020D00050C0E091390281E08E0F809339028091E7
:1020E000BB00F0E0E65CFD4F8083BDCF80913902FC
:1020F000803230F4E0913902F0E0E65CFD4F10826E
:102100000E949B0F6091390270E0E0919E02F09175
:102110009F028AE392E00995109239020E94A50F6E
:1021200036C084E08093A50210925B0210925A029E
:10213000E091A002F091A102099580915A028111CB
:1021400005C081E080935A0210925C02E0915B022C
:1021500081E08E0F80935B02F0E0E45AFD4F8081B6
:102160008093BB0090915B0280915A02981708F40B
:102170007ACF85E88093BC000AC085EC8093BC00D0
:102180001092A50204C0109238020E949B0FFF918A
:10219000EF91BF91AF919F918F917F916F915F91DF
:1021A0004F913F912F910F900FBE0F901F90189558
:1021B0004115510529F4EAE7F0E080818F778083AB
:1021C0006A307105B1F063FF02C088E201C088E0A7
:1021D0006770682B88E190E00FB6F894A89580931B
:1021E00060000FBE60936000E0E6F0E080818064F4
:1021F0008083232BA1F483B7817F846083BFF8940D
:1022000083B7816083BF85B7806685BF8F7D85BFBB
:102210007894889583B78E7F83BF78940EC083B7F8
:10222000817F846083BFF89483B7816083BF789493
:10223000889583B78E7F83BF7894452B29F4EAE78E
:10224000F0E080818068808308951F920F920FB61E
:102250000F9211248F9381E08093A60288E10FB63C
:10226000F89480936000109260000FBE8F910F90E1
:102270000FBE0F901F901895CF93DF93EC018881CC
:10228000882319F0662371F006C0662339F061E0F7
:1022900084E00E94E31681E08A8305C060E084E068
:1022A0000E94E3161A82DF91CF910895CF93DF93B6
:1022B000EC018881882319F0662371F006C066233B
:1022C00039F061E080E10E94E31681E0898305C076
:1022D00060E080E10E94E3161982DF91CF910895BA
:1022E000CF93DF93EC0118821C821B8219821A8221
:1022F00061E080E10E94AA1660E0CE010E945611C2
:1023000061E084E00E94AA1660E0CE010E943C11C8
:1023100061E081E10E94AA1660E081E10E94E3167B
:1023200060E087E00E94AA1660E083E00E94AA169F
:1023300060E082E0DF91CF910C94AA161F93CF93B7
:10234000DF93EC01162F0E94880C62E0CE010E9400
:10235000CD0C8F3FA9F0112319F0CE010E94580D2A
:10236000CE010E94710DCE010E947F0DCE010E9410
:102370005C0D61E070E0CE010E94830D81E001C040
:1023800080E0DF91CF911F91089585E10E948A1529
:102390008430910514F480E090E0BC01882777FD3B
:1023A0008095982F0E94001D2BE734E14EE450E405
:1023B0000E948C1D089587EA92E00C947011209180
:1023C0002E0330912F0328173907B9F49091AC02EE
:1023D0008091AD02981789F0E091AC02F0E0E255EF
:1023E000FD4F80812091AC0230E02F5F3F4F2F776F
:1023F00033272093AC0290E008958FEF9FEF08956C
:1024000020912E0330912F032817390781F49091E2
:10241000AC028091AD02981751F0E091AC02F0E06F
:10242000E255FD4F8081992787FD909508958FEFA4
:102430009FEF089520912E0330912F03281739071D
:1024400071F48091AD022091AC0290E080589F4FD2
:10245000821B910960E870E00E944C1E089580E0A4
:1024600090E0089520912E0330912F03281739070B
:1024700039F48FB7F8941092AD021092AC028FBF6E
:102480000895DC015196ED91FC9152972081509670
:102490008C91809582238083089520E001972FEF0F
:1024A0008F3F9207D9F7089520912E0330912F0383
:1024B0002817390789F0FC01238D2E7F238F2FB732
:1024C000F8941092AD021092AC0290932F03809377
:1024D0002E032FBF81E0089580E00895EF92FF92D0
:1024E0000F931F93CF93DF93EC018B8DEE85FF85C8
:1024F0009D8581FF04C08081892329F447C08081A4
:10250000892309F043C08B899C890E944D1208E001
:1025100010E0EE24E394F12C8D899E890E944D12E7
:10252000EE85FF8580819D85892311F0FE2803C0FB
:102530008E2D8095F822EE0C015011090115110520
:1025400059F78F89988D0E944D128B8D81FDF094E3
:102550008091AD022091AC0290E001968F7799278F
:1025600030E08217930779F0E091AD02F0E0E25598
:10257000FD4FF0828091AD0290E001968F77992710
:102580008093AD0203C08B8D81608B8FDF91CF91E3
:102590001F910F91FF90EF900895611102C00C946C
:1025A0004112DC015196ED91FC9152972081509699
:1025B0008C91282B20830895DF92EF92FF920F9346
:1025C0001F93CF93DF93EC01E62E898D9A8D892B93
:1025D00039F481E090E09B838A8380E090E04DC0F5
:1025E000DFB6F8946B8D66956170CE010E94CD12B6
:1025F000898D9A8D04960E944D128B8D08E010E013
:10260000FF24F39481FF19C08F2D8E2121F0CE017C
:102610000E94411204C061E0CE010E94CD12898D5A
:102620009A8D0E944D12FF0C0150110901151105E0
:1026300059F7CE010E94411219C08F2D8E2129F029
:1026400061E0CE010E94CD1203C0CE010E94411272
:10265000898D9A8D0E944D12FF0C015011090115B0
:10266000110559F761E0CE010E94CD12DFBE898DC0
:102670009A8D0E944D1281E090E0DF91CF911F91E1
:102680000F91FF90EF90DF90089580912E0390912D
:102690002F03009711F00C946E1208951F920F9261
:1026A0000FB60F9211242F933F934F935F936F9325
:1026B0007F938F939F93AF93BF93EF93FF930E946A
:1026C0004513FF91EF91BF91AF919F918F917F91B2
:1026D0006F915F914F913F912F910F900FBE0F908F
:1026E0001F9018951F920F920FB60F9211242F93DF
:1026F0003F934F935F936F937F938F939F93AF938A
:10270000BF93EF93FF930E944513FF91EF91BF9109
:10271000AF919F918F917F916F915F914F913F9179
:102720002F910F900FBE0F901F9018951F920F9230
:102730000FB60F9211242F933F934F935F936F9394
:102740007F938F939F93AF93BF93EF93FF930E94D9
:102750004513FF91EF91BF91AF919F918F917F9121
:102760006F915F914F913F912F910F900FBE0F90FE
:102770001F9018951F93CF93DF93EC01162F61E004
:10278000812F0E94AA1661E0812F0E94E316812FFB
:1027900090E0FC01E155FB4FE491E88BFC01ED5327
:1027A000FB4FE491F0E0EE0FFF1FEF51FB4F8591DF
:1027B00094919A8B898BDF91CF911F9108951F93EC
:1027C000CF93DF93EC01162F60E0812F0E94AA16B1
:1027D0008B8D81FD04C061E0812F0E94E3161C8770
:1027E000812F90E0FC01E155FB4FE491ED87FC0166
:1027F000ED53FB4FE491F0E0EE0FFF1FE952FB4F6A
:10280000859194919F878E87DF91CF911F91089535
:10281000FF920F931F93CF93DF93EC01F62E522F6D
:102820001B821A8208EE13E020E030E00C831D8347
:102830002E833F8383EC91E0998388831C8A1B8AD3
:102840001E8A1D8A188E1F8A1A8E198E8B8D8E7F76
:1028500050FB81F98B8F642FCE010E94BA136F2D2C
:10286000CE01DF91CF911F910F91FF900C94DF1358
:102870000F931F93CF93DF93EC011A8E198E188E4E
:102880001F8A1E8A1D8AAFEFB3E080E090E0FD0151
:1028900005911591259134910417150726073707DF
:1028A00009F031C02CE0289FF001299FF00D112480
:1028B000ED5FFB4F259134913C8B2B8B2CE0289FB7
:1028C000F001299FF00D1124EB5FFB4F259134910E
:1028D0003E8B2D8B2CE0289FF001299FF00D1124B9
:1028E000E95FFB4F25913491388F2F8B2CE0289F87
:1028F000F001299FF00D1124E75FFB4F8591949122
:102900009A8F898F08C001961C968D30910509F029
:10291000BECF1C8A1B8A8F89988D892B09F443C0EE
:102920008C858631E0F520916800883050F091E088
:102930008E3008F490E081E001C0880F9A95EAF7A4
:1029400001C084E0822B809368002C85283038F009
:102950002E3040F0263148F0E0E0F0E008C0EDE62F
:10296000F0E005C0EBE6F0E002C0ECE6F0E030811C
:10297000283030F481E001C0880F2A95EAF70DC0B5
:10298000822F90E02E3010F4089701C00E9791E04E
:1029900001C0990F8A95EAF7892F832B8083898D4F
:1029A0009A8D0E944D12CE01DF91CF911F910F9110
:1029B0000C945412FC014485463150F5483028F0FF
:1029C0004E3030F4EBE6F0E005C0EDE6F0E002C09A
:1029D000ECE6F0E05081483040F481E090E0042ED5
:1029E00001C0880F0A94EAF710C0242F30E04E305F
:1029F00018F42850310902C02E50310981E090E0CE
:102A0000022E01C0880F0A94EAF7809585238083FF
:102A1000089523EC31E0FC01318320830C94DA1417
:102A20008230E8F4E82FF0E0EE0FFF1FE05DFC4F8E
:102A300071836083813041F0809169008C7F842BA9
:102A400080936900E89A089580916900440F551FAA
:102A5000440F551F837F842B80936900E99A089562
:102A60001F920F920FB60F9211242F933F934F9303
:102A70005F936F937F938F939F93AF93BF93EF93E6
:102A8000FF938091300390913103892B29F0E091DD
:102A90003003F09131030995FF91EF91BF91AF9110
:102AA0009F918F917F916F915F914F913F912F9166
:102AB0000F900FBE0F901F9018951F920F920FB698
:102AC0000F9211242F933F934F935F936F937F93B4
:102AD0008F939F93AF93BF93EF93FF9380913203B4
:102AE00090913303892B29F0E0913203F091330365
:102AF0000995FF91EF91BF91AF919F918F917F9138
:102B00006F915F914F913F912F910F900FBE0F905A
:102B10001F9018958E3008F08E508770209100011C
:102B200090E4299F90011124822B80937C00809156
:102B30007A00806480937A0080917A0086FDFCCFD1
:102B4000809178002091790090E0922B08951F9257
:102B50000F920FB60F9211242F933F938F939F9351
:102B6000AF93BF938091350390913603A0913703C3
:102B7000B09138033091340326E0230F2D3720F431
:102B80000296A11DB11D05C029E8230F0396A11DC2
:102B9000B11D209334038093350390933603A093A3
:102BA0003703B09338038091390390913A03A09191
:102BB0003B03B0913C030196A11DB11D80933903E5
:102BC00090933A03A0933B03B0933C03BF91AF9122
:102BD0009F918F913F912F910F900FBE0F901F905B
:102BE00018952FB7F8946091350370913603809152
:102BF0003703909138032FBF08953FB7F894809121
:102C0000390390913A03A0913B03B0913C0326B560
:102C1000A89B05C02F3F19F00196A11DB11D3FBF14
:102C20006627782F892F9A2F620F711D811D911DA4
:102C300043E0660F771F881F991F4A95D1F70895C3
:102C4000CF92DF92EF92FF92CF93DF936B017C01E3
:102C50000E94FD15EB01C114D104E104F10479F0E7
:102C60000E94FD156C1B7D0B683E7340A0F381E054
:102C7000C81AD108E108F108C851DC4FECCFDF9148
:102C8000CF91FF90EF90DF90CF900895789484B526
:102C9000826084BD84B5816084BD85B5826085BD58
:102CA00085B5816085BDEEE6F0E08081816080833E
:102CB000E1E8F0E010828081826080838081816021
:102CC0008083E0E8F0E0808181608083E1EBF0E0E8
:102CD000808184608083E0EBF0E08081816080838C
:102CE000EAE7F0E080818460808380818260808375
:102CF0008081816080838081806880831092C100A0
:102D00000895833081F028F4813099F08230A1F069
:102D100008958630A9F08730B9F08430D1F48091DD
:102D200080008F7D03C0809180008F77809380002A
:102D3000089584B58F7702C084B58F7D84BD0895D2
:102D40008091B0008F7703C08091B0008F7D809319
:102D5000B0000895CF93DF9390E0FC01E155FB4F65
:102D60002491FC01ED53FB4F8491882349F190E0BD
:102D7000880F991FFC01E551FB4FA591B4918F512C
:102D80009B4FFC01C591D4919FB7611108C0F89485
:102D90008C91209582238C93888182230AC0623093
:102DA00051F4F8948C91322F309583238C93888141
:102DB000822B888304C0F8948C91822B8C939FBFC4
:102DC000DF91CF9108950F931F93CF93DF931F92BD
:102DD000CDB7DEB7282F30E0F901E556FB4F8491DF
:102DE000F901E155FB4F1491F901ED53FB4F0491AB
:102DF0000023C9F0882321F069830E94811669812C
:102E0000E02FF0E0EE0FFF1FEF51FB4FA591B491C3
:102E10009FB7F8948C91611103C01095812301C074
:102E2000812B8C939FBF0F90DF91CF911F910F91BA
:102E30000895CF93DF93282F30E0F901E556FB4F3B
:102E40008491F901E155FB4FD491F901ED53FB4F0A
:102E5000C491CC2391F081110E948116EC2FF0E0F7
:102E6000EE0FFF1FE952FB4FA591B4912C912D233A
:102E700081E090E021F480E002C080E090E0DF910A
:102E8000CF910895CF93DF938230910510F482E0C3
:102E900090E0E091E903F091EA0320E030E0A0E067
:102EA000B0E0309739F14081518148175907B8F0A7
:102EB0004817590771F482819381109729F013966E
:102EC0009C938E9312972CC09093EA038093E9030E
:102ED00027C02115310531F04217530718F0A90119
:102EE000DB0101C0EF019A01BD01DF010280F38126
:102EF000E02DD7CF21153105F9F0281B390B2430EF
:102F0000310580F48A819B816115710521F0FB01F7
:102F10009383828304C09093EA038093E903FE01C4
:102F2000329644C0FE01E20FF31F81939193225029
:102F30003109398328833AC02091E7033091E803AF
:102F4000232B41F420910301309104013093E803D5
:102F50002093E703209101013091020121153105F1
:102F600041F42DB73EB74091050150910601241B55
:102F7000350BE091E703F091E803E217F307A0F4C3
:102F80002E1B3F0B2817390778F0AC014E5F5F4FBF
:102F90002417350748F04E0F5F1F5093E803409306
:102FA000E7038193919302C0E0E0F0E0CF01DF916D
:102FB000CF910895CF93DF93009709F487C0FC0168
:102FC000329713821282C091E903D091EA032097CD
:102FD00081F420813181280F391F8091E70390917E
:102FE000E8038217930779F5F093E803E093E7038A
:102FF0006DC0DE0120E030E0AE17BF0750F412963E
:103000004D915C9113979D014115510509F1DA012C
:10301000F3CFB383A28340815181840F951F8A1718
:103020009B0771F48D919C911197840F951F0296C7
:103030009183808312968D919C91139793838283C1
:103040002115310529F4F093EA03E093E9033EC02A
:10305000D9011396FC93EE9312974D915D91A40FB5
:10306000B51FEA17FB0779F480819181840F951FC2
:103070000296D90111969C938E9382819381139627
:103080009C938E931297E0E0F0E08A819B810097F9
:1030900019F0FE01EC01F9CFCE01029628813981A9
:1030A000820F931F2091E7033091E8032817390717
:1030B00069F4309729F41092EA031092E90302C0F0
:1030C00013821282D093E803C093E703DF91CF917C
:1030D00008950E9446160E94AE02C6E4D9E10E94FD
:1030E000AF022097E1F30E944619F9CF0C944217E2
:1030F0000C94DA17FC0124853585F901E05CFF4F5B
:1031000080819181329620813181821B930B8F7354
:1031100099270895FC0184859585FC01E05CFF4FAB
:10312000408151813296208131814217530741F00D
:103130000190F081E02DE80FF91F808190E0089563
:103140008FEF9FEF0895FC0184859585FC01E05C7D
:10315000FF4F4081518132962081318142175307C0
:1031600079F0A081B181A80FB91F8C9120813181A4
:103170002F5F3F4F2F7333273183208390E00895D3
:103180008FEF9FEF0895FC0181A1882329F0A48986
:10319000B5898C9186FFFBCF11A20895CF93DF9361
:1031A000FC0126853785D901A05CBF4F8D919C918C
:1031B000119701968F739927E901CE5BDF4F488104
:1031C000598184179507D9F30D90BC91A02DA20FBA
:1031D000B31F6C93A685B785A05CBF4F11969C93D7
:1031E0008E93A689B7892C9181E090E0078C02C06C
:1031F000880F991F0A94E2F7282B2C9381E081A372
:103200000488F589E02D80818064808381E090E0EE
:10321000DF91CF91089508951F920F920FB60F92EC
:1032200011242F933F934F938F939F93EF93FF938B
:103230008091C00082FD1CC04091C6008091E303D4
:103240009091E40301968F7399272091E5033091C3
:10325000E6038217930771F0E091E303F091E40332
:10326000ED55FC4F40839093E4038093E30302C049
:103270008091C600FF91EF919F918F914F913F9167
:103280002F910F900FBE0F901F9018958DE393E034
:103290000E947A18892B11F00C940B1908951F9233
:1032A0000F920FB60F9211242F933F938F939F93FA
:1032B000EF93FF9320919F033091A0038091A1038E
:1032C0009091A2032817390731F48091C1008F7DB6
:1032D0008093C10014C0E091A103F091A203E15AD0
:1032E000FC4F20818091A1039091A20301968F73DE
:1032F00099279093A2038093A1032093C600FF9186
:10330000EF919F918F913F912F910F900FBE0F9052
:103310001F901895CF92DF92EF92FF92CF93DF9399
:10332000EC016A017B01EC89FD8981E090E008A055
:1033300002C0880F991F0A94E2F7808360E874E85E
:103340008EE190E0A70196010E94601E2150310994
:10335000410951095695479537952795211580E1E3
:10336000380798F0EC89FD89108260E472E48FE000
:1033700090E0A70196010E94601E21503109410989
:1033800051095695479537952795E889F9893083EE
:10339000EA89FB89208319A2EE89FF89408181E0B7
:1033A00090E09C010C8C02C0220F331F0A94E2F7BC
:1033B000422B4083EE89FF8940819C010D8C02C025
:1033C000220F331F0A94E2F7422B4083EE89FF89D4
:1033D00040819C010E8C02C0220F331F0A94E2F739
:1033E000422B4083EE89FF8920810F8C02C0880F19
:1033F000991F0A94E2F7809582238083DF91CF9111
:10340000FF90EF90DF90CF900895109240031092BC
:103410003F0388EE93E0A0E0B0E0809341039093F7
:103420004203A0934303B093440383ED91E0909350
:103430003E0380933D0383EA93E090934A03809395
:1034400049038FE593E090934C0380934B0385EC05
:1034500090E090934E0380934D0384EC90E0909322
:10346000500380934F0380EC90E09093520380933D
:10347000510381EC90E0909354038093530382ECCA
:1034800090E0909356038093550386EC90E09093E0
:1034900058038093570384E08093590383E080931B
:1034A0005A0387E080935B0385E080935C0381E0AF
:1034B00080935D030895CF92DF92EF92FF920F9376
:1034C0001F93CF93DF936C017A01EB01E60EF71E99
:1034D00000E010E0CE15DF0561F06991D601ED91B5
:1034E000FC910190F081E02DC6010995080F191F8C
:1034F000F1CFC801DF91CF911F910F91FF90EF9015
:10350000DF90CF9008956115710581F0DB010D907A
:103510000020E9F7AD0141505109461B570BDC0172
:10352000ED91FC910280F381E02D099480E090E020
:103530000895EF92FF920F931F93CF93DF938C0127
:10354000FB01C0E0D0E064917F018FEFE81AF80A38
:10355000662361F0D801ED91FC910190F081E02D9E
:10356000C8010995C80FD91FF701EDCFCE01DF9132
:10357000CF911F910F91FF90EF900895DC01ED9195
:10358000FC910190F081E02D09940F931F93CF934C
:10359000DF93EC016DE00E94BE1A8C016AE0CE015F
:1035A0000E94BE1A800F911FDF91CF911F910F9142
:1035B00008950F931F93CF93DF93EC010E94991A04
:1035C0008C01CE010E94C51A800F911FDF91CF910F
:1035D0001F910F9108958F929F92AF92BF92CF92B9
:1035E000DF92EF92FF920F931F93CF93DF93CDB7AC
:1035F000DEB7A1970FB6F894DEBF0FBECDBF7C013A
:10360000C42EE52FCB01D22E19A221E02D1510F0EA
:103610002AE0D22E8E010F5D1F4F8D2C912CA12CF4
:10362000B12C6C2D7E2FA50194010E94601E8C2D63
:10363000D29E80191124015011098A3014F4805D42
:1036400001C0895CF80180832115310541055105D0
:1036500021F0C22EE32FCA01E4CFB801C7010E94B6
:10366000831AA1960FB6F894DEBF0FBECDBFDF91CF
:10367000CF911F910F91FF90EF90DF90CF90BF906F
:10368000AF909F908F900895CF92DF92EF92FF922C
:103690000F931F93CF93DF93EC016A017B012115F8
:1036A000310579F4E881F9810190F081E02D642FF2
:1036B000DF91CF911F910F91FF90EF90DF90CF900E
:1036C00009942A303105E9F477FF1AC06DE20E94AF
:1036D000BE1A8C0144275527BA014C195D096E09A1
:1036E0007F092AE0CE010E94EB1A800F911FDF9123
:1036F000CF911F910F91FF90EF90DF90CF900895A1
:103700002AE0B701A601CE01DF91CF911F910F9161
:10371000FF90EF90DF90CF900C94EB1A9A01AB01E1
:10372000662757FD6095762F0C94441B0F931F93CB
:10373000CF93DF93EC019A01AB01662757FD6095AB
:10374000762F0E94441B8C01CE010E94C51A800F67
:10375000911FDF91CF911F910F9108952115310590
:1037600041F4DC01ED91FC910190F081E02D642F9A
:1037700009940C94EB1A0F931F93CF93DF93EC01F2
:103780009A01462F50E060E070E00E94AE1B8C0171
:10379000CE010E94C51A800F911FDF91CF911F911A
:1037A0000F9108959A01AB0160E070E00C94AE1B9C
:1037B0000F931F93CF93DF93EC019A01AB0160E06D
:1037C00070E00E94AE1B8C01CE010E94C51A800FD2
:1037D000911FDF91CF911F910F9108950F931F9328
:1037E000CF93DF93EC010E94AE1B8C01CE010E94AF
:1037F000C51A800F911FDF91CF911F910F910895EE
:103800005058BB27AA270ED04DC13ED130F043D12E
:1038100020F031F49F3F11F41EF433C10EF4E09513
:10382000E7FB29C1E92F4FD180F3BA17620773076D
:103830008407950718F071F49EF567C10EF4E095C2
:103840000B2EBA2FA02D0B01B90190010C01CA015A
:10385000A0011124FF27591B99F0593F50F4503E05
:1038600068F11A16F040A22F232F342F4427585FF7
:10387000F3CF469537952795A795F0405395C9F70F
:103880007EF41F16BA0B620B730B840BBAF09150C7
:10389000A1F0FF0FBB1F661F771F881FC2F70EC066
:1038A000BA0F621F731F841F48F487957795679539
:1038B000B795F7959E3F08F0B3CF9395880F08F022
:1038C0009927EE0F9795879508950CD0EBC0E3D01C
:1038D00040F0DAD030F021F45F3F19F0CCC0511144
:1038E00015C1CFC0F0D098F39923C9F35523B1F394
:1038F000951B550BBB27AA2762177307840738F05F
:103900009F5F5F4F220F331F441FAA1FA9F333D0BD
:103910000E2E3AF0E0E830D091505040E695001C71
:10392000CAF729D0FE2F27D0660F771F881FBB1F2D
:10393000261737074807AB07B0E809F0BB0B802D07
:10394000BF01FF2793585F4F2AF09E3F510568F053
:1039500092C0DCC05F3FECF3983EDCF38695779530
:103960006795B795F7959F5FC9F7880F911D969555
:10397000879597F90895E1E0660F771F881FBB1FB1
:10398000621773078407BA0720F0621B730B840B5E
:10399000BA0BEE1F88F7E095089504D06894B11132
:1039A000B5C0089598D088F09F5790F0B92F992707
:1039B000B751A0F0D1F0660F771F881F991F1AF03A
:1039C000BA95C9F712C0B13081F09FD0B1E0089527
:1039D0009CC0672F782F8827B85F39F0B93FCCF3A8
:1039E000869577956795B395D9F73EF49095809530
:1039F000709561957F4F8F4F9F4F0895E89409C050
:103A000097FB3EF490958095709561957F4F8F4F11
:103A10009F4F9923A9F0F92F96E9BB279395F69527
:103A2000879577956795B795F111F8CFFAF4BB0FA5
:103A300011F460FF1BC06F5F7F4F8F4F9F4F16C009
:103A4000882311F096E911C0772321F09EE8872F93
:103A5000762F05C0662371F096E8862F70E060E04F
:103A60002AF09A95660F771F881FDAF7880F9695C8
:103A7000879597F9089597F99F6780E870E060E06F
:103A800008959FEF80EC089500240A9416161706F7
:103A900018060906089500240A941216130614063F
:103AA00005060895092E0394000C11F4882352F0A2
:103AB000BB0F40F4BF2B11F460FF04C06F5F7F4F5A
:103AC0008F4F9F4F089557FD9058440F551F59F041
:103AD0005F3F71F04795880F97FB991F61F09F3FFB
:103AE00079F087950895121613061406551FF2CF24
:103AF0004695F1DF08C0161617061806991FF1CF74
:103B000086957105610508940895E894BB2766279A
:103B10007727CB0197F908950BD0C4CFB5DF28F0F4
:103B2000BADF18F0952309F0A6CFABCF1124EECF62
:103B3000CADFA0F3959FD1F3950F50E0551F629F08
:103B4000F001729FBB27F00DB11D639FAA27F00DF6
:103B5000B11DAA1F649F6627B00DA11D661F829F1D
:103B60002227B00DA11D621F739FB00DA11D621F02
:103B7000839FA00D611D221F749F3327A00D611D1F
:103B8000231F849F600D211D822F762F6A2F112401
:103B90009F5750408AF0E1F088234AF0EE0FFF1F54
:103BA000BB1F661F771F881F91505040A9F79E3F8B
:103BB000510570F060CFAACF5F3FECF3983EDCF385
:103BC000869577956795B795F795E7959F5FC1F7C8
:103BD000FE2B880F911D9695879597F908957BDFA9
:103BE000E0F09E37D8F09639B8F49E3848F4672F45
:103BF000782F8827985FF9CF869577956795939565
:103C00009539D0F3B62FB1706B0F711D811D20F463
:103C1000879577956795939502C01CC077CF8823C9
:103C200071F4772321F09850872B762F07C06623F5
:103C300011F499270DC09051862B70E060E02AF0B6
:103C40009A95660F771F881FDAF7880F96958795E4
:103C500097F908959F3F31F0915020F4879577951B
:103C60006795B795880F911D9695879597F9089553
:103C7000AA1BBB1B51E107C0AA1FBB1FA617B70792
:103C800010F0A61BB70B881F991F5A95A9F78095AE
:103C90009095BC01CD01089597FB072E16F4009472
:103CA00007D077FD09D00E94381E07FC05D03EF4EE
:103CB000909581959F4F0895709561957F4F0895D8
:103CC000A1E21A2EAA1BBB1BFD010DC0AA1FBB1F20
:103CD000EE1FFF1FA217B307E407F50720F0A21B92
:103CE000B30BE40BF50B661F771F881F991F1A94FF
:103CF00069F760957095809590959B01AC01BD0129
:103D0000CF010895EE0FFF1F0590F491E02D099467
:103D10009111DBC2803219F089508550D0F7089597
:103D2000FB01DC0101900D920020E1F70895AEE067
:103D3000B0E0EDE9FEE10C94DA2185E08C838B891B
:103D40009C899A838983AE01495E5F4F6D897E8924
:103D5000CE0101960E942E202E96E2E00C94F621D0
:103D600020FD09C0FC0123FD05C022FF02C07383B2
:103D7000628351834083089544FD10C046FD10C006
:103D8000DB01FC01AA0FBB1FEE1FFF1F1094D1F730
:103D90006A0F7B1F8E1F9F1F31E003C033E001C0FD
:103DA00034E0660F771F881F991F3150D1F7620FDB
:103DB000711D811D911D08950F931F93CF93DF9364
:103DC0008C01C8010E947321EC0197FD08C00E947C
:103DD000881E892BB1F7B801CE010E94B121CE0116
:103DE000DF91CF911F910F9108958F929F92AF9283
:103DF000CF92DF92EF92FF920F931F93CF93DF93B7
:103E0000EC01A62E4A01022F0E947321AC01552716
:103E10004B32510521F04D32510551F40068AA94FE
:103E200011F480E067C0CE010E94732197FDF9CFA5
:103E3000102F1D7F302F307301F58033F1F4FF24F4
:103E4000FA94FA0C09F442C0CE010E94732197FD46
:103E50003DC0382F3F7D383551F41264AA94AA949E
:103E6000A9F1CE010E94732197FF07C02FC006FF62
:103E700002C0126001C01261AF2CC12CD12C76019E
:103E800020ED280F283080F014FF04C0BE010E94EE
:103E9000B12119C02A3040F016FFF8CF2F7D3FEE38
:103EA000320F363098F72750412FC701B6010E94D4
:103EB000BC1E6B017C011260AA9459F0CE010E94D5
:103EC000732197FFDDCF11FD04C0ABCFC12CD12CE6
:103ED000760117FF08C0F094E094D094C094C11C00
:103EE000D11CE11CF11C212FB701A601C4010E94C5
:103EF000B01E81E0DF91CF911F910F91FF90EF9065
:103F0000DF90CF90AF909F908F900895A1E2B0E0A6
:103F1000ECE8FFE10C94CF215C017A018E010F5F88
:103F20001F4F680180E2D8011D928A95E9F7F501DB
:103F3000738040E050E0812CB0E0912C81E090E073
:103F4000F90173FCA59173FEA1918F017A2F9F0156
:103F5000A11103C080E090E07DC0AE3519F4411599
:103F6000510559F1E92DF0E0E417F5073CF4AD35C2
:103F700069F1AD3219F4BB2319F103C0B11101C0CD
:103F80008A2EE72FE695E695E69586010E0F111D20
:103F9000F801A72FA7708C0102C0000F111FAA956E
:103FA000E2F7D801B081BA2BB083781559F07815B3
:103FB00010F47F5FE6CF7150E4CF9924939403C04F
:103FC000B1E001C0B0E04F5F5F4FBACFBB2319F043
:103FD0008E8180628E83911003C09924939415C0C2
:103FE000F601CE018196208120952193E817F907EB
:103FF000D1F7F3CFE114F10429F0D7018C93F70145
:1040000031967F01615001F1912CC50169A30E9495
:10401000732169A197FD16C0282F26952695269510
:10402000F601E20FF11D208130E0AC014770552709
:1040300002C0359527954A95E2F720FDDBCFB50103
:104040000E94B121911086CFE114F10411F0D70143
:104050001C92C801A196EDE00C94EB214F925F9267
:104060007F928F929F92AF92BF92CF92DF92EF9208
:10407000FF920F931F93CF93DF931F92CDB7DEB7BD
:104080008C012B017A01FC0117821682A12CF80108
:10409000D380F201D3FC8591D3FE8191382F2F017B
:1040A000882309F4FCC090E039830E94881E39817E
:1040B000892B21F0C8010E94DC1EE9CF353241F482
:1040C000F201D3FC3591D3FE31912F01353269F4E1
:1040D000C80139830E947321398197FDDEC03817EA
:1040E000B1F2B8010E94B121DAC03A3241F4D3FCF6
:1040F0003591D3FE31912F01BB24B39401C0B12C73
:10410000712C20ED230F2A3090F4FB2DF260BF2E8E
:10411000672D70E080E090E040E20E94BC1E762EA9
:10412000F201D3FC3591D3FE31912F01EACFB1FEDC
:1041300003C0711003C0B3C077247A94383619F0E5
:104140003C3661F014C0F201D3FC3591D3FE3191BD
:104150002F01383661F4FB2DF860BF2E8B2D846063
:10416000B82EF201D3FC3591D3FE31912F013323C8
:1041700009F495C0632F70E085EF94E039830E94C5
:1041800068213981892B09F48AC0B0FC07C0F70186
:10419000C080D180C70102967C0102C0C12CD12C05
:1041A0003E3651F4F8014681578160E070E02B2DD6
:1041B000C6010E94B01E6BCF3336A1F4B1FC02C021
:1041C00077247394C8010E94732197FD66C0C114BF
:1041D000D10429F0F6018083C60101966C017A941E
:1041E00089F757C03B3559F49201A601672DC801E4
:1041F0000E94861F2C01009709F04BC045C0C801E2
:1042000039830E94DC1E398197FD47C03F3669F132
:1042100028F4343631F1393679F12BC0333769F06F
:104220003537F9F026C0C114D10429F0F601808297
:10423000C60101966C017A9471F0C8010E94732145
:104240004C0197FD08C00E94881E892B61F3B801BC
:10425000C4010E94B121C114D104D9F0F601108229
:1042600018C0FB2DF062BF2E07C08B2D8061B82EC9
:1042700003C09B2D9064B92E2B2DA601672DC8017C
:104280000E94F51E811105C0F8018381807329F415
:1042900006C0B0FCFCCEA394FACEAA2019F08A2D59
:1042A00090E002C08FEF9FEF0F90DF91CF911F91B1
:1042B0000F91FF90EF90DF90CF90BF90AF909F90C5
:1042C0008F907F905F904F90089599278827089549
:1042D000FC010590061621F00020D9F7C0010895D1
:1042E0003197CF010895CF93DF93EC012B8120FF0D
:1042F00033C026FF0AC02F7B2B838E819F810196BE
:104300009F838E838A8190E029C022FF0FC0E881BD
:10431000F9818081992787FD9095009719F4206293
:104320002B831AC03196F983E8830EC0EA85FB859A
:10433000099597FF09C02B81019611F480E101C016
:1043400080E2822B8B8308C02E813F812F5F3F4FFD
:104350003F832E83992702C08FEF9FEFDF91CF918C
:104360000895FB01238120FF12C026FD10C08F3F5E
:104370003FEF930761F082832F7D206423832681A2
:1043800037812150310937832683992708958FEF8C
:104390009FEF08952F923F924F925F926F927F927C
:1043A0008F929F92AF92BF92CF92DF92EF92FF9245
:1043B0000F931F93CF93DF93CDB7DEB7CA1BDB0BF1
:1043C0000FB6F894DEBF0FBECDBF09942A88398896
:1043D00048885F846E847D848C849B84AA84B9849D
:1043E000C884DF80EE80FD800C811B81AA81B981A9
:1043F000CE0FD11D0FB6F894DEBF0FBECDBFED01BD
:064400000895F894FFCFBF
:10440600010000EB03800030313233343536373863
:10441600394142434445463A3744354544303038BD
:10442600430A003A3744374544303038410A003AA7
:104436003744334544303038450A003A374144451D
:1044460044303042340A003A374242454430304123
:10445600360A003A3742444544303041340A003A7D
:104466003730313032303034420A003A3744424530
:1044760044303038360A003A3742434544303041FA
:10448600350A003A3735303130303045450A002498
:1044960025782C256C78000000000015061B060008
:1044A60000000022063006000000003A0642060020
:1044B600000000210EF40D9A0DA20DB50DC40D00DD
:1044C600000000DC125B1A1A12DF11001232120011
:1044D600000000CE185B1A7A18A3188A18C31800B1
:00000001FF
