:100000000C94B8000C943A110C9467110C94580F8E
:100010000C947C0F0C94A00F0C94320D0C94E00007
:100020000C94E0000C94E0000C94E0000C94E000D0
:100030000C94E0000C94E0000C94E0000C94E000C0
:100040000C94B1110C94E0000C94ED140C94301548
:100050000C94E0000C94E0000C94E0000C94E000A0
:100060000C94B80B0C94E00000C2010001000500E4
:100070000500030000E1000001000F000F000D006B
:1000800000960000020019001A001700127A000002
:100090000700200021001D00807000000B002300DD
:1000A00023002000004B000014003500370034000E
:1000B000403800001E004B004B0048008025000027
:1000C0003200720072007000C01200006E00E90081
:1000D000E900E60060090000E500D801D801D5017B
:1000E000B0040000D301B403B403B103580200000C
:1000F000B4036707670762072C0100006707DD0E7E
:10010000DD0EDA0E00000007000201000003040605
:1001100000000000000000000102040810204080E0
:100120000102040810200102040810200404040441
:100130000404040402020202020203030303030391
:100140000000000023002600290000000000250018
:1001500028002B0000000000240027002A00636410
:10016000696E6F70737578585B00C80AE50DE61507
:1001700011241FBECFEFD8E0DEBFCDBF14E0A0E05A
:10018000B1E0E6E4FBE302C005900D92AC33B107A9
:10019000D9F726E0ACE3B4E001C01D92A630B20767
:1001A000E1F711E0C0E7D1E004C02297FE010E9410
:1001B0002B1ACA36D107C9F70E944A140C94A11D04
:1001C0000C94000008950E9438030C946007E0919D
:1001D0000406F091050680E090E0309749F0029621
:1001E00020813181820F931F0280F381E02DF5CFB2
:1001F00008950F931F93CF93DF9300D0CDB7DEB751
:1002000080910206909103068E010F5F1F4F0097A9
:1002100029F4065016401A8309830AC0081B190BDB
:100220001A8309830E94E700800F911F9A838983B4
:1002300089819A810F900F90DF91CF911F910F913B
:100240000895623039F0633041F0613049F467E07D
:1002500071E008C066E171E005C068E271E002C0CB
:100260006CE371E088E595E00C949716FC0120A101
:10027000273009F070C063A1662319F00E942101A4
:100280006AC0FC0121A130E0322F222742A1242B99
:10029000EC57FF4FA081A25040E050E0BA01A430DB
:1002A00058F0762F652F542F4427FC01EA0FF11DDB
:1002B000E0A14E2BA150F3CF2D3EF2ED3F0781F18F
:1002C000C0F42D3EFBEB3F07C9F140F42D3E3D4A03
:1002D00009F041C0FC01E057FF4F29C02D3EECEB77
:1002E0003E0781F12D3E3D4BB1F5FC01EE56FF4F2F
:1002F0001EC02D3EE5ED3E07E9F038F42D3E334DAE
:1003000051F5FC01EA57FF4F12C02D3EF7ED3F07B4
:1003100059F02D3E3B4DF9F4FC01E257FF4F07C069
:10032000FC01E857FF4F03C0FC01E657FF4F518324
:1003300040830FC0FC01E457FF4FF9CFFC01EC569E
:10034000FF4FF5CFFC01EA56FF4F40835183628394
:10035000738381E0089580E00895FC01EC57FF4F1E
:10036000508120E030E040E0251740F4FC01E20F2E
:10037000F31F60A1460F2F5F3F4FF6CF81E0453559
:1003800009F080E0089580ED860F8A3040F08FEB11
:10039000860F863018F489EC860F08958FEF089544
:1003A000FF920F931F93CF93DF93EC018E8D9F8D60
:1003B00081309105B1F08230910549F1892B09F026
:1003C00056C06A3309F055C081E090E09F8F8E8F50
:1003D000FE01EC57FF4F1082CB57DF4F8FEF888322
:1003E00048C0CE010E94C3018F3F09F440C0FE0106
:1003F000EC57FF4F908121E0290F2083FE01E90F88
:10040000F11D80A382E090E09F8F8E8F32C08E011D
:100410000C571F4FD801FC90B3E6BF1540F1CE0139
:100420006A3061F40E94AD01882321F0CE010E9460
:10043000360101C080E01F8E1E8E1CC00E94C301C9
:100440008F3FA9F0FE01EB57FF4F20812F3F69F04E
:1004500091E09F0DD8019C93CF0DD11DB0E12B9F52
:1004600090011124282B28A38FEF808302C01F8EB8
:100470001E8E80E0DF91CF911F910F91FF90089524
:10048000BF92CF92DF92EF92FF920F931F93CF9381
:10049000DF938C01EC012296CE010E945E0ECE010C
:1004A0000E943C0E0E94FB116B017C010E94FB111B
:1004B0006C197D098E099F09B12C62337105810584
:1004C000910598F4CE010E94240E892B29F0CE01CB
:1004D0000E94E90D97FF03C0B11007C0E7CF682F56
:1004E000C8010E94D001B82EEDCF88E595E00E94AA
:1004F000A4148B2DDF91CF911F910F91FF90EF905E
:10050000DF90CF90BF900895DF92EF92FF920F930C
:100510001F93CF93DF938C01EB01B3E0DB2E7C01C3
:1005200082E0E80EF11C2097A1F0DE010D90002082
:10053000E9F7AD01415051094C1B5D0BD8011296F2
:10054000ED91FC9113970280F381E02DBE01C7016C
:100550000995C8010E94400281110AC0DA9419F776
:1005600065E571E088E595E00E94971680E001C09E
:1005700081E0DF91CF911F910F91FF90EF90DF907D
:100580000895CF93DF93EA010E948402882319F033
:100590008881998102C08FEF9FEFDF91CF910895FD
:1005A000AC0144575F4F6FE571E00C94C102AC01A0
:1005B00046575F4F6BE671E00C94C102AC014A579D
:1005C0005F4F67E771E00C94C102AC0148575F4F81
:1005D00063E871E00C94C102AC0140575F4F6FE8D3
:1005E00071E00C94C102AC014C565F4F6BE971E0B5
:1005F0000C94C102CF93DF93EA010E948402882306
:1006000029F0688179818A819B8104C06FEF7FEF37
:1006100080E090E0DF91CF910895AC014A565F4FA2
:100620006FEB71E00C94FA022FEF33E0FC012193A1
:100630003193CF010C94131127E034E0FC01318396
:1006400020834C960C941403CF93DF93EC010E940B
:100650001403CE01DF91CF910C945914CF93DF9303
:10066000EC010E941C03CE01DF91CF910C94591430
:10067000CF93DF9380913C0490913D04892B09F046
:10068000C0C040E05BE460E070E088E595E00E9477
:100690006B1562EB71E088E595E00E9497166BECB4
:1006A00071E088E595E00E9497166CED71E088E5B1
:1006B00095E00E947A160E94F9004AE050E0BC01E1
:1006C00088E595E00E94541761E08BE00E94ED12EE
:1006D00061E08BE00E94B41261E08CE00E94ED12B8
:1006E00061E08CE00E94B41261E08EE00E94ED12A5
:1006F00061E08EE00E94B41261E08FE00E94ED1292
:1007000061E08FE00E94B41261E085E00E94ED128A
:1007100061E085E00E94B41261E086E00E94ED1283
:1007200061E086E00E94B41261E088E00E94ED1270
:1007300061E088E00E94B41260E08DE00E94ED125A
:1007400061E08DE00E94B4128BEC91E00E9457149E
:10075000EC0127E034E0FC0121933193CF010E94AA
:100760007A0D1F821886198621E02A872B871C861E
:100770001D861E861F86198A188A86E990E09B8B43
:100780008A8B1D8A1C8A1E8A1F8A288F1A8E198EB0
:100790001B8E8FEF93E09D8F8C8F20E049E06AE005
:1007A000CE014E960E9412101BAE1AAEFE01E0560C
:1007B000FF4F108231968FEF808331968FEF9FEF3E
:1007C0009183808334969183808332969183808352
:1007D000329691838083329691838083329691837F
:1007E000808332969183808332964FEF5FEF60E093
:1007F00070E04083518362837383D0933D04C09340
:100800003C0480913C0490913D04DF91CF91089588
:10081000CF930E943803C1E0FC01C7830E943803D4
:10082000FC01C0870E943803FC01138ECF9108950C
:100830000F931F93CF93DF93EC018C010E5F1F4F3B
:1008400061E0C8010E94A80D811109C060EF71E04C
:1008500088E595E00E94971681E08B8F1DC062E0CD
:1008600072E088E595E00E94971642E050E068E06B
:1008700074E080E00E941A11488D63E070E0C801C6
:100880000E94310968EE73E080E090E00E942A1235
:10089000C8010E9457091F82DF91CF911F910F91CC
:1008A0000895CF93DF93EC018C8980FF05C060E051
:1008B0008BE00E94ED1204C061E08BE00E94ED121B
:1008C0008C8981FF05C060E08CE00E94ED1204C0BD
:1008D00061E08CE00E94ED128C8982FF05C060E02F
:1008E0008EE00E94ED1204C061E08EE00E94ED12E5
:1008F0008C8983FF05C060E08FE00E94ED1204C088
:1009000061E08FE00E94ED128C8984FF05C060E0F9
:1009100085E00E94ED1204C061E085E00E94ED12C6
:100920008C8985FF05C060E086E00E94ED1204C05E
:1009300061E086E00E94ED128C8986FF05C060E0D0
:1009400088E00E94ED1204C061E088E00E94ED1290
:100950008C899D8990FF06C061E082E095E00E944D
:10096000460D05C060E082E095E00E94460D2C89AE
:100970003D89CE01029631FF05C061E0DF91CF9144
:100980000C94600D60E0DF91CF910C94600D0F939B
:100990001F93CF93DF9300D000D000D0CDB7DEB748
:1009A0008C01FC0181858D3008F08BC091E0980F9F
:1009B0009187E80FF11DEA54FF4F6083611183C0F6
:1009C000CE0101969F938F9304969F938F938EE110
:1009D00092E09F938F93C8018A549F4F9F938F9368
:1009E0000E94371A0FB6F894DEBF0FBECDBF029734
:1009F00009F067C08D819E8181309105D9F108F1A0
:100A00008230910509F44AC0039709F05AC06FE596
:100A100072E088E595E00E947A1649815A816B81DF
:100A20007C812AE030E088E595E00E949517898175
:100A30009A81AB81BC81F80184879587A687B787A7
:100A400040C066E272E088E595E00E947A1649812E
:100A50005A816B817C8120E130E088E595E00E943D
:100A6000951789819A81F801958B848BC8010E9422
:100A7000510427C067E372E088E595E00E947A168A
:100A800049815A816B817C812AE030E088E595E0DC
:100A90000E9495178981F801828713C06BE472E088
:100AA00088E595E00E947A1649815A816B817C81A4
:100AB0002AE030E088E595E00E9495178981F801E9
:100AC0008387F801118626960FB6F894DEBF0FBE15
:100AD000CDBFDF91CF911F910F910895FC018789C0
:100AE00091E0980F9C3010F4978B01C0178A97897A
:100AF0002689921305C09F5F968B9C3008F0168A5A
:100B00009F0146E1849F200D311D1124C9018D53A1
:100B10009F4F0895FC0186899789891789F091E094
:100B2000980F9C3010F4968B01C0168A9F0146E105
:100B3000849F200D311D1124C9018D539F4F0895AD
:100B400080E090E0089588EC80937C0080917A00AA
:100B5000806880937A0064E170E080E090E00E9419
:100B60002A1280917A00806480937A0080917A00C2
:100B700086FDFCCF609178007091790080E090E074
:100B80000E94A5182EEA37E242EA53E40E94A71712
:100B900026EF38E24CE95FE30E940C180E94961998
:100BA0000E947418862F0895CF92DF92EF92FF92E1
:100BB0000F931F93CF93DF938C010E946E05EC017E
:100BC00068018CE1C80ED11C7801EEE1EE0EF11C3B
:100BD00040E05BE460E070E0C7010E944210C601A3
:100BE0000E94D0029B878A87C6010E94D7029D87F8
:100BF0008C87C6010E94DE029F878E87C6010E94F5
:100C0000E502998B888BC6010E94EC029B8B8A8B34
:100C1000C6010E94F30299878887C6010E940D03CE
:100C20006C837D838E839F83F8014485558566851B
:100C30007785488359836A837B83C8010E94A30513
:100C4000992787FD90959D8B8C8BC7010E94E4109E
:100C500064E772E088E595E00E947A1668857985F8
:100C60004AE050E088E595E00E947F1762E872E074
:100C700088E595E00E947A164C815D816E817F81C6
:100C80002AE030E088E595E00E9495176EE872E072
:100C900088E595E00E947A166A857B854AE050E0F7
:100CA00088E595E00E947F176EE972E088E595E09F
:100CB0000E947A166C857D854AE050E088E595E0D3
:100CC0000E947F176EEA72E088E595E00E947A162E
:100CD0006E857F854AE050E088E595E00E947F17A9
:100CE00061EC72E088E595E00E947A16688979895E
:100CF0004AE050E088E595E00E947F1767ED72E0DA
:100D000088E595E00E947A166A897B894AE050E07E
:100D100088E595E00E947F1764EE72E088E595E033
:100D20000E947A166C897D894AE050E088E595E05A
:100D3000DF91CF911F910F91FF90EF90DF90CF90B7
:100D40000C945417AF92BF92CF92DF92EF92FF9222
:100D50000F931F93CF93DF938C01EC0122966623B0
:100D600009F458C064EF72E088E595E00E947A16B5
:100D7000F801628973894AE050E088E595E00E94B5
:100D800079176AE273E088E595E00E949716CE0134
:100D90000E94CF0D0E9479186B017C016EE273E016
:100DA00088E595E00E947A164AE050E0B60188E5B1
:100DB00095E00E9479176BE273E088E595E00E9468
:100DC000971688E595E00E94A41468EE73E080E031
:100DD00090E00E942A12F80182899389C816D906E8
:100DE000B0F66CE373E088E595E00E949716F80191
:100DF000848995899D7F958B848BC801DF91CF91E4
:100E00001F910F91FF90EF90DF90CF90BF90AF9028
:100E10000C9451046BE473E088E595E00E9497160A
:100E2000F801848995899260958B848BC8010E9412
:100E3000510468E573E088E595E00E947A164AE07F
:100E400050E06AEF70E088E595E00E944C176AE296
:100E500073E088E595E00E949716CE010E94CF0DC1
:100E60000E9479186B017C018B016EE273E088E5CA
:100E700095E00E947A164AE050E0B60188E595E0D8
:100E80000E9479176BE273E088E595E00E9497165F
:100E900088E595E00E94A41468EE73E080E090E09D
:100EA0000E942A120A3F1105C0F2DF91CF911F91D3
:100EB0000F91FF90EF90DF90CF90BF90AF9008958B
:100EC000EC0161E00E94A20668E873E180E090E036
:100ED0000E942A12CE010E9418048E010E5F1F4F3D
:100EE0008F81811104C09885992309F47EC01886EA
:100EF0001A8E198E882329F0C8010E9457091B8E6B
:100F00001F82888D2CE3829FC00111244C855D8552
:100F10006E857F85480F591F611D711D4C875D8748
:100F20006E877F87888999890196998B888B62EB78
:100F300071E088E595E00E9497168B8D882339F043
:100F40006EE873E088E595E00E947A1606C062E9D3
:100F500073E088E595E00E947A1666E973E088E51B
:100F600095E00E947A1663EA73E088E595E00E94B6
:100F70007A16688979894AE050E088E595E00E9410
:100F80007F176B8570E0888999890E94DF19892B0A
:100F900049F46DEA73E088E595E00E949716CE016A
:100FA0000E94D4056A8570E0888999890E94DF19BA
:100FB000892BE1F560E0CE010E94A20667E370E0B4
:100FC0008EE394E00E948A0A64E278E08EE394E083
:100FD0000E94BE0A60E578E08EE394E00E94C30AB6
:100FE00061E0CE010E94A20621C0298D3A8D2C5FBE
:100FF0003F4F3A8F298F2C333105C0F08B8D8823DA
:1010000019F081E088876CCF888D42E4849FC0010D
:1010100011248217930750F463EC73E088E595E0A0
:101020000E94971681E08B8F88875ACF88E595E0DC
:101030000E94A41420E030E040E050E068E070E05E
:10104000C8010E94E50C4CCF0F931F93CF93DF9301
:101050001F92CDB7DEB78C016EED73E088E595E0A9
:101060000E947A164AE050E0B80188E595E00E94B7
:1010700054178EE394E00E94A709892B59F08EE360
:1010800094E00E94AF0989830E94380369810E941D
:10109000C704EFCF0F90DF91CF911F910F9108956B
:1010A0000F931F93CF93DF93CDB7DEB766970FB63D
:1010B000F894DEBF0FBECDBF0E9438030E948A05A0
:1010C0008C01009741F4FE01319686E1DF011D920B
:1010D0008A95E9F78F016BEE73E088E595E00E9451
:1010E0007A16F80140815181628173812AE030E0F3
:1010F00088E595E00E94951746E150E0B8018EE33F
:1011000094E00E94010A66960FB6F894DEBF0FBE07
:10111000CDBFDF91CF911F910F910895DC01ED912B
:10112000FC910190F081E02D09948EE394E00E94FF
:101130006D0A81E00895CF92DF92EF92FF920F93B4
:101140001F93CF93DF931F92CDB7DEB7062FF72EF5
:10115000142F68E670E08EE394E029830E94A60ACB
:101160002981622F70E08EE394E00E948E088EE366
:1011700094E00E94BB0A412F68E68EE394E00E944F
:10118000990AE02EC02EDF2C8C2D8E19811740F489
:101190008EE394E00E94AF09F60181936F01F4CFD2
:1011A0000F90DF91CF911F910F91FF90EF90DF9003
:1011B000CF900895CF93DF931F92CDB7DEB7262F40
:1011C00041E0BE016F5F7F4F0E949B0889810F90B5
:1011D000DF91CF910895EF92FF920F931F93CF93DA
:1011E000DF9300D0CDB7DEB7062F122F68E670E090
:1011F0008EE394E049835A830E94A60A602F70E030
:101200008EE394E00E948E084981042FE42E5A81D7
:10121000F52E8E2D801B811740F4F70161917F011F
:101220008EE394E00E942E0AF4CF8EE394E00F90B8
:101230000F90DF91CF911F910F91FF90EF900C9441
:10124000BB0ACF93DF931F92CDB7DEB7498321E06E
:10125000AE014F5F5F4F0E94EB080F90DF91CF917F
:1012600008951F93CF93DF93EC01142F462F60E175
:101270000E942109412F61E1CE010E94210961E014
:10128000CE010E94DA08482F4F7B426061E0CE0118
:101290000E9421096FE0CE010E94DA08482F4268BF
:1012A0006FE0CE01DF91CF911F910C942109CF9374
:1012B000DF93EC0161E00E94DA08482F4F7B61E088
:1012C000CE01DF91CF910C94210948E560E00C94A8
:1012D00021091F93CF93DF93EC0160E00E94DA08AD
:1012E000182F40E061E0CE010E94210981E0111138
:1012F00001C080E0DF91CF911F910895CF93DF93DC
:10130000EC016FE00E94DA08482F48636FE0CE01DD
:10131000DF91CF910C94210940E062E00C94210907
:101320000F931F93CF93DF93EC018B0160E00E943A
:10133000DA08482F012B11F44F7701C0406860E0B4
:10134000CE01DF91CF911F910F910C9421098091D3
:10135000720490E020917304821B910908952091FA
:10136000730480917204281750F4E22FF0E0EC58D7
:10137000FB4F808190E02F5F2093730408958FEFDF
:101380009FEF0895E091730480917204E81730F4A0
:10139000F0E0EC58FB4F808190E008958FEF9FEFD5
:1013A00008950895E0914A04F0914B043097E1F0DC
:1013B00030917304209172043217B0F040E0242F72
:1013C00030E02617370754F4DC01A20FB31F5C91FD
:1013D000D901AC58BB4F5C934F5FF1CF10927304AF
:1013E00060937204CB0109940895E0914C04F0914C
:1013F0004D04309729F01092500410924F04099434
:101400000895CF92DF92EF92FF920F931F93CF93A5
:10141000DF937C01CB018A0120914E04222389F0C5
:10142000EB016B01C40ED51ECC15DD0569F0699189
:10143000D701ED91FC910190F081E02DC701099554
:10144000F3CF642F0E94850BC801DF91CF911F91CC
:101450000F91FF90EF90DF90CF900895CF93DF939F
:101460001F92CDB7DEB7698320914E042223D1F0BD
:1014700020914F04203240F021E030E0FC01338322
:10148000228380E090E015C080915004E82FF0E0C6
:10149000EF5AFB4F998190838F5F80935004809324
:1014A0004F0405C061E0CE0101960E94850B81E0EA
:1014B00090E00F90DF91CF910895FC01138212828A
:1014C00048EE53E060E070E04483558366837783A1
:1014D0008FE094E0918380830895109273041092BA
:1014E00072041092500410924F040C94CC0ACF93C3
:1014F000DF93EC01862F0E94EA0A85EF99E00E94B3
:10150000A30B82ED99E00E949E0BCE01DF91CF915B
:101510000C946D0A0C94770A862F413208F040E251
:1015200064E774E00E94EE0A1092730480937204E0
:10153000089521E00C948C0A81E080934E0460931E
:1015400071041092500410924F0408950C949C0A58
:101550000F93062F21E040914F0461E574E08091E4
:1015600071040E94320B1092500410924F0410929A
:101570004E040F91089561E00C94A80A70934B04F7
:1015800060934A04089570934D0460934C04089549
:101590008EE394E00C945D0A1092010581E0809343
:1015A000FF041092FE0461E082E10E94ED1261E00E
:1015B00083E10E94ED12E9EBF0E080818E7F808371
:1015C00080818D7F808380E28093B80085E4809362
:1015D000BC000895880F8093BA000895413208F046
:1015E0003FC0909101059111FCCF91E090930105CE
:1015F0002093FF042FEF209394041092D904240F1A
:101600002093D8049093000590910005880F892BB2
:10161000809300058091FE04813041F41092FE0415
:10162000809100058093BB0085EC01C085EE80931E
:10163000BC00809101058130E1F38091D9048417C9
:1016400010F44091D9042AED34E0FB01D9018A2F2E
:10165000821B841718F48D918193F9CF842F0895FC
:1016600080E008950F93413208F046C09091010543
:101670009111FCCF92E0909301050093FF049FEF3E
:10168000909394041092D9044093D804FB016AED1E
:1016900074E0DB019A2F961B941718F491919D9397
:1016A000F9CF1092000590910005880F892B809347
:1016B00000058091FE04813041F41092FE04809177
:1016C00000058093BB0085EC01C085EE8093BC00D3
:1016D000222321F0809101058230E1F3809194046E
:1016E0008F3F61F080919404803251F08091940496
:1016F000803341F483E007C081E005C080E003C08F
:1017000082E001C084E00F910895613298F4209145
:101710000105243089F46093B604FC0188EB94E061
:10172000DC012A2F281B261718F421912D93F9CFBD
:1017300080E0089581E0089582E008959093FB048D
:101740008093FA0408959093FD048093FC04089517
:1017500085ED8093BC008091BC0084FDFCCF10928D
:101760000105089585EC8093BC0010920105089551
:101770001F920F920FB60F9211242F933F934F9306
:101780005F936F937F938F939F93AF93BF93EF93E9
:10179000FF938091B900887F803609F49CC068F57A
:1017A000883209F45BC090F4803109F454C038F4F5
:1017B000882309F4F5C0883009F44DC0F5C088319C
:1017C00009F44CC0803209F45DC0EEC0803409F4E5
:1017D00068C048F4803309F455C0883309F0E4C088
:1017E00080939404A8C0803509F44FC0883509F46B
:1017F0005DC0883409F0D8C0D5C0883909F4C6C0A6
:10180000A8F4883709F467C038F4883609F463C04F
:10181000803709F460C0C8C0883809F4B7C080397F
:1018200009F45FC0803809F0BFC05BC0803B09F499
:1018300085C038F4803A09F466C0883A09F47EC05D
:10184000B3C0803C09F4A6C0883C09F4A3C0883B1F
:1018500009F489C0A9C08091000510C09091D904F5
:101860008091D804981770F5E091D90481E08E0F2B
:101870008093D904F0E0E652FB4F80818093BB0057
:1018800085EC85C0809394048DC0E091D90481E0FB
:101890008E0F8093D9048091BB00F0E0E652FB4F9D
:1018A00080839091D9048091D8046DC0E091D904CF
:1018B00081E08E0F8093D9048091BB00F0E0E65266
:1018C000FB4F80838091FF0481116CC081E0809385
:1018D000FE0484EA60C083E08093010510929504C1
:1018E000CFCF80919504803208F050C0E0919504EC
:1018F00081E08E0F809395048091BB00F0E0EA5662
:10190000FB4F8083BDCF80919504803230F4E0910D
:101910009504F0E0EA56FB4F10820E94A80B6091FC
:10192000950470E0E091FA04F091FB0486E994E0FC
:101930000995109295040E94B20B36C084E0809302
:1019400001051092B7041092B604E091FC04F091E6
:10195000FD0409958091B604811105C081E0809352
:10196000B6041092B804E091B70481E08E0F809322
:10197000B704F0E0E854FB4F80818093BB00909166
:10198000B7048091B604981708F47ACF85E880935D
:10199000BC000AC085EC8093BC001092010504C015
:1019A000109294040E94A80BFF91EF91BF91AF9108
:1019B0009F918F917F916F915F914F913F912F9167
:1019C0000F900FBE0F901F9018954115510529F4E7
:1019D000EAE7F0E080818F7780836A307105B1F0AB
:1019E00063FF02C088E201C088E06770682B88E16D
:1019F00090E00FB6F894A895809360000FBE6093B6
:101A00006000E0E6F0E0808180648083232BA1F415
:101A100083B7817F846083BFF89483B7816083BF7D
:101A200085B7806685BF8F7D85BF7894889583B79D
:101A30008E7F83BF78940EC083B7817F846083BF1D
:101A4000F89483B7816083BF7894889583B78E7F3D
:101A500083BF7894452B29F4EAE7F0E08081806821
:101A6000808308951F920F920FB60F9211248F93C7
:101A700088E10FB6F89480936000109260000FBE6A
:101A80008F910F900FBE0F901F901895CF93DF93FB
:101A9000EC018881882319F0662371F006C0662363
:101AA00039F061E084E00E94ED1281E08A8305C094
:101AB00060E084E00E94ED121A82DF91CF910895D8
:101AC000CF93DF93EC018881882319F0662371F0AE
:101AD00006C0662339F061E080E10E94ED1281E0EA
:101AE000898305C060E080E10E94ED121982DF91D8
:101AF000CF910895CF93DF93EC0118821C821B8253
:101B000019821A8261E080E10E94B41260E0CE0185
:101B10000E94600D61E084E00E94B41260E0CE019A
:101B20000E94460D61E081E10E94B41260E081E113
:101B30000E94ED1260E087E00E94B41260E083E052
:101B40000E94B41260E082E0DF91CF910C94B41255
:101B50001F93CF93DF93EC01162F0E94950862E04C
:101B6000CE010E94DA088F3FA9F0112319F0CE01AF
:101B70000E946509CE010E947E09CE010E948C0957
:101B8000CE010E94690961E070E0CE010E949009D7
:101B900081E001C080E0DF91CF911F91089585E140
:101BA0000E9494118430910514F480E090E0BC010F
:101BB000882777FD8095982F0E94A7182BE734E19E
:101BC0004EE450E40E943319089582E095E00C94AD
:101BD0007A0D2091490530914A0528173907B9F443
:101BE0009091070580910805981789F0E091070505
:101BF000F0E0E75FFA4F80812091070530E02F5F2A
:101C00003F4F2F7333272093070590E008958FEF00
:101C10009FEF08952091490530914A05281739070B
:101C200081F49091070580910805981751F0E09193
:101C30000705F0E0E75FFA4F8081992787FD9095CF
:101C400008958FEF9FEF08952091490530914A053F
:101C50002817390771F4809108052091070590E055
:101C6000805C9F4F821B910960E470E00E94F31931
:101C7000089580E090E008952091490530914A054B
:101C80002817390739F48FB7F89410920805109285
:101C900007058FBF0895DC015196ED91FC91529795
:101CA000208150968C91809582238083089520E036
:101CB00001972FEF8F3F9207D9F70895209149059B
:101CC00030914A052817390789F0FC01238D2E7FB2
:101CD000238F2FB7F8941092080510920705909360
:101CE0004A05809349052FBF81E0089580E008955B
:101CF000EF92FF920F931F93CF93DF93EC018B8DA5
:101D0000EE85FF859D8581FF04C08081892329F4AC
:101D100047C08081892309F043C08B899C890E9438
:101D2000570E08E010E0EE24E394F12C8D899E8993
:101D30000E94570EEE85FF8580819D85892311F0D5
:101D4000FE2803C08E2D8095F822EE0C015011095B
:101D50000115110559F78F89988D0E94570E8B8DAB
:101D600081FDF094809108052091070590E001968F
:101D70008F73992730E08217930779F0E091080577
:101D8000F0E0E75FFA4FF0828091080590E001965D
:101D90008F7399278093080503C08B8D81608B8F8B
:101DA000DF91CF911F910F91FF90EF9008956111F6
:101DB00002C00C944B0EDC015196ED91FC915297B0
:101DC000208150968C91282B20830895DF92EF92EA
:101DD000FF920F931F93CF93DF93EC01E62E898D33
:101DE0009A8D892B39F481E090E09B838A8380E08F
:101DF00090E04DC0DFB6F8946B8D66956170CE01B2
:101E00000E94D70E898D9A8D04960E94570E8B8D55
:101E100008E010E0FF24F39481FF19C08F2D8E217C
:101E200021F0CE010E944B0E04C061E0CE010E9461
:101E3000D70E898D9A8D0E94570EFF0C0150110903
:101E40000115110559F7CE010E944B0E19C08F2DB7
:101E50008E2129F061E0CE010E94D70E03C0CE0191
:101E60000E944B0E898D9A8D0E94570EFF0C0150D7
:101E700011090115110559F761E0CE010E94D70E35
:101E8000DFBE898D9A8D0E94570E81E090E0DF9130
:101E9000CF911F910F91FF90EF90DF900895809167
:101EA000490590914A05009711F00C94780E089519
:101EB0001F920F920FB60F9211242F933F934F93BF
:101EC0005F936F937F938F939F93AF93BF93EF93A2
:101ED000FF930E944F0FFF91EF91BF91AF919F91A0
:101EE0008F917F916F915F914F913F912F910F90C3
:101EF0000FBE0F901F9018951F920F920FB60F9262
:101F000011242F933F934F935F936F937F938F93FE
:101F10009F93AF93BF93EF93FF930E944F0FFF9157
:101F2000EF91BF91AF919F918F917F916F915F9151
:101F30004F913F912F910F900FBE0F901F901895CA
:101F40001F920F920FB60F9211242F933F934F932E
:101F50005F936F937F938F939F93AF93BF93EF9311
:101F6000FF930E944F0FFF91EF91BF91AF919F910F
:101F70008F917F916F915F914F913F912F910F9032
:101F80000FBE0F901F9018951F93CF93DF93EC0116
:101F9000162F61E0812F0E94B41261E0812F0E9410
:101FA000ED12812F90E0FC01E85EFE4FE491E88B9A
:101FB000FC01E45DFE4FE491F0E0EE0FFF1FE65BF5
:101FC000FE4F859194919A8B898BDF91CF911F91D0
:101FD00008951F93CF93DF93EC01162F60E0812FBC
:101FE0000E94B4128B8D81FD04C061E0812F0E949C
:101FF000ED121C87812F90E0FC01E85EFE4FE4911A
:10200000ED87FC01E45DFE4FE491F0E0EE0FFF1F71
:10201000E05CFE4F859194919F878E87DF91CF91F1
:102020001F910895FF920F931F93CF93DF93EC01BD
:10203000F62E522F1B821A8208EE13E020E030E0C9
:102040000C831D832E833F838FE194E099838883E3
:102050001C8A1B8A1E8A1D8A188E1F8A1A8E198E48
:102060008B8D8E7F50FB81F98B8F642FCE010E9468
:10207000C40F6F2DCE01DF91CF911F910F91FF9073
:102080000C94E90F0F931F93CF93DF93EC011A8EFB
:10209000198E188E1F8A1E8A1D8AA8E6B0E080E07D
:1020A00090E0FD01059115912591349104171507D4
:1020B0002607370709F031C02CE0289FF001299F3F
:1020C000F00D1124E459FF4F259134913C8B2B8B5B
:1020D0002CE0289FF001299FF00D1124E259FF4FB9
:1020E000259134913E8B2D8B2CE0289FF001299F68
:1020F000F00D1124E059FF4F25913491388F2F8B2B
:102100002CE0289FF001299FF00D1124EE58FF4F7D
:10211000859194919A8F898F08C001961C968D3075
:10212000910509F0BECF1C8A1B8A8F89988D892B57
:1021300009F443C08C858631E0F520916800883031
:1021400050F091E08E3008F490E081E001C0880FFB
:102150009A95EAF701C084E0822B809368002C8571
:10216000283038F02E3040F0263148F0E0E0F0E042
:1021700008C0EDE6F0E005C0EBE6F0E002C0ECE6FA
:10218000F0E03081283030F481E001C0880F2A95DA
:10219000EAF70DC0822F90E02E3010F4089701C0AE
:1021A0000E9791E001C0990F8A95EAF7892F832B4A
:1021B0008083898D9A8D0E94570ECE01DF91CF9139
:1021C0001F910F910C945E0EFC014485463150F531
:1021D000483028F04E3030F4EBE6F0E005C0EDE694
:1021E000F0E002C0ECE6F0E05081483040F481E0DD
:1021F00090E0042E01C0880F0A94EAF710C0242F43
:1022000030E04E3018F42850310902C02E50310908
:1022100081E090E0022E01C0880F0A94EAF78095D1
:102220008523808308952FE134E0FC0131832083EE
:102230000C94E4108230E8F4E82FF0E0EE0FFF1F7A
:10224000E55BFA4F71836083813041F080916900D2
:102250008C7F842B80936900E89A089580916900AF
:10226000440F551F440F551F837F842B80936900B3
:10227000E99A08951F920F920FB60F9211242F938F
:102280003F934F935F936F937F938F939F93AF93FE
:10229000BF93EF93FF9380914B0590914C05892B51
:1022A00029F0E0914B05F0914C050995FF91EF91D4
:1022B000BF91AF919F918F917F916F915F914F915E
:1022C0003F912F910F900FBE0F901F9018951F9266
:1022D0000F920FB60F9211242F933F934F935F935A
:1022E0006F937F938F939F93AF93BF93EF93FF93DE
:1022F00080914D0590914E05892B29F0E0914D0577
:10230000F0914E050995FF91EF91BF91AF919F918B
:102310008F917F916F915F914F913F912F910F908E
:102320000FBE0F901F9018958E3008F08E5087705A
:102330002091000190E4299F90011124822B809329
:102340007C0080917A00806480937A0080917A008A
:1023500086FDFCCF809178002091790090E0922B4F
:1023600008951F920F920FB60F9211242F933F934F
:102370008F939F93AF93BF93809150059091510598
:10238000A0915205B091530530914F0526E0230FDF
:102390002D3720F40296A11DB11D05C029E8230F99
:1023A0000396A11DB11D20934F0580935005909376
:1023B0005105A0935205B093530580915405909117
:1023C0005505A0915605B09157050196A11DB11D67
:1023D0008093540590935505A0935605B0935705E7
:1023E000BF91AF919F918F913F912F910F900FBE11
:1023F0000F901F9018952FB7F89460915005709129
:10240000510580915205909153052FBF08953FB714
:10241000F8948091540590915505A0915605B0917E
:10242000570526B5A89B05C02F3F19F00196A11DA1
:10243000B11D3FBF6627782F892F9A2F620F711D1C
:10244000811D911D43E0660F771F881F991F4A95D4
:10245000D1F70895CF92DF92EF92FF92CF93DF935F
:102460006B017C010E940712EB01C114D104E1044D
:10247000F10479F00E9407126C1B7D0B683E7340DB
:10248000A0F381E0C81AD108E108F108C851DC4F77
:10249000ECCFDF91CF91FF90EF90DF90CF90089538
:1024A000789484B5826084BD84B5816084BD85B52F
:1024B000826085BD85B5816085BDEEE6F0E08081F6
:1024C00081608083E1E8F0E0108280818260808317
:1024D000808181608083E0E8F0E08081816080839A
:1024E000E1EBF0E0808184608083E0EBF0E08081CC
:1024F00081608083EAE7F0E080818460808380816E
:102500008260808380818160808380818068808315
:102510001092C1000895833081F028F4813099F041
:102520008230A1F008958630A9F08730B9F0843068
:10253000D1F4809180008F7D03C0809180008F77DF
:1025400080938000089584B58F7702C084B58F7D15
:1025500084BD08958091B0008F7703C08091B00052
:102560008F7D8093B0000895CF93DF9390E0FC01BE
:10257000E85EFE4F2491FC01E45DFE4F84918823C8
:1025800049F190E0880F991FFC01EC5AFE4FA5918C
:10259000B491865B9E4FFC01C591D4919FB76111A8
:1025A00008C0F8948C91209582238C938881822393
:1025B0000AC0623051F4F8948C91322F3095832305
:1025C0008C938881822B888304C0F8948C91822B11
:1025D0008C939FBFDF91CF9108950F931F93CF935B
:1025E000DF931F92CDB7DEB7282F30E0F901EC5F03
:1025F000FE4F8491F901E85EFE4F1491F901E45D0C
:10260000FE4F04910023C9F0882321F069830E94C2
:102610008B126981E02FF0E0EE0FFF1FE65BFE4FAB
:10262000A591B4919FB7F8948C91611103C0109556
:10263000812301C0812B8C939FBF0F90DF91CF919D
:102640001F910F910895CF93DF938230910510F47D
:1026500082E090E0E0910406F091050620E030E091
:10266000A0E0B0E0309739F1408151814817590717
:10267000B8F04817590771F482819381109729F0B7
:1026800013969C938E9312972CC09093050680937B
:10269000040627C02115310531F04217530718F001
:1026A000A901DB0101C0EF019A01BD01DF01028038
:1026B000F381E02DD7CF21153105F9F0281B390B17
:1026C0002430310580F48A819B816115710521F0E8
:1026D000FB019383828304C09093050680930406D4
:1026E000FE01329644C0FE01E20FF31F81939193E5
:1026F00022503109398328833AC020910206309153
:102700000306232B41F420910301309104013093FF
:102710000306209302062091010130910201211548
:10272000310541F42DB73EB74091050150910601A6
:10273000241B350BE0910206F0910306E217F30724
:10274000A0F42E1B3F0B2817390778F0AC014E5F21
:102750005F4F2417350748F04E0F5F1F5093030655
:10276000409302068193919302C0E0E0F0E0CF0134
:10277000DF91CF910895CF93DF93009709F487C03D
:10278000FC01329713821282C0910406D091050693
:10279000209781F420813181280F391F8091020612
:1027A000909103068217930779F5F0930306E0935F
:1027B00002066DC0DE0120E030E0AE17BF0750F426
:1027C00012964D915C9113979D014115510509F1A8
:1027D000DA01F3CFB383A28340815181840F951F27
:1027E0008A179B0771F48D919C911197840F951F07
:1027F00002969183808312968D919C911397938377
:1028000082832115310529F4F0930506E09304062F
:102810003EC0D9011396FC93EE9312974D915D91B2
:10282000A40FB51FEA17FB0779F480819181840F0B
:10283000951F0296D90111969C938E938281938164
:1028400013969C938E931297E0E0F0E08A819B812F
:10285000009719F0FE01EC01F9CFCE010296288114
:102860003981820F931F20910206309103062817A9
:10287000390769F4309729F410920506109204067E
:1028800002C013821282D0930306C0930206DF9126
:10289000CF9108950E9450120E94E200C7E2D5E154
:1028A0000E94E3002097E1F30E942715F9CF0C94D2
:1028B00023130C94BB13FC0124853585F901E05CDE
:1028C000FF4F80819181329620813181821B930B51
:1028D0008F7399270895FC0184859585FC01E05C40
:1028E000FF4F408151813296208131814217530739
:1028F00041F00190F081E02DE80FF91F808190E018
:1029000008958FEF9FEF0895FC0184859585FC0164
:10291000E05CFF4F40815181329620813181421726
:10292000530779F0A081B181A80FB91F8C91208144
:1029300031812F5F3F4F2F7333273183208390E006
:1029400008958FEF9FEF0895FC0181A1882329F05E
:10295000A489B5898C9186FFFBCF11A20895CF93EE
:10296000DF93FC0126853785D901A05CBF4F8D918F
:102970009C91119701968F739927E901CE5BDF4FE8
:102980004881598184179507D9F30D90BC91A02DEA
:10299000A20FB31F6C93A685B785A05CBF4F11969D
:1029A0009C938E93A689B7892C9181E090E0078C47
:1029B00002C0880F991F0A94E2F7282B2C9381E01C
:1029C00081A30488F589E02D80818064808381E083
:1029D00090E0DF91CF91089508951F920F920FB666
:1029E0000F9211242F933F934F938F939F93EF93C5
:1029F000FF938091C00082FD1CC04091C600809171
:102A0000FE059091FF0501968F739927209100068E
:102A1000309101068217930771F0E091FE05F09165
:102A2000FF05E254FA4F40839093FF058093FE0523
:102A300002C08091C600FF91EF919F918F914F91BD
:102A40003F912F910F900FBE0F901F90189588E522
:102A500095E00E945B14892B11F00C94EC140895FE
:102A60001F920F920FB60F9211242F933F938F93C3
:102A70009F93EF93FF932091BA053091BB0580910E
:102A8000BC059091BD052817390731F48091C1002C
:102A90008F7D8093C10014C0E091BC05F091BD050D
:102AA000E658FA4F20818091BC059091BD050196B2
:102AB0008F7399279093BD058093BC052093C60022
:102AC000FF91EF919F918F913F912F910F900FBEAA
:102AD0000F901F901895CF92DF92EF92FF92CF93B5
:102AE000DF93EC016A017B01EC89FD8981E090E0D4
:102AF00008A002C0880F991F0A94E2F7808360E85B
:102B000074E88EE190E0A70196010E94071A215017
:102B10003109410951095695479537952795211552
:102B200080E1380798F0EC89FD89108260E472E456
:102B30008FE090E0A70196010E94071A2150310909
:102B4000410951095695479537952795E889F9899F
:102B50003083EA89FB89208319A2EE89FF894081AD
:102B600081E090E09C010C8C02C0220F331F0A947C
:102B7000E2F7422B4083EE89FF8940819C010D8C56
:102B800002C0220F331F0A94E2F7422B4083EE89E2
:102B9000FF8940819C010E8C02C0220F331F0A94D2
:102BA000E2F7422B4083EE89FF8920810F8C02C01F
:102BB000880F991F0A94E2F7809582238083DF9122
:102BC000CF91FF90EF90DF90CF90089510925B052A
:102BD00010925A0588EE93E0A0E0B0E080935C0587
:102BE00090935D05A0935E05B0935F058FE294E03E
:102BF00090935905809358058EEB95E09093650569
:102C0000809364058AE795E0909367058093660555
:102C100085EC90E0909369058093680584EC90E0E2
:102C200090936B0580936A0580EC90E090936D051E
:102C300080936C0581EC90E090936F0580936E0516
:102C400082EC90E0909371058093700586EC90E0A3
:102C5000909373058093720584E08093740583E0FC
:102C60008093750587E08093760585E080937705EE
:102C700081E0809378050895CF92DF92EF92FF92E2
:102C80000F931F93CF93DF936C017A01EB01E60E54
:102C9000F71E00E010E0CE15DF0561F06991D60166
:102CA000ED91FC910190F081E02DC6010995080F8E
:102CB000191FF1CFC801DF91CF911F910F91FF90A4
:102CC000EF90DF90CF9008956115710581F0DB01E1
:102CD0000D900020E9F7AD0141505109461B570BFB
:102CE000DC01ED91FC910280F381E02D099480E0FC
:102CF00090E008950C946416DC01ED91FC91019034
:102D0000F081E02D09940F931F93CF93DF93EC0193
:102D10006DE00E947C168C016AE0CE010E947C1658
:102D2000800F911FDF91CF911F910F9108950F9305
:102D30001F93CF93DF93EC010E9464168C01CE01A8
:102D40000E948316800F911FDF91CF911F910F91E9
:102D500008958F929F92AF92BF92CF92DF92EF929F
:102D6000FF920F931F93CF93DF93CDB7DEB7A19759
:102D70000FB6F894DEBF0FBECDBF7C01C42EE52F89
:102D8000CB01D22E19A221E02D1510F02AE0D22E6F
:102D90008E010F5D1F4F8D2C912CA12CB12C6C2D11
:102DA0007E2FA50194010E94071A8C2DD29E8019B6
:102DB0001124015011098A3014F4805D01C0895C2E
:102DC000F8018083211531054105510521F0C22EFE
:102DD000E32FCA01E4CFB801C7010E946416A1968F
:102DE0000FB6F894DEBF0FBECDBFDF91CF911F911C
:102DF0000F91FF90EF90DF90CF90BF90AF909F909A
:102E00008F900895CF92DF92EF92FF920F931F93CE
:102E1000CF93DF93EC016A017B012115310579F431
:102E2000E881F9810190F081E02D642FDF91CF914D
:102E30001F910F91FF90EF90DF90CF9009942A306F
:102E40003105E9F477FF1AC06DE20E947C168C010F
:102E500044275527BA014C195D096E097F092AE0FC
:102E6000CE010E94A916800F911FDF91CF911F9173
:102E70000F91FF90EF90DF90CF9008952AE0B70177
:102E8000A601CE01DF91CF911F910F91FF90EF909E
:102E9000DF90CF900C94A9169A01AB01662757FDDD
:102EA0006095762F0C9402170F931F93CF93DF93A7
:102EB000EC019A01AB01662757FD6095762F0E94C1
:102EC00002178C01CE010E948316800F911FDF91A3
:102ED000CF911F910F9108952115310541F4DC0127
:102EE000ED91FC910190F081E02D642F09940C94F8
:102EF000A9169A01AB0160E070E00C946C170F9377
:102F00001F93CF93DF93EC019A01AB0160E070E077
:102F10000E946C178C01CE010E948316800F911FB6
:102F2000DF91CF911F910F9108950F931F93CF932E
:102F3000DF93EC010E946C178C01CE010E94831676
:102F4000800F911FDF91CF911F910F9108955058DD
:102F5000BB27AA270ED04DC13ED130F043D120F07F
:102F600031F49F3F11F41EF433C10EF4E095E7FBFA
:102F700029C1E92F4FD180F3BA176207730784077D
:102F8000950718F071F49EF567C10EF4E0950B2ECD
:102F9000BA2FA02D0B01B90190010C01CA01A001AB
:102FA0001124FF27591B99F0593F50F4503E68F106
:102FB0001A16F040A22F232F342F4427585FF3CF47
:102FC000469537952795A795F0405395C9F77EF418
:102FD0001F16BA0B620B730B840BBAF09150A1F061
:102FE000FF0FBB1F661F771F881FC2F70EC0BA0FE7
:102FF000621F731F841F48F4879577956795B7956F
:10300000F7959E3F08F0B3CF9395880F08F0992766
:10301000EE0F9795879508950CD0EBC0E3D040F064
:10302000DAD030F021F45F3F19F0CCC0511115C156
:10303000CFC0F0D098F39923C9F35523B1F3951B72
:10304000550BBB27AA2762177307840738F09F5FC9
:103050005F4F220F331F441FAA1FA9F333D00E2E38
:103060003AF0E0E830D091505040E695001CCAF7A5
:1030700029D0FE2F27D0660F771F881FBB1F26176A
:1030800037074807AB07B0E809F0BB0B802DBF013D
:10309000FF2793585F4F2AF09E3F510568F092C07A
:1030A000DCC05F3FECF3983EDCF38695779567953F
:1030B000B795F7959F5FC9F7880F911D96958795EE
:1030C00097F90895E1E0660F771F881FBB1F62170D
:1030D00073078407BA0720F0621B730B840BBA0BCB
:1030E000EE1F88F7E095089504D06894B111B5C03B
:1030F000089598D088F09F5790F0B92F9927B7512D
:10310000A0F0D1F0660F771F881F991F1AF0BA95AB
:10311000C9F712C0B13081F09FD0B1E008959CC0D2
:10312000672F782F8827B85F39F0B93FCCF38695A1
:1031300077956795B395D9F73EF4909580957095FE
:1031400061957F4F8F4F9F4F0895E89409C097FB7B
:103150003EF490958095709561957F4F8F4F9F4F6E
:103160009923A9F0F92F96E9BB279395F6958795B2
:1031700077956795B795F111F8CFFAF4BB0F11F475
:1031800060FF1BC06F5F7F4F8F4F9F4F16C088231C
:1031900011F096E911C0772321F09EE8872F762F52
:1031A00005C0662371F096E8862F70E060E02AF093
:1031B0009A95660F771F881FDAF7880F969587957F
:1031C00097F9089597F99F6780E870E060E00895A7
:1031D0009FEF80EC089500240A941616170618062F
:1031E0000906089500240A9412161306140605060B
:1031F0000895092E0394000C11F4882352F0BB0F9C
:1032000040F4BF2B11F460FF04C06F5F7F4F8F4FFE
:103210009F4F089557FD9058440F551F59F05F3F39
:1032200071F04795880F97FB991F61F09F3F79F0E8
:1032300087950895121613061406551FF2CF46956A
:10324000F1DF08C0161617061806991FF1CF8695EC
:103250007105610508940895E894BB2766277727D0
:10326000CB0197F908950BD0C4CFB5DF28F0BADFB2
:1032700018F0952309F0A6CFABCF1124EECFCADF0B
:10328000A0F3959FD1F3950F50E0551F629FF00179
:10329000729FBB27F00DB11D639FAA27F00DB11DD2
:1032A000AA1F649F6627B00DA11D661F829F22275B
:1032B000B00DA11D621F739FB00DA11D621F839FE2
:1032C000A00D611D221F749F3327A00D611D231FB8
:1032D000849F600D211D822F762F6A2F11249F5706
:1032E00050408AF0E1F088234AF0EE0FFF1FBB1F29
:1032F000661F771F881F91505040A9F79E3F5105C8
:1033000070F060CFAACF5F3FECF3983EDCF3869578
:1033100077956795B795F795E7959F5FC1F7FE2B72
:10332000880F911D9695879597F908957BDFE0F0BA
:103330009E37D8F09639B8F49E3848F4672F782F26
:103340008827985FF9CF86957795679593959539F6
:10335000D0F3B62FB1706B0F711D811D20F48795CE
:1033600077956795939502C01CC077CF882371F439
:10337000772321F09850872B762F07C0662311F40E
:1033800099270DC09051862B70E060E02AF09A9545
:10339000660F771F881FDAF7880F9695879597F93C
:1033A00008959F3F31F0915020F487957795679568
:1033B000B795880F911D9695879597F90895AA1B43
:1033C000BB1B51E107C0AA1FBB1FA617B70710F010
:1033D000A61BB70B881F991F5A95A9F78095909542
:1033E000BC01CD01089597FB072E16F4009407D079
:1033F00077FD09D00E94DF1907FC05D03EF49095B7
:1034000081959F4F0895709561957F4F0895A1E232
:103410001A2EAA1BBB1BFD010DC0AA1FBB1FEE1F4E
:10342000FF1FA217B307E407F50720F0A21BB30B99
:10343000E40BF50B661F771F881F991F1A9469F715
:1034400060957095809590959B01AC01BD01CF0171
:103450000895EE0FFF1F0590F491E02D099491114E
:10346000D4C2803219F089508550D0F70895AEE06B
:10347000B0E0EDE3FAE10C947A1D85E08C838B8952
:103480009C899A838983AE01495E5F4F6D897E89ED
:10349000CE0101960E94CE1B2E96E2E00C94961D62
:1034A00020FD09C0FC0123FD05C022FF02C073837B
:1034B000628351834083089544FD10C046FD10C0CF
:1034C000DB01FC01AA0FBB1FEE1FFF1F1094D1F7F9
:1034D0006A0F7B1F8E1F9F1F31E003C033E001C0C6
:1034E00034E0660F771F881F991F3150D1F7620FA4
:1034F000711D811D911D08950F931F93CF93DF932D
:103500008C01C8010E94131DEC0197FD08C00E94A8
:103510002F1A892BB1F7B801CE010E94511DCE019F
:10352000DF91CF911F910F9108958F929F92AF924B
:10353000CF92DF92EF92FF920F931F93CF93DF937F
:10354000EC01A62E4A01022F0E94131DAC01552743
:103550004B32510521F04D32510551F40068AA94C7
:1035600011F480E067C0CE010E94131D97FDF9CFD2
:10357000102F1D7F302F307301F58033F1F4FF24BD
:10358000FA94FA0C09F442C0CE010E94131D97FD73
:103590003DC0382F3F7D383551F41264AA94AA9467
:1035A000A9F1CE010E94131D97FF07C02FC006FF8F
:1035B00002C0126001C01261AF2CC12CD12C760167
:1035C00020ED280F283080F014FF04C0BE010E94B7
:1035D000511D19C02A3040F016FFF8CF2F7D3FEE65
:1035E000320F363098F72750412FC701B6010E949D
:1035F0005C1A6B017C011260AA9459F0CE010E9402
:10360000131D97FFDDCF11FD04C0ABCFC12CD12C12
:10361000760117FF08C0F094E094D094C094C11CC8
:10362000D11CE11CF11C212FB701A601C4010E948D
:10363000501A81E0DF91CF911F910F91FF90EF9091
:10364000DF90CF90AF909F908F900895A1E2B0E06F
:10365000ECE2FBE10C946F1D5C017A018E010F5FBF
:103660001F4F680180E2D8011D928A95E9F7F501A4
:10367000738040E050E0812CB0E0912C81E090E03C
:10368000F90173FCA59173FEA1918F017A2F9F011F
:10369000A11103C080E090E07DC0AE3519F4411562
:1036A000510559F1E92DF0E0E417F5073CF4AD358B
:1036B00069F1AD3219F4BB2319F103C0B11101C096
:1036C0008A2EE72FE695E695E69586010E0F111DE9
:1036D000F801A72FA7708C0102C0000F111FAA9537
:1036E000E2F7D801B081BA2BB083781559F078157C
:1036F00010F47F5FE6CF7150E4CF9924939403C018
:10370000B1E001C0B0E04F5F5F4FBACFBB2319F00B
:103710008E8180628E83911003C09924939415C08A
:10372000F601CE018196208120952193E817F907B3
:10373000D1F7F3CFE114F10429F0D7018C93F7010D
:1037400031967F01615001F1912CC50169A30E945E
:10375000131D69A197FD16C0282F2695269526953D
:10376000F601E20FF11D208130E0AC0147705527D2
:1037700002C0359527954A95E2F720FDDBCFB501CC
:103780000E94511D911086CFE114F10411F0D70170
:103790001C92C801A196EDE00C948B1D4F925F9294
:1037A0007F928F929F92AF92BF92CF92DF92EF92D1
:1037B000FF920F931F93CF93DF931F92CDB7DEB786
:1037C0008C012B017A01FC0117821682A12CF801D1
:1037D000D380F201D3FC8591D3FE8191382F2F0144
:1037E000882309F4FCC090E039830E942F1A3981A4
:1037F000892B21F0C8010E947C1AE9CF353241F4AF
:10380000F201D3FC3591D3FE31912F01353269F4A9
:10381000C80139830E94131D398197FDDEC0381716
:10382000B1F2B8010E94511DDAC03A3241F4D3FC22
:103830003591D3FE31912F01BB24B39401C0B12C3B
:10384000712C20ED230F2A3090F4FB2DF260BF2E57
:10385000672D70E080E090E040E20E945C1A762ED6
:10386000F201D3FC3591D3FE31912F01EACFB1FEA5
:1038700003C0711003C0B3C077247A94383619F0AE
:103880003C3661F014C0F201D3FC3591D3FE319186
:103890002F01383661F4FB2DF860BF2E8B2D84602C
:1038A000B82EF201D3FC3591D3FE31912F01332391
:1038B00009F495C0632F70E08EE591E039830E9492
:1038C000081D3981892B09F48AC0B0FC07C0F701B3
:1038D000C080D180C70102967C0102C0C12CD12CCE
:1038E0003E3651F4F8014681578160E070E02B2D9F
:1038F000C6010E94501A6BCF3336A1F4B1FC02C04E
:1039000077247394C8010E94131D97FD66C0C114EB
:10391000D10429F0F6018083C60101966C017A94E6
:1039200089F757C03B3559F49201A601672DC801AC
:103930000E94261B2C01009709F04BC045C0C8010E
:1039400039830E947C1A398197FD47C03F3669F15F
:1039500028F4343631F1393679F12BC0333769F038
:103960003537F9F026C0C114D10429F0F601808260
:10397000C60101966C017A9471F0C8010E94131D72
:103980004C0197FD08C00E942F1A892B61F3B801E2
:10399000C4010E94511DC114D104D9F0F601108256
:1039A00018C0FB2DF062BF2E07C08B2D8061B82E92
:1039B00003C09B2D9064B92E2B2DA601672DC80145
:1039C0000E94951A811105C0F8018381807329F442
:1039D00006C0B0FCFCCEA394FACEAA2019F08A2D22
:1039E00090E002C08FEF9FEF0F90DF91CF911F917A
:1039F0000F91FF90EF90DF90CF90BF90AF909F908E
:103A00008F907F905F904F90089599278827089511
:103A1000FC010590061621F00020D9F7C001089599
:103A20003197CF010895CF93DF93EC012B8120FFD5
:103A300033C026FF0AC02F7B2B838E819F81019686
:103A40009F838E838A8190E029C022FF0FC0E88186
:103A5000F9818081992787FD9095009719F420625C
:103A60002B831AC03196F983E8830EC0EA85FB8563
:103A7000099597FF09C02B81019611F480E101C0DF
:103A800080E2822B8B8308C02E813F812F5F3F4FC6
:103A90003F832E83992702C08FEF9FEFDF91CF9155
:103AA0000895FB01238120FF12C026FD10C08F3F27
:103AB0003FEF930761F082832F7D2064238326816B
:103AC00037812150310937832683992708958FEF55
:103AD0009FEF08952F923F924F925F926F927F9245
:103AE0008F929F92AF92BF92CF92DF92EF92FF920E
:103AF0000F931F93CF93DF93CDB7DEB7CA1BDB0BBA
:103B00000FB6F894DEBF0FBECDBF09942A8839885E
:103B100048885F846E847D848C849B84AA84B98465
:103B2000C884DF80EE80FD800C811B81AA81B98171
:103B3000CE0FD11D0FB6F894DEBF0FBECDBFED0185
:063B40000895F894FFCF88
:103B4600010000060680004753465F554E4B4E4F18
:103B5600574E5F4944004753465F4E4F545F535597
:103B660050504F52544544004753465F50415241CE
:103B76004D455445525F4552524F5200556E657839
:103B8600706563746564205365742F476574206699
:103B96006C616773004661696C65642E2E2E003A6F
:103BA6003744354544303038430A003A37443745C0
:103BB60044303038410A003A3744334544303038CF
:103BC600450A003A3744324544303038460A003A0E
:103BD6003741444544303042340A003A3742424580
:103BE60044303041360A003A374244454430304189
:103BF600340A003A3744424544303038360A003AEF
:103C06003742434544303041350A004D61696E54B0
:103C160061736B20737461727465640046726565C6
:103C2600206D656D6F72792062797465733A200034
:103C3600727463496E69742829206661696C6564CB
:103C460021005365742052544320616C61726D20CB
:103C5600696E206F6E65206D696E7574650024252A
:103C6600782C256C78005441475F5044555F434F8C
:103C76004E54524F4C20005441475F5250495F53B7
:103C86004C4545505F54494D4520005441475F53CC
:103C960050495F534C4545505F54494D45200054AB
:103CA60041475F5350495F53595354454D5F5449FB
:103CB6004D45200070616E656C566F6C746167656A
:103CC600200070616E656C506F77657220006368C6
:103CD6006172676572566F6C746167652000636810
:103CE600617267657243757272656E7420006368EF
:103CF6006172676572506F776572546F646179207F
:103D060000636861726765724D6178506F7765729E
:103D1600546F64617920006C6F61644375727265DB
:103D26006E74200063707554656D7065726174758C
:103D36007265200057616974696E6720666F72202C
:103D460052506920746F2073687574646F776E20A3
:103D56006174205250692063757272656E742074A6
:103D660068726573686F6C642000206D4100525064
:103D7600692063757272656E743A2000506F7765BC
:103D86007220646F776E2052506900506F776572AB
:103D9600207570205250690057616974696E6720FA
:103DA600666F722052506920746F20706F7765724B
:103DB6002075702061742052506920637572726597
:103DC6006E74207468726573686F6C642000574463
:103DD60054005254430020696E7465727275707493
:103DE6002E200055702074696D653A200052656179
:103DF60064696E6720736F6C6172206368617267B5
:103E0600657200525443206469646E2774206669A3
:103E1600726520696E7465727275707421006932FC
:103E26006352656365697665722000693263547210
:103E3600616E736D69747465722000000000001471
:103E4600032403000000001C032E03000000002EC4
:103E56000A010AA709AF09C209D10900000000E654
:103E66000E3C16240EE90D0A0E3C0E00000000AFB3
:0C3E7600143C165B1484146B14A414009C
:00000001FF
