:100000000C94B8000C9458110C9485110C94760F34
:100010000C949A0F0C94BE0F0C944D0D0C94E000B0
:100020000C94E0000C94E0000C94E0000C94E000D0
:100030000C94E0000C94E0000C94E0000C94E000C0
:100040000C94CF110C94E0000C940B150C944E15ED
:100050000C94E0000C94E0000C94E0000C94E000A0
:100060000C94D30B0C94E00000C2010001000500C9
:100070000500030000E1000001000F000F000D006B
:1000800000960000020019001A001700127A000002
:100090000700200021001D00807000000B002300DD
:1000A00023002000004B000014003500370034000E
:1000B000403800001E004B004B0048008025000027
:1000C0003200720072007000C01200006E00E90081
:1000D000E900E60060090000E500D801D801D5017B
:1000E000B0040000D301B403B403B103580200000C
:1000F000B4036707670762072C0100006707DD0E7E
:10010000DD0EDA0E00000007000201000003040605
:1001100000000000000000000102040810204080E0
:100120000102040810200102040810200404040441
:100130000404040402020202020203030303030391
:100140000000000023002600290000000000250018
:1001500028002B0000000000240027002A00636410
:10016000696E6F70737578585B00E30A030E0416AE
:1001700011241FBECFEFD8E0DEBFCDBF14E0A0E05A
:10018000B1E0E2E8FBE302C005900D92AC33B107A9
:10019000D9F726E0ACE3B4E001C01D92A730B20766
:1001A000E1F711E0C0E7D1E004C02297FE010E9410
:1001B000491ACA36D107C9F70E9468140C94BF1DAA
:1001C0000C94000008950E9438030C947E07E0917F
:1001D0000506F091060680E090E0309749F002961F
:1001E00020813181820F931F0280F381E02DF5CFB2
:1001F00008950F931F93CF93DF9300D0CDB7DEB751
:1002000080910306909104068E010F5F1F4F0097A7
:1002100029F4075016401A8309830AC0081B190BDA
:100220001A8309830E94E700800F911F9A838983B4
:1002300089819A810F900F90DF91CF911F910F913B
:100240000895623039F0633041F0613049F467E07D
:1002500071E008C066E171E005C068E271E002C0CB
:100260006CE371E089E595E00C94B516FC0120A1E2
:10027000273009F070C063A1662319F00E942101A4
:100280006AC0FC0121A130E0322F222742A1242B99
:10029000EC57FF4FA081A25040E050E0BA01A430DB
:1002A00058F0762F652F542F4427FC01EA0FF11DDB
:1002B000E0A14E2BA150F3CF2D3EF2ED3F0781F18F
:1002C000C0F42D3EFBEB3F07C9F140F42D3E3D4A03
:1002D00009F041C0FC01E057FF4F29C02D3EECEB77
:1002E0003E0781F12D3E3D4BB1F5FC01EE56FF4F2F
:1002F0001EC02D3EE5ED3E07E9F038F42D3E334DAE
:1003000051F5FC01EA57FF4F12C02D3EF7ED3F07B4
:1003100059F02D3E3B4DF9F4FC01E257FF4F07C069
:10032000FC01E857FF4F03C0FC01E657FF4F518324
:1003300040830FC0FC01E457FF4FF9CFFC01EC569E
:10034000FF4FF5CFFC01EA56FF4F40835183628394
:10035000738381E0089580E00895FC01EC57FF4F1E
:10036000508120E030E040E0251740F4FC01E20F2E
:10037000F31F60A1460F2F5F3F4FF6CF81E0453559
:1003800009F080E0089580ED860F8A3040F08FEB11
:10039000860F863018F489EC860F08958FEF089544
:1003A000FF920F931F93CF93DF93EC018E8D9F8D60
:1003B00081309105B1F08230910549F1892B09F026
:1003C00056C06A3309F055C081E090E09F8F8E8F50
:1003D000FE01EC57FF4F1082CB57DF4F8FEF888322
:1003E00048C0CE010E94C3018F3F09F440C0FE0106
:1003F000EC57FF4F908121E0290F2083FE01E90F88
:10040000F11D80A382E090E09F8F8E8F32C08E011D
:100410000C571F4FD801FC90B3E6BF1540F1CE0139
:100420006A3061F40E94AD01882321F0CE010E9460
:10043000360101C080E01F8E1E8E1CC00E94C301C9
:100440008F3FA9F0FE01EB57FF4F20812F3F69F04E
:1004500091E09F0DD8019C93CF0DD11DB0E12B9F52
:1004600090011124282B28A38FEF808302C01F8EB8
:100470001E8E80E0DF91CF911F910F91FF90089524
:10048000BF92CF92DF92EF92FF920F931F93CF9381
:10049000DF938C01EC012296CE010E947C0ECE01EE
:1004A0000E945A0E0E9419126B017C010E941912BF
:1004B0006C197D098E099F09B12C62337105810584
:1004C000910598F4CE010E94420E892B29F0CE01AD
:1004D0000E94070E97FF03C0B11007C0E7CF682F37
:1004E000C8010E94D001B82EEDCF89E595E00E94A9
:1004F000C2148B2DDF91CF911F910F91FF90EF9040
:10050000DF90CF90BF900895DF92EF92FF920F930C
:100510001F93CF93DF938C01EB01B3E0DB2E7C01C3
:1005200082E0E80EF11C2097A1F0DE010D90002082
:10053000E9F7AD01415051094C1B5D0BD8011296F2
:10054000ED91FC9113970280F381E02DBE01C7016C
:100550000995C8010E94400281110AC0DA9419F776
:1005600065E571E089E595E00E94B51680E001C07F
:1005700081E0DF91CF911F910F91FF90EF90DF907D
:100580000895CF93DF93EA010E948402882319F033
:100590008881998102C08FEF9FEFDF91CF910895FD
:1005A000AC0144575F4F6FE571E00C94C102AC01A0
:1005B00046575F4F6BE671E00C94C102AC014A579D
:1005C0005F4F67E771E00C94C102AC0148575F4F81
:1005D00063E871E00C94C102AC0140575F4F6FE8D3
:1005E00071E00C94C102AC014C565F4F6BE971E0B5
:1005F0000C94C102CF93DF93EA010E948402882306
:1006000029F0688179818A819B8104C06FEF7FEF37
:1006100080E090E0DF91CF910895AC014A565F4FA2
:100620006FEB71E00C94FA022FEF33E0FC012193A1
:100630003193CF010C94311127E034E0FC01318378
:1006400020834C960C941403CF93DF93EC010E940B
:100650001403CE01DF91CF910C947714CF93DF93E5
:10066000EC010E941C03CE01DF91CF910C94771412
:10067000CF93DF9380913C0490913D04892B09F046
:10068000C0C040E05BE460E070E089E595E00E9476
:10069000891562EB71E089E595E00E94B5166BEC77
:1006A00071E089E595E00E94B5166CED71E089E591
:1006B00095E00E9498160E94F9004AE050E0BC01C3
:1006C00089E595E00E94721761E08BE00E940B13B0
:1006D00061E08BE00E94D21261E08CE00E940B137B
:1006E00061E08CE00E94D21261E08EE00E940B1368
:1006F00061E08EE00E94D21261E08FE00E940B1355
:1007000061E08FE00E94D21261E085E00E940B134D
:1007100061E085E00E94D21261E086E00E940B1346
:1007200061E086E00E94D21261E088E00E940B1333
:1007300061E088E00E94D21260E08DE00E940B131D
:1007400061E08DE00E94D2128BEC91E00E94751462
:10075000EC0127E034E0FC0121933193CF010E94AA
:10076000980D1F821886198621E02A872B871C8600
:100770001D861E861F86198A188A86E990E09B8B43
:100780008A8B1D8A1C8A1E8A1F8A288F1A8E198EB0
:100790001B8E8FEF93E09D8F8C8F20E049E06AE005
:1007A000CE014E960E9430101BAE1AAEFE01E056EE
:1007B000FF4F108231968FEF808331968FEF9FEF3E
:1007C0009183808334969183808332969183808352
:1007D000329691838083329691838083329691837F
:1007E000808332969183808332964FEF5FEF60E093
:1007F00070E04083518362837383D0933D04C09340
:100800003C0480913C0490913D04DF91CF91089588
:10081000CF930E943803C1E0FC01C7830E943803D4
:10082000FC01C0870E943803FC01138ECF9108950C
:1008300067E370E08EE394E00E94A50A6FE378E03E
:100840008EE394E00E94D90A6BE678E08EE394E0B0
:100850000C94DE0A0F931F93CF93DF93EC018C016E
:100860000E5F1F4F61E0C8010E94C60D81110DC0CF
:1008700060EF71E089E595E00E94B51681E08B8F0D
:10088000DF91CF911F910F91089562E072E089E5A9
:1008900095E00E94B51642E050E068E074E080E028
:1008A0000E943811488D63E070E0C8010E944C0935
:1008B00068EE73E080E090E00E944812C8010E9458
:1008C00072091F82CE01DF91CF911F910F910C947D
:1008D0001804CF93DF93EC018C8980FF05C060E0A2
:1008E0008BE00E940B1304C061E08BE00E940B13AD
:1008F0008C8981FF05C060E08CE00E940B1304C06E
:1009000061E08CE00E940B138C8982FF05C060E0DF
:100910008EE00E940B1304C061E08EE00E940B1376
:100920008C8983FF05C060E08FE00E940B1304C038
:1009300061E08FE00E940B138C8984FF05C060E0AA
:1009400085E00E940B1304C061E085E00E940B1358
:100950008C8985FF05C060E086E00E940B1304C00F
:1009600061E086E00E940B138C8986FF05C060E081
:1009700088E00E940B1304C061E088E00E940B1322
:100980008C899D8990FF06C061E083E095E00E941C
:10099000640D05C060E083E095E00E94640D2C8941
:1009A0003D89CE01029631FF05C061E0DF91CF9114
:1009B0000C947E0D60E0DF91CF910C947E0D0F932F
:1009C0001F93CF93DF9300D000D000D0CDB7DEB718
:1009D0008C01FC0181858D3008F08BC091E0980F6F
:1009E0009187E80FF11DEA54FF4F6083611183C0C6
:1009F000CE0101969F938F9304969F938F938EE1E0
:100A000092E09F938F93C8018A549F4F9F938F9337
:100A10000E94551A0FB6F894DEBF0FBECDBF0297E5
:100A200009F067C08D819E8181309105D9F108F16F
:100A30008230910509F44AC0039709F05AC06FE566
:100A400072E089E595E00E94981649815A816B8190
:100A50007C812AE030E089E595E00E94B317898126
:100A60009A81AB81BC81F80184879587A687B78777
:100A700040C066E272E089E595E00E9498164981DF
:100A80005A816B817C8120E130E089E595E00E940C
:100A9000B31789819A81F801958B848BC8010E94D4
:100AA000690427C067E372E089E595E00E94981623
:100AB00049815A816B817C812AE030E089E595E0AB
:100AC0000E94B3178981F801828713C06BE472E03A
:100AD00089E595E00E94981649815A816B817C8155
:100AE0002AE030E089E595E00E94B3178981F8019A
:100AF0008387F801118626960FB6F894DEBF0FBEE5
:100B0000CDBFDF91CF911F910F910895FC0187898F
:100B100091E0980F9C3010F4978B01C0178A978949
:100B20002689921305C09F5F968B9C3008F0168A29
:100B30009F0146E1849F200D311D1124C9018D5371
:100B40009F4F0895FC0186899789891789F091E064
:100B5000980F9C3010F4968B01C0168A9F0146E1D5
:100B6000849F200D311D1124C9018D539F4F08957D
:100B700080E090E0089588EC80937C0080917A007A
:100B8000806880937A0064E170E080E090E00E94E9
:100B9000481280917A00806480937A0080917A0074
:100BA00086FDFCCF609178007091790080E090E044
:100BB0000E94C3182EEA37E242EA53E40E94C517A6
:100BC00026EF38E24CE95FE30E942A180E94B4192C
:100BD0000E949218862F0895CF92DF92EF92FF9293
:100BE0000F931F93CF93DF938C010E948605EC0136
:100BF00068018CE1C80ED11C7801EEE1EE0EF11C0B
:100C000040E05BE460E070E0C7010E946010C60154
:100C10000E94D0029B878A87C6010E94D7029D87C7
:100C20008C87C6010E94DE029F878E87C6010E94C4
:100C3000E502998B888BC6010E94EC029B8B8A8B04
:100C4000C6010E94F30299878887C6010E940D039E
:100C50006C837D838E839F83F801448555856685EB
:100C60007785488359836A837B83C8010E94BB05CB
:100C7000992787FD90959D8B8C8BC7010E9402114F
:100C800064E772E089E595E00E94981668857985A9
:100C90004AE050E089E595E00E949D1762E872E025
:100CA00089E595E00E9498164C815D816E817F8177
:100CB0002AE030E089E595E00E94B3176EE872E023
:100CC00089E595E00E9498166A857B854AE050E0A8
:100CD00089E595E00E949D176EE972E089E595E04F
:100CE0000E9498166C857D854AE050E089E595E084
:100CF0000E949D176EEA72E089E595E00E949816C1
:100D00006E857F854AE050E089E595E00E949D1759
:100D100061EC72E089E595E00E949816688979890E
:100D20004AE050E089E595E00E949D1767ED72E08A
:100D300089E595E00E9498166A897B894AE050E02F
:100D400089E595E00E949D1764EE72E089E595E0E3
:100D50000E9498166C897D894AE050E089E595E00B
:100D6000DF91CF911F910F91FF90EF90DF90CF9087
:100D70000C947217AF92BF92CF92DF92EF92FF92D4
:100D80000F931F93CF93DF938C01EC012296662380
:100D900009F45EC064EF72E089E595E00E94981660
:100DA000F801628973894AE050E089E595E00E9484
:100DB00097176AE273E089E595E00E94B516CE01C7
:100DC0000E94ED0D0E9497186B017C016EE273E0AA
:100DD00089E595E00E9498164AE050E0B60189E561
:100DE00095E00E9497176BE273E089E595E00E9419
:100DF000B51689E595E00E94C21468EE73E080E0C4
:100E000090E00E944812F80182899389C816D90699
:100E1000B0F66CE373E089E595E00E94B516F80141
:100E2000848995899D7F958B848BC8010E94690474
:100E300068E873E180E090E0DF91CF911F910F911E
:100E4000FF90EF90DF90CF90BF90AF900C9448123E
:100E50006BE473E089E595E00E94B516F80184899A
:100E600095899260958B848BC8010E94690468E51E
:100E700073E089E595E00E9498164AE050E06AEF39
:100E800070E089E595E00E946A176AE273E089E5FF
:100E900095E00E94B516CE010E94ED0D0E949718B4
:100EA0006B017C018B016EE273E089E595E00E94A5
:100EB00098164AE050E0B60189E595E00E94971740
:100EC0006BE273E089E595E00E94B51689E595E04F
:100ED0000E94C21468EE73E080E090E00E94481225
:100EE0000A3F1105C0F2DF91CF911F910F91FF9042
:100EF000EF90DF90CF90BF90AF900895EC010E94EB
:100F0000180461E0CE010E94BA0668E873E180E04F
:100F100090E00E944812CE010E942A048E010E5FCA
:100F20001F4F8F81811104C09885992309F46CC0EB
:100F300018861A8E198E882329F0C8010E9472091A
:100F40001B8E1F82888D2CE3829FC00111244C854B
:100F50005D856E857F85480F591F611D711D4C870A
:100F60005D876E877F87888999890196998B888BA1
:100F700062EB71E089E595E00E94B5168B8D8823C0
:100F800039F06EE873E089E595E00E94981606C096
:100F900062E973E089E595E00E94981666E973E0DE
:100FA00089E595E00E94981663EA73E089E595E08B
:100FB0000E949816688979894AE050E089E595E0B1
:100FC0000E949D176B8570E0888999890E94FD19A0
:100FD000892B49F46DEA73E089E595E00E94B51626
:100FE000CE010E94EC056A8570E0888999890E948B
:100FF000FD19892B81F560E0CE010E94BA0661E0FF
:10100000CE010E94BA0627C080910205882319F1FB
:1010100010920205298D3A8D2C5F3F4F3A8F298F10
:101020002C333105C0F08B8D882319F081E088873F
:1010300078CF888D42E4849FC001112482179307E2
:1010400050F463EC73E089E595E00E94B51681E009
:101050008B8F888766CF89E595E00E94C21420E0D7
:1010600030E040E050E068E070E0C8010E94000D10
:1010700063E070E080E090E00E94481252CF0F934E
:101080001F93CF93DF931F92CDB7DEB78C016EED28
:1010900073E089E595E00E9498164AE050E0B801B7
:1010A00089E595E00E9472178EE394E00E94C209E0
:1010B000892B59F08EE394E00E94CA0989830E942B
:1010C000380369810E94DF04EFCF0F90DF91CF9149
:1010D0001F910F9108950F931F93CF93DF93CDB777
:1010E000DEB766970FB6F894DEBF0FBECDBF0E9485
:1010F00038030E94A2058C01009741F4FE0131964D
:1011000086E1DF011D928A95E9F78F016BEE73E0AE
:1011100089E595E00E949816F8014081518162812D
:1011200073812AE030E089E595E00E94B31746E13B
:1011300050E0B8018EE394E00E941C0A66960FB658
:10114000F894DEBF0FBECDBFDF91CF911F910F91FD
:101150000895DC01ED91FC910190F081E02D09945E
:101160008EE394E00E94880A81E00895CF92DF9296
:10117000EF92FF920F931F93CF93DF931F92CDB700
:10118000DEB7062FF72E142F68E670E08EE394E0AA
:1011900029830E94C10A2981622F70E08EE394E0C6
:1011A0000E94A9088EE394E00E94D60A412F68E6C7
:1011B0008EE394E00E94B40AE02EC02EDF2C8C2D2A
:1011C0008E19811740F48EE394E00E94CA09F6015B
:1011D00081936F01F4CF0F90DF91CF911F910F9109
:1011E000FF90EF90DF90CF900895CF93DF931F9201
:1011F000CDB7DEB7262F41E0BE016F5F7F4F0E9463
:10120000B60889810F90DF91CF910895EF92FF92F8
:101210000F931F93CF93DF9300D0CDB7DEB7062F88
:10122000122F68E670E08EE394E049835A830E94AF
:10123000C10A602F70E08EE394E00E94A908498102
:10124000042FE42E5A81F52E8E2D801B811740F439
:10125000F70161917F018EE394E00E94490AF4CF87
:101260008EE394E00F900F90DF91CF911F910F913B
:10127000FF90EF900C94D60ACF93DF931F92CDB7D7
:10128000DEB7498321E0AE014F5F5F4F0E94060940
:101290000F90DF91CF9108951F93CF93DF93EC01CF
:1012A000142F462F60E10E943C09412F61E1CE01DD
:1012B0000E943C0961E0CE010E94F508482F4F7B57
:1012C000426061E0CE010E943C096FE0CE010E94C5
:1012D000F508482F42686FE0CE01DF91CF911F9152
:1012E0000C943C09CF93DF93EC0161E00E94F50878
:1012F000482F4F7B61E0CE01DF91CF910C943C09E8
:1013000048E560E00C943C091F93CF93DF93EC0118
:1013100060E00E94F508182F40E061E0CE010E94D5
:101320003C0981E0111101C080E0DF91CF911F9154
:101330000895CF93DF93EC016FE00E94F508482FEA
:1013400048636FE0CE01DF91CF910C943C0940E0FF
:1013500062E00C943C090F931F93CF93DF93EC0151
:101360008B0160E00E94F508482F012B11F44F77A4
:1013700001C0406860E0CE01DF91CF911F910F91D5
:101380000C943C098091720490E020917304821BBC
:10139000910908952091730480917204281750F4E4
:1013A000E22FF0E0EC58FB4F808190E02F5F20931C
:1013B000730408958FEF9FEF0895E0917304809177
:1013C0007204E81730F4F0E0EC58FB4F808190E0B5
:1013D00008958FEF9FEF08950895E0914A04F091EA
:1013E0004B043097E1F0309173042091720432176E
:1013F000B0F040E0242F30E02617370754F4DC012A
:10140000A20FB31F5C91D901AC58BB4F5C934F5FE7
:10141000F1CF1092730460937204CB010994089584
:10142000E0914C04F0914D04309729F01092500453
:1014300010924F0409940895CF92DF92EF92FF9299
:101440000F931F93CF93DF937C01CB018A012091EF
:101450004E04222389F0EB016B01C40ED51ECC157E
:10146000DD0569F06991D701ED91FC910190F08162
:10147000E02DC7010995F3CF642F0E94A00BC8018E
:10148000DF91CF911F910F91FF90EF90DF90CF9060
:101490000895CF93DF931F92CDB7DEB76983209174
:1014A0004E042223D1F020914F04203240F021E05D
:1014B00030E0FC013383228380E090E015C080910E
:1014C0005004E82FF0E0EF5AFB4F998190838F5F33
:1014D0008093500480934F0405C061E0CE010196D3
:1014E0000E94A00B81E090E00F90DF91CF910895D2
:1014F000FC011382128248EE53E060E070E0448306
:101500005583668377838FE094E091838083089589
:1015100010927304109272041092500410924F04AF
:101520000C94E70ACF93DF93EC01862F0E94050B02
:1015300080E19AE00E94BE0B8DEE99E00E94B90B0B
:10154000CE01DF91CF910C94880A0C94920A862FD9
:10155000413208F040E264E774E00E94090B109207
:10156000730480937204089521E00C94A70A81E02B
:1015700080934E04609371041092500410924F04B3
:1015800008950C94B70A0F93062F21E040914F0461
:1015900061E574E0809171040E944D0B109250043B
:1015A00010924F0410924E040F91089561E00C9434
:1015B000C30A70934B0460934A04089570934D04DA
:1015C00060934C0408958EE394E00C94780A109292
:1015D000010581E08093FF041092FE0461E082E146
:1015E0000E940B1361E083E10E940B13E9EBF0E032
:1015F00080818E7F808380818D7F808380E2809355
:10160000B80085E48093BC000895880F8093BA00E9
:101610000895413208F03FC0909101059111FCCF2F
:1016200091E0909301052093FF042FEF2093940401
:101630001092D904240F2093D80490930005909120
:101640000005880F892B809300058091FE0481306E
:1016500041F41092FE04809100058093BB0085EC5C
:1016600001C085EE8093BC00809101058130E1F3DB
:101670008091D904841710F44091D9042AED34E004
:10168000FB01D9018A2F821B841718F48D91819355
:10169000F9CF842F089580E008950F93413208F028
:1016A00046C0909101059111FCCF92E09093010505
:1016B0000093FF049FEF909394041092D9044093F9
:1016C000D804FB016AED74E0DB019A2F961B941796
:1016D00018F491919D93F9CF109200059091000517
:1016E000880F892B809300058091FE04813041F49E
:1016F0001092FE04809100058093BB0085EC01C030
:1017000085EE8093BC00222321F080910105823078
:10171000E1F3809194048F3F61F0809194048032D2
:1017200051F080919404803341F483E007C081E05C
:1017300005C080E003C082E001C084E00F910895FD
:10174000613298F420910105243089F46093B60445
:10175000FC0188EB94E0DC012A2F281B261718F4E3
:1017600021912D93F9CF80E0089581E0089582E0E2
:1017700008959093FB048093FA0408959093FD04D8
:101780008093FC04089585ED8093BC008091BC009B
:1017900084FDFCCF10920105089585EC8093BC0078
:1017A0001092010508951F920F920FB60F92112407
:1017B0002F933F934F935F936F937F938F939F9359
:1017C000AF93BF93EF93FF938091B900887F8036EA
:1017D00009F49CC068F5883209F45BC090F480314C
:1017E00009F454C038F4882309F4F5C0883009F4AA
:1017F0004DC0F5C0883109F44CC0803209F45DC099
:10180000EEC0803409F468C048F4803309F455C050
:10181000883309F0E4C080939404A8C0803509F4AB
:101820004FC0883509F45DC0883409F0D8C0D5C0F0
:10183000883909F4C6C0A8F4883709F467C038F4B9
:10184000883609F463C0803709F460C0C8C088389E
:1018500009F4B7C0803909F45FC0803809F0BFC00F
:101860005BC0803B09F485C038F4803A09F466C057
:10187000883A09F47EC0B3C0803C09F4A6C0883C15
:1018800009F4A3C0883B09F489C0A9C08091000570
:1018900010C09091D9048091D804981770F5E09108
:1018A000D90481E08E0F8093D904F0E0E652FB4F1B
:1018B00080818093BB0085EC85C0809394048DC0AB
:1018C000E091D90481E08E0F8093D9048091BB0010
:1018D000F0E0E652FB4F80839091D9048091D804C8
:1018E0006DC0E091D90481E08E0F8093D90480917E
:1018F000BB00F0E0E652FB4F80838091FF04811132
:101900006CC081E08093FE0484EA60C083E0809331
:10191000010510929504CFCF80919504803208F094
:1019200050C0E091950481E08E0F809395048091E2
:10193000BB00F0E0EA56FB4F8083BDCF8091950459
:10194000803230F4E0919504F0E0EA56FB4F1082CB
:101950000E94C30B6091950470E0E091FA04F0914D
:10196000FB0486E994E00995109295040E94CD0B42
:1019700036C084E0809301051092B7041092B6043B
:10198000E091FC04F091FD0409958091B604811169
:1019900005C081E08093B6041092B804E091B704CA
:1019A00081E08E0F8093B704F0E0E854FB4F808114
:1019B0008093BB009091B7048091B604981708F407
:1019C0007ACF85E88093BC000AC085EC8093BC0088
:1019D0001092010504C0109294040E94C30BFF9161
:1019E000EF91BF91AF919F918F917F916F915F9197
:1019F0004F913F912F910F900FBE0F901F90189510
:101A00004115510529F4EAE7F0E080818F77808362
:101A10006A307105B1F063FF02C088E201C088E05E
:101A20006770682B88E190E00FB6F894A8958093D2
:101A300060000FBE60936000E0E6F0E080818064AB
:101A40008083232BA1F483B7817F846083BFF894C4
:101A500083B7816083BF85B7806685BF8F7D85BF73
:101A60007894889583B78E7F83BF78940EC083B7B0
:101A7000817F846083BFF89483B7816083BF78944B
:101A8000889583B78E7F83BF7894452B29F4EAE746
:101A9000F0E080818068808308951F920F920FB6D6
:101AA0000F9211248F9381E08093020588E10FB695
:101AB000F89480936000109260000FBE8F910F9099
:101AC0000FBE0F901F901895CF93DF93EC01888184
:101AD000882319F0662371F006C0662339F061E0AF
:101AE00084E00E940B1381E08A8305C060E084E0FB
:101AF0000E940B131A82DF91CF910895CF93DF9349
:101B0000EC018881882319F0662371F006C06623F2
:101B100039F061E080E10E940B1381E0898305C008
:101B200060E080E10E940B131982DF91CF9108954C
:101B3000CF93DF93EC0118821C821B8219821A82D8
:101B400061E080E10E94D21260E0CE010E947E0D31
:101B500061E084E00E94D21260E0CE010E94640D38
:101B600061E081E10E94D21260E081E10E940B13EA
:101B700060E087E00E94D21260E083E00E94D2120F
:101B800060E082E0DF91CF910C94D2121F93CF934B
:101B9000DF93EC01162F0E94B00862E0CE010E9494
:101BA000F5088F3FA9F0112319F0CE010E9480099A
:101BB000CE010E949909CE010E94A709CE010E9480
:101BC000840961E070E0CE010E94AB0981E001C0B0
:101BD00080E0DF91CF911F91089585E10E94B211BD
:101BE0008430910514F480E090E0BC01882777FDF3
:101BF0008095982F0E94C5182BE734E14EE450E4FD
:101C00000E945119089583E095E00C94980D20915D
:101C10004A0530914B0528173907B9F4909108050A
:101C200080910905981789F0E0910805F0E0E65FDA
:101C3000FA4F80812091080530E02F5F3F4F2F73CE
:101C400033272093080590E008958FEF9FEF0895C4
:101C500020914A0530914B052817390781F490915E
:101C6000080580910905981751F0E0910805F0E00A
:101C7000E65FFA4F8081992787FD909508958FEF51
:101C80009FEF089520914A0530914B052817390799
:101C900071F4809109052091080590E0805C9F4FC8
:101CA000821B910960E470E00E94111A089580E09F
:101CB00090E0089520914A0530914B052817390787
:101CC00039F48FB7F89410920905109208058FBF68
:101CD0000895DC015196ED91FC9152972081509628
:101CE0008C91809582238083089520E001972FEFC7
:101CF0008F3F9207D9F7089520914A0530914B05FF
:101D00002817390789F0FC01238D2E7F238F2FB7E9
:101D1000F894109209051092080590934B05809352
:101D20004A052FBF81E0089580E00895EF92FF9269
:101D30000F931F93CF93DF93EC018B8DEE85FF857F
:101D40009D8581FF04C08081892329F447C080815B
:101D5000892309F043C08B899C890E94750E08E095
:101D600010E0EE24E394F12C8D899E890E94750E7B
:101D7000EE85FF8580819D85892311F0FE2803C0B3
:101D80008E2D8095F822EE0C0150110901151105D8
:101D900059F78F89988D0E94750E8B8D81FDF09477
:101DA000809109052091080590E001968F7399278D
:101DB00030E08217930779F0E0910905F0E0E65FE3
:101DC000FA4FF0828091090590E001968F73992770
:101DD0008093090503C08B8D81608B8FDF91CF913C
:101DE0001F910F91FF90EF900895611102C00C9424
:101DF000690EDC015196ED91FC915297208150962D
:101E00008C91282B20830895DF92EF92FF920F93FD
:101E10001F93CF93DF93EC01E62E898D9A8D892B4A
:101E200039F481E090E09B838A8380E090E04DC0AC
:101E3000DFB6F8946B8D66956170CE010E94F50E49
:101E4000898D9A8D04960E94750E8B8D08E010E0A6
:101E5000FF24F39481FF19C08F2D8E2121F0CE0134
:101E60000E94690E04C061E0CE010E94F50E898DCA
:101E70009A8D0E94750EFF0C015011090115110574
:101E800059F7CE010E94690E19C08F2D8E2129F0BD
:101E900061E0CE010E94F50E03C0CE010E94690EE2
:101EA000898D9A8D0E94750EFF0C01501109011544
:101EB000110559F761E0CE010E94F50EDFBE898D54
:101EC0009A8D0E94750E81E090E0DF91CF911F9175
:101ED0000F91FF90EF90DF90089580914A059091C7
:101EE0004B05009711F00C94960E08951F920F92D7
:101EF0000FB60F9211242F933F934F935F936F93DD
:101F00007F938F939F93AF93BF93EF93FF930E9421
:101F10006D0FFF91EF91BF91AF919F918F917F9145
:101F20006F915F914F913F912F910F900FBE0F9046
:101F30001F9018951F920F920FB60F9211242F9396
:101F40003F934F935F936F937F938F939F93AF9341
:101F5000BF93EF93FF930E946D0FFF91EF91BF919D
:101F6000AF919F918F917F916F915F914F913F9131
:101F70002F910F900FBE0F901F9018951F920F92E8
:101F80000FB60F9211242F933F934F935F936F934C
:101F90007F938F939F93AF93BF93EF93FF930E9491
:101FA0006D0FFF91EF91BF91AF919F918F917F91B5
:101FB0006F915F914F913F912F910F900FBE0F90B6
:101FC0001F9018951F93CF93DF93EC01162F61E0BC
:101FD000812F0E94D21261E0812F0E940B13812F6A
:101FE00090E0FC01E85EFE4FE491E88BFC01E45DCB
:101FF000FE4FE491F0E0EE0FFF1FE65BFE4F859190
:1020000094919A8B898BDF91CF911F9108951F93A3
:10201000CF93DF93EC01162F60E0812F0E94D21244
:102020008B8D81FD04C061E0812F0E940B131C8702
:10203000812F90E0FC01E85EFE4FE491ED87FC010A
:10204000E45DFE4FE491F0E0EE0FFF1FE05CFE4F19
:10205000859194919F878E87DF91CF911F910895ED
:10206000FF920F931F93CF93DF93EC01F62E522F25
:102070001B821A8208EE13E020E030E00C831D83FF
:102080002E833F838FE194E0998388831C8A1B8A87
:102090001E8A1D8A188E1F8A1A8E198E8B8D8E7F2E
:1020A00050FB81F98B8F642FCE010E94E20F6F2DC0
:1020B000CE01DF91CF911F910F91FF900C940710EB
:1020C0000F931F93CF93DF93EC011A8E198E188E06
:1020D0001F8A1E8A1D8AA8E6B0E080E090E0FD011C
:1020E0000591159125913491041715072607370797
:1020F00009F031C02CE0289FF001299FF00D112438
:10210000E459FF4F259134913C8B2B8B2CE0289F79
:10211000F001299FF00D1124E259FF4F25913491D0
:102120003E8B2D8B2CE0289FF001299FF00D112470
:10213000E059FF4F25913491388F2F8B2CE0289F49
:10214000F001299FF00D1124EE58FF4F85919491D5
:102150009A8F898F08C001961C968D30910509F0E1
:10216000BECF1C8A1B8A8F89988D892B09F443C0A6
:102170008C858631E0F520916800883050F091E040
:102180008E3008F490E081E001C0880F9A95EAF75C
:1021900001C084E0822B809368002C85283038F0C1
:1021A0002E3040F0263148F0E0E0F0E008C0EDE6E7
:1021B000F0E005C0EBE6F0E002C0ECE6F0E03081D4
:1021C000283030F481E001C0880F2A95EAF70DC06D
:1021D000822F90E02E3010F4089701C00E9791E006
:1021E00001C0990F8A95EAF7892F832B8083898D07
:1021F0009A8D0E94750ECE01DF91CF911F910F91A4
:102200000C947C0EFC014485463150F5483028F092
:102210004E3030F4EBE6F0E005C0EDE6F0E002C051
:10222000ECE6F0E05081483040F481E090E0042E8C
:1022300001C0880F0A94EAF710C0242F30E04E3016
:1022400018F42850310902C02E50310981E090E085
:10225000022E01C0880F0A94EAF7809585238083B7
:1022600008952FE134E0FC01318320830C940211A6
:102270008230E8F4E82FF0E0EE0FFF1FE45BFA4F46
:1022800071836083813041F0809169008C7F842B61
:1022900080936900E89A089580916900440F551F62
:1022A000440F551F837F842B80936900E99A08951A
:1022B0001F920F920FB60F9211242F933F934F93BB
:1022C0005F936F937F938F939F93AF93BF93EF939E
:1022D000FF9380914C0590914D05892B29F0E09159
:1022E0004C05F0914D050995FF91EF91BF91AF918C
:1022F0009F918F917F916F915F914F913F912F911E
:102300000F900FBE0F901F9018951F920F920FB64F
:102310000F9211242F933F934F935F936F937F936B
:102320008F939F93AF93BF93EF93FF9380914E054D
:1023300090914F05892B29F0E0914E05F0914F05C2
:102340000995FF91EF91BF91AF919F918F917F91EF
:102350006F915F914F913F912F910F900FBE0F9012
:102360001F9018958E3008F08E50877020910001D4
:1023700090E4299F90011124822B80937C0080910E
:102380007A00806480937A0080917A0086FDFCCF89
:10239000809178002091790090E0922B08951F920F
:1023A0000F920FB60F9211242F933F938F939F9309
:1023B000AF93BF938091510590915205A091530521
:1023C000B09154053091500526E0230F2D3720F4AD
:1023D0000296A11DB11D05C029E8230F0396A11D7A
:1023E000B11D209350058093510590935205A09301
:1023F0005305B09354058091550590915605A091D1
:102400005705B09158050196A11DB11D8093550542
:1024100090935605A0935705B0935805BF91AF917F
:102420009F918F913F912F910F900FBE0F901F9012
:1024300018952FB7F89460915105709152058091CD
:102440005305909154052FBF08953FB7F89480919C
:10245000550590915605A0915705B091580526B5A0
:10246000A89B05C02F3F19F00196A11DB11D3FBFCC
:102470006627782F892F9A2F620F711D811D911D5C
:1024800043E0660F771F881F991F4A95D1F708957B
:10249000CF92DF92EF92FF92CF93DF936B017C019B
:1024A0000E942512EB01C114D104E104F10479F07A
:1024B0000E9425126C1B7D0B683E7340A0F381E0E7
:1024C000C81AD108E108F108C851DC4FECCFDF9100
:1024D000CF91FF90EF90DF90CF900895789484B5DE
:1024E000826084BD84B5816084BD85B5826085BD10
:1024F00085B5816085BDEEE6F0E0808181608083F6
:10250000E1E8F0E0108280818260808380818160D8
:102510008083E0E8F0E0808181608083E1EBF0E09F
:10252000808184608083E0EBF0E080818160808343
:10253000EAE7F0E08081846080838081826080832C
:102540008081816080838081806880831092C10057
:102550000895833081F028F4813099F08230A1F021
:1025600008958630A9F08730B9F08430D1F4809195
:1025700080008F7D03C0809180008F7780938000E2
:10258000089584B58F7702C084B58F7D84BD08958A
:102590008091B0008F7703C08091B0008F7D8093D1
:1025A000B0000895CF93DF9390E0FC01E85EFE4F0A
:1025B0002491FC01E45DFE4F8491882349F190E071
:1025C000880F991FFC01EC5AFE4FA591B491865BD0
:1025D0009E4FFC01C591D4919FB7611108C0F8943A
:1025E0008C91209582238C93888182230AC062304B
:1025F00051F4F8948C91322F309583238C938881F9
:10260000822B888304C0F8948C91822B8C939FBF7B
:10261000DF91CF9108950F931F93CF93DF931F9274
:10262000CDB7DEB7282F30E0F901EC5FFE4F849183
:10263000F901E85EFE4F1491F901E45DFE4F04914B
:102640000023C9F0882321F069830E94A9126981BF
:10265000E02FF0E0EE0FFF1FE65BFE4FA591B49177
:102660009FB7F8948C91611103C01095812301C02C
:10267000812B8C939FBF0F90DF91CF911F910F9172
:102680000895CF93DF938230910510F482E090E0BB
:10269000E0910506F091060620E030E0A0E0B0E011
:1026A000309739F14081518148175907B8F04817E0
:1026B000590771F482819381109729F013969C93A6
:1026C0008E9312972CC0909306068093050627C020
:1026D0002115310531F04217530718F0A901DB012C
:1026E00001C0EF019A01BD01DF010280F381E02DFD
:1026F000D7CF21153105F9F0281B390B24303105CE
:1027000080F48A819B816115710521F0FB0193831F
:10271000828304C09093060680930506FE013296DC
:1027200044C0FE01E20FF31F8193919322503109BF
:10273000398328833AC02091030630910406232B65
:1027400041F4209103013091040130930406209359
:10275000030620910101309102012115310541F458
:102760002DB73EB74091050150910601241B350B52
:10277000E0910306F0910406E217F307A0F42E1B84
:102780003F0B2817390778F0AC014E5F5F4F2417D5
:10279000350748F04E0F5F1F509304064093030621
:1027A0008193919302C0E0E0F0E0CF01DF91CF91FF
:1027B0000895CF93DF93009709F487C0FC01329707
:1027C00013821282C0910506D0910606209781F4EB
:1027D00020813181280F391F8091030690910406D2
:1027E0008217930779F5F0930406E09303066DC012
:1027F000DE0120E030E0AE17BF0750F412964D9195
:102800005C9113979D014115510509F1DA01F3CF50
:10281000B383A28340815181840F951F8A179B0740
:1028200071F48D919C911197840F951F029691835D
:10283000808312968D919C911397938382832115A7
:10284000310529F4F0930606E09305063EC0D90150
:102850001396FC93EE9312974D915D91A40FB51FC3
:10286000EA17FB0779F480819181840F951F029606
:10287000D90111969C938E938281938113969C9398
:102880008E931297E0E0F0E08A819B81009719F027
:10289000FE01EC01F9CFCE01029628813981820F29
:1028A000931F20910306309104062817390769F415
:1028B000309729F4109206061092050602C0138282
:1028C0001282D0930406C0930306DF91CF9108953E
:1028D0000E946E120E94E200C5E4D5E10E94E3006E
:1028E0002097E1F30E944515F9CF0C9441130C9405
:1028F000D913FC0124853585F901E05CFF4F808107
:102900009181329620813181821B930B8F7399279D
:102910000895FC0184859585FC01E05CFF4F4081B2
:1029200051813296208131814217530741F0019045
:10293000F081E02DE80FF91F808190E008958FEF7E
:102940009FEF0895FC0184859585FC01E05CFF4FB5
:10295000408151813296208131814217530779F0AD
:10296000A081B181A80FB91F8C91208131812F5F87
:102970003F4F2F7333273183208390E008958FEFEB
:102980009FEF0895FC0181A1882329F0A489B589CE
:102990008C9186FFFBCF11A20895CF93DF93FC01AA
:1029A00026853785D901A05CBF4F8D919C911197E9
:1029B00001968F739927E901CE5BDF4F48815981DA
:1029C00084179507D9F30D90BC91A02DA20FB31FCA
:1029D0006C93A685B785A05CBF4F11969C938E9390
:1029E000A689B7892C9181E090E0078C02C0880FFE
:1029F000991F0A94E2F7282B2C9381E081A3048885
:102A0000F589E02D80818064808381E090E0DF9112
:102A1000CF91089508951F920F920FB60F9211242F
:102A20002F933F934F938F939F93EF93FF938091B7
:102A3000C00082FD1CC04091C6008091FF059091AE
:102A4000000601968F7399272091010630910206A6
:102A50008217930771F0E091FF05F0910006E154B1
:102A6000FA4F4083909300068093FF0502C0809147
:102A7000C600FF91EF919F918F914F913F912F91C0
:102A80000F900FBE0F901F90189589E595E00E945A
:102A90007914892B11F00C940A1508951F920F9246
:102AA0000FB60F9211242F933F938F939F93EF9321
:102AB000FF932091BB053091BC058091BD0590919D
:102AC000BE052817390731F48091C1008F7D8093AE
:102AD000C10014C0E091BD05F091BE05E558FA4F64
:102AE00020818091BD059091BE0501968F73992735
:102AF0009093BE058093BD052093C600FF91EF9192
:102B00009F918F913F912F910F900FBE0F901F902B
:102B10001895CF92DF92EF92FF92CF93DF93EC0163
:102B20006A017B01EC89FD8981E090E008A002C088
:102B3000880F991F0A94E2F7808360E874E88EE1B9
:102B400090E0A70196010E94251A21503109410900
:102B500051095695479537952795211580E13807F6
:102B600098F0EC89FD89108260E472E48FE090E0D7
:102B7000A70196010E94251A2150310941095109E6
:102B80005695479537952795E889F9893083EA89DD
:102B9000FB89208319A2EE89FF89408181E090E0C2
:102BA0009C010C8C02C0220F331F0A94E2F7422BC7
:102BB0004083EE89FF8940819C010D8C02C0220F69
:102BC000331F0A94E2F7422B4083EE89FF8940814C
:102BD0009C010E8C02C0220F331F0A94E2F7422B95
:102BE0004083EE89FF8920810F8C02C0880F991FD6
:102BF0000A94E2F7809582238083DF91CF91FF9042
:102C0000EF90DF90CF90089510925C0510925B05D5
:102C100088EE93E0A0E0B0E080935D0590935E05C0
:102C2000A0935F05B09360058FE294E090935A05FE
:102C3000809359058FEB95E0909366058093650529
:102C40008BE795E0909368058093670585EC90E0AD
:102C500090936A058093690584EC90E090936C05ED
:102C600080936B0580EC90E090936E0580936D05EA
:102C700081EC90E09093700580936F0582EC90E07A
:102C8000909372058093710586EC90E090937405A3
:102C90008093730584E08093750583E080937605C7
:102CA00087E08093770585E08093780581E08093C5
:102CB00079050895CF92DF92EF92FF920F931F93C1
:102CC000CF93DF936C017A01EB01E60EF71E00E073
:102CD00010E0CE15DF0561F06991D601ED91FC9110
:102CE0000190F081E02DC6010995080F191FF1CF61
:102CF000C801DF91CF911F910F91FF90EF90DF906E
:102D0000CF9008956115710581F0DB010D900020D1
:102D1000E9F7AD0141505109461B570BDC01ED911C
:102D2000FC910280F381E02D099480E090E0089509
:102D30000C948216DC01ED91FC910190F081E02D64
:102D400009940F931F93CF93DF93EC016DE00E94E2
:102D50009A168C016AE0CE010E949A16800F911F8C
:102D6000DF91CF911F910F9108950F931F93CF93F0
:102D7000DF93EC010E9482168C01CE010E94A11605
:102D8000800F911FDF91CF911F910F9108958F9226
:102D90009F92AF92BF92CF92DF92EF92FF920F93EA
:102DA0001F93CF93DF93CDB7DEB7A1970FB6F894FB
:102DB000DEBF0FBECDBF7C01C42EE52FCB01D22ECE
:102DC00019A221E02D1510F02AE0D22E8E010F5D00
:102DD0001F4F8D2C912CA12CB12C6C2D7E2FA50179
:102DE00094010E94251A8C2DD29E80191124015025
:102DF00011098A3014F4805D01C0895CF801808378
:102E0000211531054105510521F0C22EE32FCA01DC
:102E1000E4CFB801C7010E948216A1960FB6F894BC
:102E2000DEBF0FBECDBFDF91CF911F910F91FF90FD
:102E3000EF90DF90CF90BF90AF909F908F900895CC
:102E4000CF92DF92EF92FF920F931F93CF93DF9376
:102E5000EC016A017B012115310579F4E881F981E2
:102E60000190F081E02D642FDF91CF911F910F91A0
:102E7000FF90EF90DF90CF9009942A303105E9F46C
:102E800077FF1AC06DE20E949A168C0144275527DD
:102E9000BA014C195D096E097F092AE0CE010E9432
:102EA000C716800F911FDF91CF911F910F91FF9057
:102EB000EF90DF90CF9008952AE0B701A601CE01F0
:102EC000DF91CF911F910F91FF90EF90DF90CF9006
:102ED0000C94C7169A01AB01662757FD6095762FB3
:102EE0000C9420170F931F93CF93DF93EC019A015B
:102EF000AB01662757FD6095762F0E9420178C0145
:102F0000CE010E94A116800F911FDF91CF911F91DA
:102F10000F9108952115310541F4DC01ED91FC91EB
:102F20000190F081E02D642F09940C94C7169A014A
:102F3000AB0160E070E00C948A170F931F93CF935E
:102F4000DF93EC019A01AB0160E070E00E948A1708
:102F50008C01CE010E94A116800F911FDF91CF91AD
:102F60001F910F9108950F931F93CF93DF93EC015F
:102F70000E948A178C01CE010E94A116800F911F1A
:102F8000DF91CF911F910F9108955058BB27AA2729
:102F90000ED04DC13ED130F043D120F031F49F3FEF
:102FA00011F41EF433C10EF4E095E7FB29C1E92FBB
:102FB0004FD180F3BA17620773078407950718F09B
:102FC00071F49EF567C10EF4E0950B2EBA2FA02D7B
:102FD0000B01B90190010C01CA01A0011124FF27C6
:102FE000591B99F0593F50F4503E68F11A16F040C1
:102FF000A22F232F342F4427585FF3CF46953795C0
:103000002795A795F0405395C9F77EF41F16BA0B84
:10301000620B730B840BBAF09150A1F0FF0FBB1F32
:10302000661F771F881FC2F70EC0BA0F621F731F7B
:10303000841F48F4879577956795B795F7959E3FD8
:1030400008F0B3CF9395880F08F09927EE0F979566
:10305000879508950CD0EBC0E3D040F0DAD030F083
:1030600021F45F3F19F0CCC0511115C1CFC0F0D091
:1030700098F39923C9F35523B1F3951B550BBB273F
:10308000AA2762177307840738F09F5F5F4F220FEC
:10309000331F441FAA1FA9F333D00E2E3AF0E0E8E5
:1030A00030D091505040E695001CCAF729D0FE2F31
:1030B00027D0660F771F881FBB1F261737074807C3
:1030C000AB07B0E809F0BB0B802DBF01FF27935879
:1030D0005F4F2AF09E3F510568F092C0DCC05F3F11
:1030E000ECF3983EDCF3869577956795B795F79561
:1030F0009F5FC9F7880F911D9695879597F9089559
:10310000E1E0660F771F881FBB1F621773078407F4
:10311000BA0720F0621B730B840BBA0BEE1F88F703
:10312000E095089504D06894B111B5C0089598D081
:1031300088F09F5790F0B92F9927B751A0F0D1F0A0
:10314000660F771F881F991F1AF0BA95C9F712C02A
:10315000B13081F09FD0B1E008959CC0672F782FE7
:103160008827B85F39F0B93FCCF386957795679596
:10317000B395D9F73EF490958095709561957F4F02
:103180008F4F9F4F0895E89409C097FB3EF49095A8
:103190008095709561957F4F8F4F9F4F9923A9F030
:1031A000F92F96E9BB279395F695879577956795BF
:1031B000B795F111F8CFFAF4BB0F11F460FF1BC003
:1031C0006F5F7F4F8F4F9F4F16C0882311F096E996
:1031D00011C0772321F09EE8872F762F05C0662344
:1031E00071F096E8862F70E060E02AF09A95660FFD
:1031F000771F881FDAF7880F9695879597F90895B6
:1032000097F99F6780E870E060E008959FEF80EC99
:10321000089500240A94161617061806090608953C
:1032200000240A9412161306140605060895092EA2
:103230000394000C11F4882352F0BB0F40F4BF2B11
:1032400011F460FF04C06F5F7F4F8F4F9F4F089551
:1032500057FD9058440F551F59F05F3F71F0479547
:10326000880F97FB991F61F09F3F79F0879508952C
:10327000121613061406551FF2CF4695F1DF08C04B
:10328000161617061806991FF1CF86957105610568
:1032900008940895E894BB2766277727CB0197F910
:1032A00008950BD0C4CFB5DF28F0BADF18F095230E
:1032B00009F0A6CFABCF1124EECFCADFA0F3959FC4
:1032C000D1F3950F50E0551F629FF001729FBB270D
:1032D000F00DB11D639FAA27F00DB11DAA1F649FB9
:1032E0006627B00DA11D661F829F2227B00DA11D6C
:1032F000621F739FB00DA11D621F839FA00D611DF2
:10330000221F749F3327A00D611D231F849F600D12
:10331000211D822F762F6A2F11249F5750408AF04B
:10332000E1F088234AF0EE0FFF1FBB1F661F771FD7
:10333000881F91505040A9F79E3F510570F060CF13
:10334000AACF5F3FECF3983EDCF3869577956795BF
:10335000B795F795E7959F5FC1F7FE2B880F911DF5
:103360009695879597F908957BDFE0F09E37D8F022
:103370009639B8F49E3848F4672F782F8827985FDD
:10338000F9CF86957795679593959539D0F3B62FB4
:10339000B1706B0F711D811D20F48795779567952E
:1033A000939502C01CC077CF882371F4772321F056
:1033B0009850872B762F07C0662311F499270DC0EC
:1033C0009051862B70E060E02AF09A95660F771F87
:1033D000881FDAF7880F9695879597F908959F3F8C
:1033E00031F0915020F4879577956795B795880FC0
:1033F000911D9695879597F90895AA1BBB1B51E1DE
:1034000007C0AA1FBB1FA617B70710F0A61BB70B54
:10341000881F991F5A95A9F780959095BC01CD01F9
:10342000089597FB072E16F4009407D077FD09D076
:103430000E94FD1907FC05D03EF4909581959F4FA1
:103440000895709561957F4F0895A1E21A2EAA1BE9
:10345000BB1BFD010DC0AA1FBB1FEE1FFF1FA21744
:10346000B307E407F50720F0A21BB30BE40BF50B41
:10347000661F771F881F991F1A9469F760957095CA
:10348000809590959B01AC01BD01CF010895EE0F91
:10349000FF1F0590F491E02D09949111D4C2803260
:1034A00019F089508550D0F70895AEE0B0E0EBE513
:1034B000FAE10C94981D85E08C838B899C899A8312
:1034C0008983AE01495E5F4F6D897E89CE01019689
:1034D0000E94EC1B2E96E2E00C94B41D20FD09C066
:1034E000FC0123FD05C022FF02C073836283518368
:1034F0004083089544FD10C046FD10C0DB01FC016F
:10350000AA0FBB1FEE1FFF1F1094D1F76A0F7B1F7E
:103510008E1F9F1F31E003C033E001C034E0660F0F
:10352000771F881F991F3150D1F7620F711D811DC0
:10353000911D08950F931F93CF93DF938C01C801C2
:103540000E94311DEC0197FD08C00E944D1A892B85
:10355000B1F7B801CE010E946F1DCE01DF91CF916E
:103560001F910F9108958F929F92AF92CF92DF9209
:10357000EF92FF920F931F93CF93DF93EC01A62E50
:103580004A01022F0E94311DAC0155274B325105D3
:1035900021F04D32510551F40068AA9411F480E0F5
:1035A00067C0CE010E94311D97FDF9CF102F1D7FFE
:1035B000302F307301F58033F1F4FF24FA94FA0CC4
:1035C00009F442C0CE010E94311D97FD3DC0382F45
:1035D0003F7D383551F41264AA94AA94A9F1CE0122
:1035E0000E94311D97FF07C02FC006FF02C0126066
:1035F00001C01261AF2CC12CD12C760120ED280F17
:10360000283080F014FF04C0BE010E946F1D19C055
:103610002A3040F016FFF8CF2F7D3FEE320F3630C4
:1036200098F72750412FC701B6010E947A1A6B0103
:103630007C011260AA9459F0CE010E94311D97FFBF
:10364000DDCF11FD04C0ABCFC12CD12C760117FF0B
:1036500008C0F094E094D094C094C11CD11CE11C2B
:10366000F11C212FB701A601C4010E946E1A81E04E
:10367000DF91CF911F910F91FF90EF90DF90CF904E
:10368000AF909F908F900895A1E2B0E0EAE4FBE153
:103690000C948D1D5C017A018E010F5F1F4F680134
:1036A00080E2D8011D928A95E9F7F501738040E028
:1036B00050E0812CB0E0912C81E090E0F90173FCA6
:1036C000A59173FEA1918F017A2F9F01A11103C0D3
:1036D00080E090E07DC0AE3519F44115510559F1F7
:1036E000E92DF0E0E417F5073CF4AD3569F1AD32B2
:1036F00019F4BB2319F103C0B11101C08A2EE72FC1
:10370000E695E695E69586010E0F111DF801A72FA7
:10371000A7708C0102C0000F111FAA95E2F7D80113
:10372000B081BA2BB083781559F0781510F47F5F0B
:10373000E6CF7150E4CF9924939403C0B1E001C067
:10374000B0E04F5F5F4FBACFBB2319F08E8180622C
:103750008E83911003C09924939415C0F601CE0175
:103760008196208120952193E817F907D1F7F3CFAF
:10377000E114F10429F0D7018C93F70131967F0110
:10378000615001F1912CC50169A30E94311D69A10D
:1037900097FD16C0282F269526952695F601E20F4F
:1037A000F11D208130E0AC014770552702C03595EE
:1037B00027954A95E2F720FDDBCFB5010E946F1DEA
:1037C000911086CFE114F10411F0D7011C92C801C9
:1037D000A196EDE00C94A91D4F925F927F928F927B
:1037E0009F92AF92BF92CF92DF92EF92FF920F9390
:1037F0001F93CF93DF931F92CDB7DEB78C012B01C0
:103800007A01FC0117821682A12CF801D380F20103
:10381000D3FC8591D3FE8191382F2F01882309F4A1
:10382000FCC090E039830E944D1A3981892B21F028
:10383000C8010E949A1AE9CF353241F4F201D3FC53
:103840003591D3FE31912F01353269F4C8013983A6
:103850000E94311D398197FDDEC03817B1F2B801E1
:103860000E946F1DDAC03A3241F4D3FC3591D3FE89
:1038700031912F01BB24B39401C0B12C712C20EDE8
:10388000230F2A3090F4FB2DF260BF2E672D70E0DD
:1038900080E090E040E20E947A1A762EF201D3FC9A
:1038A0003591D3FE31912F01EACFB1FE03C07110E3
:1038B00003C0B3C077247A94383619F03C3661F0EF
:1038C00014C0F201D3FC3591D3FE31912F0138366B
:1038D00061F4FB2DF860BF2E8B2D8460B82EF201B1
:1038E000D3FC3591D3FE31912F01332309F495C0D8
:1038F000632F70E08EE591E039830E94261D3981A7
:10390000892B09F48AC0B0FC07C0F701C080D180C0
:10391000C70102967C0102C0C12CD12C3E3651F465
:10392000F8014681578160E070E02B2DC6010E94AE
:103930006E1A6BCF3336A1F4B1FC02C077247394B6
:10394000C8010E94311D97FD66C0C114D10429F041
:10395000F6018083C60101966C017A9489F757C0FD
:103960003B3559F49201A601672DC8010E94441B02
:103970002C01009709F04BC045C0C80139830E9453
:103980009A1A398197FD47C03F3669F128F43436D9
:1039900031F1393679F12BC0333769F03537F9F029
:1039A00026C0C114D10429F0F6018082C601019617
:1039B0006C017A9471F0C8010E94311D4C0197FD91
:1039C00008C00E944D1A892B61F3B801C4010E94FE
:1039D0006F1DC114D104D9F0F601108218C0FB2D5F
:1039E000F062BF2E07C08B2D8061B82E03C09B2DC7
:1039F0009064B92E2B2DA601672DC8010E94B31A21
:103A0000811105C0F8018381807329F406C0B0FCE0
:103A1000FCCEA394FACEAA2019F08A2D90E002C021
:103A20008FEF9FEF0F90DF91CF911F910F91FF903C
:103A3000EF90DF90CF90BF90AF909F908F907F904E
:103A40005F904F900895992788270895FC0105906D
:103A5000061621F00020D9F7C00108953197CF0153
:103A60000895CF93DF93EC012B8120FF33C026FF15
:103A70000AC02F7B2B838E819F8101969F838E832B
:103A80008A8190E029C022FF0FC0E881F9818081FE
:103A9000992787FD9095009719F420622B831AC00F
:103AA0003196F983E8830EC0EA85FB85099597FF77
:103AB00009C02B81019611F480E101C080E2822BC4
:103AC0008B8308C02E813F812F5F3F4F3F832E8322
:103AD000992702C08FEF9FEFDF91CF910895FB01EF
:103AE000238120FF12C026FD10C08F3F3FEF9307B8
:103AF00061F082832F7D20642383268137812150CA
:103B0000310937832683992708958FEF9FEF089512
:103B10002F923F924F925F926F927F928F929F92DD
:103B2000AF92BF92CF92DF92EF92FF920F931F93CB
:103B3000CF93DF93CDB7DEB7CA1BDB0B0FB6F8947C
:103B4000DEBF0FBECDBF09942A88398848885F84BC
:103B50006E847D848C849B84AA84B984C884DF802D
:103B6000EE80FD800C811B81AA81B981CE0FD11D11
:103B70000FB6F894DEBF0FBECDBFED010895F894E7
:023B8000FFCF75
:103B8200010000070680004753465F554E4B4E4FDB
:103B9200574E5F4944004753465F4E4F545F53555B
:103BA20050504F52544544004753465F5041524192
:103BB2004D455445525F4552524F5200556E6578FD
:103BC200706563746564205365742F47657420665D
:103BD2006C616773004661696C65642E2E2E003A33
:103BE2003744354544303038430A003A3744374584
:103BF20044303038410A003A374433454430303893
:103C0200450A003A3744324544303038460A003AD1
:103C12003741444544303042340A003A3742424543
:103C220044303041360A003A37424445443030414C
:103C3200340A003A3744424544303038360A003AB2
:103C42003742434544303041350A004D61696E5474
:103C520061736B207374617274656400467265658A
:103C6200206D656D6F72792062797465733A2000F8
:103C7200727463496E69742829206661696C65648F
:103C820021005365742052544320616C61726D208F
:103C9200696E206F6E65206D696E757465002425EE
:103CA200782C256C78005441475F5044555F434F50
:103CB2004E54524F4C20005441475F5250495F537B
:103CC2004C4545505F54494D4520005441475F5390
:103CD20050495F534C4545505F54494D452000546F
:103CE20041475F5350495F53595354454D5F5449BF
:103CF2004D45200070616E656C566F6C746167652E
:103D0200200070616E656C506F7765722000636889
:103D12006172676572566F6C7461676520006368D3
:103D2200617267657243757272656E7420006368B2
:103D32006172676572506F776572546F6461792042
:103D420000636861726765724D6178506F77657262
:103D5200546F64617920006C6F616443757272659F
:103D62006E74200063707554656D70657261747550
:103D72007265200057616974696E6720666F7220F0
:103D820052506920746F2073687574646F776E2067
:103D92006174205250692063757272656E7420746A
:103DA20068726573686F6C642000206D4100525028
:103DB200692063757272656E743A2000506F776580
:103DC2007220646F776E2052506900506F7765726F
:103DD200207570205250690057616974696E6720BE
:103DE200666F722052506920746F20706F7765720F
:103DF200207570206174205250692063757272655B
:103E02006E74207468726573686F6C642000574426
:103E120054005254430020696E7465727275707456
:103E22002E200055702074696D653A20005265613C
:103E320064696E6720736F6C617220636861726778
:103E4200657200525443206469646E277420666967
:103E5200726520696E7465727275707421006932C0
:103E620063526563656976657220006932635472D4
:103E7200616E736D69747465722000000000001435
:103E8200032403000000001C032E0300000000496D
:103E92000A1C0AC209CA09DD09EC09000000000473
:103EA2000F5A16420E070E280E5A0E00000000CDC1
:0C3EB200145A167914A2148914C21400CA
:00000001FF
